{
  "_format": "hh-sol-artifact-1",
  "contractName": "EnumerableNFT",
  "sourceName": "contracts/NFT/EnumerableNFT.sol",
  "abi": [
    {
      "anonymous": false,
      "inputs": [
        {
          "indexed": true,
          "internalType": "address",
          "name": "owner",
          "type": "address"
        },
        {
          "indexed": true,
          "internalType": "address",
          "name": "approved",
          "type": "address"
        },
        {
          "indexed": true,
          "internalType": "uint256",
          "name": "tokenId",
          "type": "uint256"
        }
      ],
      "name": "Approval",
      "type": "event"
    },
    {
      "anonymous": false,
      "inputs": [
        {
          "indexed": true,
          "internalType": "address",
          "name": "owner",
          "type": "address"
        },
        {
          "indexed": true,
          "internalType": "address",
          "name": "operator",
          "type": "address"
        },
        {
          "indexed": false,
          "internalType": "bool",
          "name": "approved",
          "type": "bool"
        }
      ],
      "name": "ApprovalForAll",
      "type": "event"
    },
    {
      "anonymous": false,
      "inputs": [
        {
          "indexed": true,
          "internalType": "address",
          "name": "from",
          "type": "address"
        },
        {
          "indexed": true,
          "internalType": "address",
          "name": "to",
          "type": "address"
        },
        {
          "indexed": true,
          "internalType": "uint256",
          "name": "tokenId",
          "type": "uint256"
        }
      ],
      "name": "Transfer",
      "type": "event"
    },
    {
      "inputs": [
        {
          "internalType": "address",
          "name": "to",
          "type": "address"
        },
        {
          "internalType": "uint256",
          "name": "tokenId",
          "type": "uint256"
        }
      ],
      "name": "approve",
      "outputs": [],
      "stateMutability": "nonpayable",
      "type": "function"
    },
    {
      "inputs": [
        {
          "internalType": "address",
          "name": "owner",
          "type": "address"
        }
      ],
      "name": "balanceOf",
      "outputs": [
        {
          "internalType": "uint256",
          "name": "",
          "type": "uint256"
        }
      ],
      "stateMutability": "view",
      "type": "function"
    },
    {
      "inputs": [],
      "name": "getAllNfts",
      "outputs": [
        {
          "internalType": "uint256[]",
          "name": "ids",
          "type": "uint256[]"
        },
        {
          "internalType": "string[]",
          "name": "uris",
          "type": "string[]"
        },
        {
          "internalType": "address[]",
          "name": "owners",
          "type": "address[]"
        },
        {
          "internalType": "uint256[]",
          "name": "prices",
          "type": "uint256[]"
        }
      ],
      "stateMutability": "view",
      "type": "function"
    },
    {
      "inputs": [
        {
          "internalType": "uint256",
          "name": "tokenId",
          "type": "uint256"
        }
      ],
      "name": "getApproved",
      "outputs": [
        {
          "internalType": "address",
          "name": "",
          "type": "address"
        }
      ],
      "stateMutability": "view",
      "type": "function"
    },
    {
      "inputs": [],
      "name": "getNftsOnSale",
      "outputs": [
        {
          "internalType": "uint256[]",
          "name": "ids",
          "type": "uint256[]"
        },
        {
          "internalType": "string[]",
          "name": "uris",
          "type": "string[]"
        },
        {
          "internalType": "address[]",
          "name": "owners",
          "type": "address[]"
        },
        {
          "internalType": "uint256[]",
          "name": "prices",
          "type": "uint256[]"
        }
      ],
      "stateMutability": "view",
      "type": "function"
    },
    {
      "inputs": [],
      "name": "getNftsOnSaleNum",
      "outputs": [
        {
          "internalType": "uint256",
          "name": "",
          "type": "uint256"
        }
      ],
      "stateMutability": "view",
      "type": "function"
    },
    {
      "inputs": [],
      "name": "getNftsOwned",
      "outputs": [
        {
          "internalType": "uint256[]",
          "name": "ids",
          "type": "uint256[]"
        },
        {
          "internalType": "string[]",
          "name": "uris",
          "type": "string[]"
        },
        {
          "internalType": "address[]",
          "name": "owners",
          "type": "address[]"
        },
        {
          "internalType": "uint256[]",
          "name": "prices",
          "type": "uint256[]"
        }
      ],
      "stateMutability": "view",
      "type": "function"
    },
    {
      "inputs": [
        {
          "internalType": "address",
          "name": "owner",
          "type": "address"
        },
        {
          "internalType": "address",
          "name": "operator",
          "type": "address"
        }
      ],
      "name": "isApprovedForAll",
      "outputs": [
        {
          "internalType": "bool",
          "name": "",
          "type": "bool"
        }
      ],
      "stateMutability": "view",
      "type": "function"
    },
    {
      "inputs": [],
      "name": "name",
      "outputs": [
        {
          "internalType": "string",
          "name": "",
          "type": "string"
        }
      ],
      "stateMutability": "view",
      "type": "function"
    },
    {
      "inputs": [
        {
          "internalType": "uint256",
          "name": "tokenId",
          "type": "uint256"
        }
      ],
      "name": "ownerOf",
      "outputs": [
        {
          "internalType": "address",
          "name": "",
          "type": "address"
        }
      ],
      "stateMutability": "view",
      "type": "function"
    },
    {
      "inputs": [
        {
          "internalType": "address",
          "name": "from",
          "type": "address"
        },
        {
          "internalType": "address",
          "name": "to",
          "type": "address"
        },
        {
          "internalType": "uint256",
          "name": "tokenId",
          "type": "uint256"
        }
      ],
      "name": "safeTransferFrom",
      "outputs": [],
      "stateMutability": "nonpayable",
      "type": "function"
    },
    {
      "inputs": [
        {
          "internalType": "address",
          "name": "from",
          "type": "address"
        },
        {
          "internalType": "address",
          "name": "to",
          "type": "address"
        },
        {
          "internalType": "uint256",
          "name": "tokenId",
          "type": "uint256"
        },
        {
          "internalType": "bytes",
          "name": "_data",
          "type": "bytes"
        }
      ],
      "name": "safeTransferFrom",
      "outputs": [],
      "stateMutability": "nonpayable",
      "type": "function"
    },
    {
      "inputs": [
        {
          "internalType": "address",
          "name": "operator",
          "type": "address"
        },
        {
          "internalType": "bool",
          "name": "approved",
          "type": "bool"
        }
      ],
      "name": "setApprovalForAll",
      "outputs": [],
      "stateMutability": "nonpayable",
      "type": "function"
    },
    {
      "inputs": [
        {
          "internalType": "bytes4",
          "name": "interfaceId",
          "type": "bytes4"
        }
      ],
      "name": "supportsInterface",
      "outputs": [
        {
          "internalType": "bool",
          "name": "",
          "type": "bool"
        }
      ],
      "stateMutability": "view",
      "type": "function"
    },
    {
      "inputs": [],
      "name": "symbol",
      "outputs": [
        {
          "internalType": "string",
          "name": "",
          "type": "string"
        }
      ],
      "stateMutability": "view",
      "type": "function"
    },
    {
      "inputs": [
        {
          "internalType": "uint256",
          "name": "index",
          "type": "uint256"
        }
      ],
      "name": "tokenByIndex",
      "outputs": [
        {
          "internalType": "uint256",
          "name": "",
          "type": "uint256"
        }
      ],
      "stateMutability": "view",
      "type": "function"
    },
    {
      "inputs": [
        {
          "internalType": "address",
          "name": "owner",
          "type": "address"
        },
        {
          "internalType": "uint256",
          "name": "index",
          "type": "uint256"
        }
      ],
      "name": "tokenOfOwnerByIndex",
      "outputs": [
        {
          "internalType": "uint256",
          "name": "",
          "type": "uint256"
        }
      ],
      "stateMutability": "view",
      "type": "function"
    },
    {
      "inputs": [
        {
          "internalType": "uint256",
          "name": "tokenId",
          "type": "uint256"
        }
      ],
      "name": "tokenURI",
      "outputs": [
        {
          "internalType": "string",
          "name": "",
          "type": "string"
        }
      ],
      "stateMutability": "view",
      "type": "function"
    },
    {
      "inputs": [],
      "name": "totalSupply",
      "outputs": [
        {
          "internalType": "uint256",
          "name": "",
          "type": "uint256"
        }
      ],
      "stateMutability": "view",
      "type": "function"
    },
    {
      "inputs": [
        {
          "internalType": "address",
          "name": "from",
          "type": "address"
        },
        {
          "internalType": "address",
          "name": "to",
          "type": "address"
        },
        {
          "internalType": "uint256",
          "name": "tokenId",
          "type": "uint256"
        }
      ],
      "name": "transferFrom",
      "outputs": [],
      "stateMutability": "nonpayable",
      "type": "function"
    }
  ],
  "bytecode": "0x608060405234801561001057600080fd5b50612404806100206000396000f3fe608060405234801561001057600080fd5b506004361061016c5760003560e01c80635da82b24116100cd57806395d89b4111610081578063b88d4fde11610066578063b88d4fde146102bd578063c87b56dd146102d0578063e985e9c5146102e357600080fd5b806395d89b41146102a2578063a22cb465146102aa57600080fd5b806370a08231116100b257806370a082311461027f578063732e8d731461029257806375d1f1401461029a57600080fd5b80635da82b24146102645780636352211e1461026c57600080fd5b806323b872dd11610124578063360a037411610109578063360a03741461022657806342842e0e1461023e5780634f6ccce71461025157600080fd5b806323b872dd146102005780632f745c591461021357600080fd5b8063081812fc11610155578063081812fc146101ae578063095ea7b3146101d957806318160ddd146101ee57600080fd5b806301ffc9a71461017157806306fdde0314610199575b600080fd5b61018461017f366004612095565b61031f565b60405190151581526020015b60405180910390f35b6101a1610330565b6040516101909190612287565b6101c16101bc3660046120cd565b6103c2565b6040516001600160a01b039091168152602001610190565b6101ec6101e736600461206c565b61045c565b005b6099545b604051908152602001610190565b6101ec61020e366004611f22565b61058e565b6101f261022136600461206c565b610615565b61022e6106bd565b60405161019094939291906121ee565b6101ec61024c366004611f22565b61093f565b6101f261025f3660046120cd565b61095a565b6101f2610a0c565b6101c161027a3660046120cd565b610a71565b6101f261028d366004611ed6565b610afc565b61022e610b96565b61022e610e0f565b6101a16110cc565b6101ec6102b8366004612032565b6110db565b6101ec6102cb366004611f5d565b6110ea565b6101a16102de3660046120cd565b611178565b6101846102f1366004611ef0565b6001600160a01b039182166000908152606a6020908152604080832093909416825291909152205460ff1690565b600061032a82611183565b92915050565b60606065805461033f90612309565b80601f016020809104026020016040519081016040528092919081815260200182805461036b90612309565b80156103b85780601f1061038d576101008083540402835291602001916103b8565b820191906000526020600020905b81548152906001019060200180831161039b57829003601f168201915b5050505050905090565b6000818152606760205260408120546001600160a01b03166104405760405162461bcd60e51b815260206004820152602c60248201527f4552433732313a20617070726f76656420717565727920666f72206e6f6e657860448201526b34b9ba32b73a103a37b5b2b760a11b60648201526084015b60405180910390fd5b506000908152606960205260409020546001600160a01b031690565b600061046782610a71565b9050806001600160a01b0316836001600160a01b031614156104f15760405162461bcd60e51b815260206004820152602160248201527f4552433732313a20617070726f76616c20746f2063757272656e74206f776e6560448201527f72000000000000000000000000000000000000000000000000000000000000006064820152608401610437565b336001600160a01b038216148061050d575061050d81336102f1565b61057f5760405162461bcd60e51b815260206004820152603860248201527f4552433732313a20617070726f76652063616c6c6572206973206e6f74206f7760448201527f6e6572206e6f7220617070726f76656420666f7220616c6c00000000000000006064820152608401610437565b61058983836111c1565b505050565b610598338261123c565b61060a5760405162461bcd60e51b815260206004820152603160248201527f4552433732313a207472616e736665722063616c6c6572206973206e6f74206f60448201527f776e6572206e6f7220617070726f7665640000000000000000000000000000006064820152608401610437565b610589838383611333565b600061062083610afc565b82106106945760405162461bcd60e51b815260206004820152602b60248201527f455243373231456e756d657261626c653a206f776e657220696e646578206f7560448201527f74206f6620626f756e64730000000000000000000000000000000000000000006064820152608401610437565b506001600160a01b03919091166000908152609760209081526040808320938352929052205490565b60608060608060006106ce32610afc565b905060008167ffffffffffffffff8111156106f957634e487b7160e01b600052604160045260246000fd5b604051908082528060200260200182016040528015610722578160200160208202803683370190505b50905060008267ffffffffffffffff81111561074e57634e487b7160e01b600052604160045260246000fd5b60405190808252806020026020018201604052801561078157816020015b606081526020019060019003908161076c5790505b50905060008367ffffffffffffffff8111156107ad57634e487b7160e01b600052604160045260246000fd5b6040519080825280602002602001820160405280156107d6578160200160208202803683370190505b50905060008467ffffffffffffffff81111561080257634e487b7160e01b600052604160045260246000fd5b60405190808252806020026020018201604052801561082b578160200160208202803683370190505b50905060005b8581101561092f5760006108453283610615565b90508086838151811061086857634e487b7160e01b600052603260045260246000fd5b60200260200101818152505061087d81611178565b85838151811061089d57634e487b7160e01b600052603260045260246000fd5b6020026020010181905250328483815181106108c957634e487b7160e01b600052603260045260246000fd5b6001600160a01b03909216602092830291909101820152600082815260fb9091526040902054835184908490811061091157634e487b7160e01b600052603260045260246000fd5b6020908102919091010152508061092781612344565b915050610831565b5092989197509550909350915050565b610589838383604051806020016040528060008152506110ea565b600061096560995490565b82106109d95760405162461bcd60e51b815260206004820152602c60248201527f455243373231456e756d657261626c653a20676c6f62616c20696e646578206f60448201527f7574206f6620626f756e647300000000000000000000000000000000000000006064820152608401610437565b609982815481106109fa57634e487b7160e01b600052603260045260246000fd5b90600052602060002001549050919050565b60008080610a1960995490565b905060005b81811015610a695760fb6000610a338361095a565b815260200190815260200160002054600014610a5757610a5460018461229a565b92505b80610a6181612344565b915050610a1e565b509092915050565b6000818152606760205260408120546001600160a01b03168061032a5760405162461bcd60e51b815260206004820152602960248201527f4552433732313a206f776e657220717565727920666f72206e6f6e657869737460448201527f656e7420746f6b656e00000000000000000000000000000000000000000000006064820152608401610437565b60006001600160a01b038216610b7a5760405162461bcd60e51b815260206004820152602a60248201527f4552433732313a2062616c616e636520717565727920666f7220746865207a6560448201527f726f2061646472657373000000000000000000000000000000000000000000006064820152608401610437565b506001600160a01b031660009081526068602052604090205490565b6060806060806000610ba760995490565b905060008167ffffffffffffffff811115610bd257634e487b7160e01b600052604160045260246000fd5b604051908082528060200260200182016040528015610bfb578160200160208202803683370190505b50905060008267ffffffffffffffff811115610c2757634e487b7160e01b600052604160045260246000fd5b604051908082528060200260200182016040528015610c5a57816020015b6060815260200190600190039081610c455790505b50905060008367ffffffffffffffff811115610c8657634e487b7160e01b600052604160045260246000fd5b604051908082528060200260200182016040528015610caf578160200160208202803683370190505b50905060008467ffffffffffffffff811115610cdb57634e487b7160e01b600052604160045260246000fd5b604051908082528060200260200182016040528015610d04578160200160208202803683370190505b50905060005b8581101561092f576000610d1d8261095a565b905080868381518110610d4057634e487b7160e01b600052603260045260246000fd5b602002602001018181525050610d5581611178565b858381518110610d7557634e487b7160e01b600052603260045260246000fd5b6020026020010181905250610d8981610a71565b848381518110610da957634e487b7160e01b600052603260045260246000fd5b6001600160a01b03909216602092830291909101820152600082815260fb90915260409020548351849084908110610df157634e487b7160e01b600052603260045260246000fd5b60209081029190910101525080610e0781612344565b915050610d0a565b6060806060806000610e1f610a0c565b905060008167ffffffffffffffff811115610e4a57634e487b7160e01b600052604160045260246000fd5b604051908082528060200260200182016040528015610e73578160200160208202803683370190505b50905060008267ffffffffffffffff811115610e9f57634e487b7160e01b600052604160045260246000fd5b604051908082528060200260200182016040528015610ed257816020015b6060815260200190600190039081610ebd5790505b50905060008367ffffffffffffffff811115610efe57634e487b7160e01b600052604160045260246000fd5b604051908082528060200260200182016040528015610f27578160200160208202803683370190505b50905060008467ffffffffffffffff811115610f5357634e487b7160e01b600052604160045260246000fd5b604051908082528060200260200182016040528015610f7c578160200160208202803683370190505b5090506000805b6099548110156110bb5760fb6000610f9a8361095a565b8152602001908152602001600020546000146110a9576000610fbb8261095a565b905080878481518110610fde57634e487b7160e01b600052603260045260246000fd5b602002602001018181525050610ff381611178565b86848151811061101357634e487b7160e01b600052603260045260246000fd5b602002602001018190525061102781610a71565b85848151811061104757634e487b7160e01b600052603260045260246000fd5b6001600160a01b03909216602092830291909101820152600082815260fb9091526040902054845185908590811061108f57634e487b7160e01b600052603260045260246000fd5b60209081029190910101526110a560018461229a565b9250505b806110b381612344565b915050610f83565b509399929850909650945092505050565b60606066805461033f90612309565b6110e6338383611518565b5050565b6110f4338361123c565b6111665760405162461bcd60e51b815260206004820152603160248201527f4552433732313a207472616e736665722063616c6c6572206973206e6f74206f60448201527f776e6572206e6f7220617070726f7665640000000000000000000000000000006064820152608401610437565b611172848484846115e7565b50505050565b606061032a82611670565b60006001600160e01b031982167f780e9d6300000000000000000000000000000000000000000000000000000000148061032a575061032a826117fb565b6000818152606960205260409020805473ffffffffffffffffffffffffffffffffffffffff19166001600160a01b038416908117909155819061120382610a71565b6001600160a01b03167f8c5be1e5ebec7d5bd14f71427d1e84f3dd0314c0f7b2291e5b200ac8c7c3b92560405160405180910390a45050565b6000818152606760205260408120546001600160a01b03166112b55760405162461bcd60e51b815260206004820152602c60248201527f4552433732313a206f70657261746f7220717565727920666f72206e6f6e657860448201526b34b9ba32b73a103a37b5b2b760a11b6064820152608401610437565b60006112c083610a71565b9050806001600160a01b0316846001600160a01b031614806112fb5750836001600160a01b03166112f0846103c2565b6001600160a01b0316145b8061132b57506001600160a01b038082166000908152606a602090815260408083209388168352929052205460ff165b949350505050565b826001600160a01b031661134682610a71565b6001600160a01b0316146113c25760405162461bcd60e51b815260206004820152602560248201527f4552433732313a207472616e736665722066726f6d20696e636f72726563742060448201527f6f776e65720000000000000000000000000000000000000000000000000000006064820152608401610437565b6001600160a01b03821661143d5760405162461bcd60e51b8152602060048201526024808201527f4552433732313a207472616e7366657220746f20746865207a65726f2061646460448201527f72657373000000000000000000000000000000000000000000000000000000006064820152608401610437565b611448838383611896565b6114536000826111c1565b6001600160a01b038316600090815260686020526040812080546001929061147c9084906122c6565b90915550506001600160a01b03821660009081526068602052604081208054600192906114aa90849061229a565b9091555050600081815260676020526040808220805473ffffffffffffffffffffffffffffffffffffffff19166001600160a01b0386811691821790925591518493918716917fddf252ad1be2c89b69c2b068fc378daa952ba7f163c4a11628f55a4df523b3ef91a4505050565b816001600160a01b0316836001600160a01b0316141561157a5760405162461bcd60e51b815260206004820152601960248201527f4552433732313a20617070726f766520746f2063616c6c6572000000000000006044820152606401610437565b6001600160a01b038381166000818152606a6020908152604080832094871680845294825291829020805460ff191686151590811790915591519182527f17307eab39ab6107e8899845ad3d59bd9653f200f220920489ca2b5937696c31910160405180910390a3505050565b6115f2848484611333565b6115fe848484846118a1565b6111725760405162461bcd60e51b815260206004820152603260248201527f4552433732313a207472616e7366657220746f206e6f6e20455243373231526560448201527f63656976657220696d706c656d656e74657200000000000000000000000000006064820152608401610437565b6000818152606760205260409020546060906001600160a01b03166116fd5760405162461bcd60e51b815260206004820152603160248201527f45524337323155524953746f726167653a2055524920717565727920666f722060448201527f6e6f6e6578697374656e7420746f6b656e0000000000000000000000000000006064820152608401610437565b600082815260c960205260408120805461171690612309565b80601f016020809104026020016040519081016040528092919081815260200182805461174290612309565b801561178f5780601f106117645761010080835404028352916020019161178f565b820191906000526020600020905b81548152906001019060200180831161177257829003601f168201915b5050505050905060006117ad60408051602081019091526000815290565b90508051600014156117c0575092915050565b8151156117f25780826040516020016117da929190612183565b60405160208183030381529060405292505050919050565b61132b84611a04565b60006001600160e01b031982167f80ac58cd00000000000000000000000000000000000000000000000000000000148061185e57506001600160e01b031982167f5b5e139f00000000000000000000000000000000000000000000000000000000145b8061032a57507f01ffc9a7000000000000000000000000000000000000000000000000000000006001600160e01b031983161461032a565b610589838383611afa565b60006001600160a01b0384163b156119f957604051630a85bd0160e11b81526001600160a01b0385169063150b7a02906118e59033908990889088906004016121b2565b602060405180830381600087803b1580156118ff57600080fd5b505af192505050801561192f575060408051601f3d908101601f1916820190925261192c918101906120b1565b60015b6119df573d80801561195d576040519150601f19603f3d011682016040523d82523d6000602084013e611962565b606091505b5080516119d75760405162461bcd60e51b815260206004820152603260248201527f4552433732313a207472616e7366657220746f206e6f6e20455243373231526560448201527f63656976657220696d706c656d656e74657200000000000000000000000000006064820152608401610437565b805181602001fd5b6001600160e01b031916630a85bd0160e11b14905061132b565b506001949350505050565b6000818152606760205260409020546060906001600160a01b0316611a915760405162461bcd60e51b815260206004820152602f60248201527f4552433732314d657461646174613a2055524920717565727920666f72206e6f60448201527f6e6578697374656e7420746f6b656e00000000000000000000000000000000006064820152608401610437565b6000611aa860408051602081019091526000815290565b90506000815111611ac85760405180602001604052806000815250611af3565b80611ad284611bb2565b604051602001611ae3929190612183565b6040516020818303038152906040525b9392505050565b6001600160a01b038316611b5557611b5081609980546000838152609a60205260408120829055600182018355919091527f72a152ddfb8e864297c917af52ea6c1c68aead0fee1a62673fcc7e0c94979d000155565b611b78565b816001600160a01b0316836001600160a01b031614611b7857611b788382611d00565b6001600160a01b038216611b8f5761058981611d9d565b826001600160a01b0316826001600160a01b031614610589576105898282611e76565b606081611bf257505060408051808201909152600181527f3000000000000000000000000000000000000000000000000000000000000000602082015290565b8160005b8115611c1c5780611c0681612344565b9150611c159050600a836122b2565b9150611bf6565b60008167ffffffffffffffff811115611c4557634e487b7160e01b600052604160045260246000fd5b6040519080825280601f01601f191660200182016040528015611c6f576020820181803683370190505b5090505b841561132b57611c846001836122c6565b9150611c91600a8661235f565b611c9c90603061229a565b60f81b818381518110611cbf57634e487b7160e01b600052603260045260246000fd5b60200101907effffffffffffffffffffffffffffffffffffffffffffffffffffffffffffff1916908160001a905350611cf9600a866122b2565b9450611c73565b60006001611d0d84610afc565b611d1791906122c6565b600083815260986020526040902054909150808214611d6a576001600160a01b03841660009081526097602090815260408083208584528252808320548484528184208190558352609890915290208190555b5060009182526098602090815260408084208490556001600160a01b039094168352609781528383209183525290812055565b609954600090611daf906001906122c6565b6000838152609a602052604081205460998054939450909284908110611de557634e487b7160e01b600052603260045260246000fd5b906000526020600020015490508060998381548110611e1457634e487b7160e01b600052603260045260246000fd5b6000918252602080832090910192909255828152609a90915260408082208490558582528120556099805480611e5a57634e487b7160e01b600052603160045260246000fd5b6001900381819060005260206000200160009055905550505050565b6000611e8183610afc565b6001600160a01b039093166000908152609760209081526040808320868452825280832085905593825260989052919091209190915550565b80356001600160a01b0381168114611ed157600080fd5b919050565b600060208284031215611ee7578081fd5b611af382611eba565b60008060408385031215611f02578081fd5b611f0b83611eba565b9150611f1960208401611eba565b90509250929050565b600080600060608486031215611f36578081fd5b611f3f84611eba565b9250611f4d60208501611eba565b9150604084013590509250925092565b60008060008060808587031215611f72578081fd5b611f7b85611eba565b9350611f8960208601611eba565b925060408501359150606085013567ffffffffffffffff80821115611fac578283fd5b818701915087601f830112611fbf578283fd5b813581811115611fd157611fd161239f565b604051601f8201601f19908116603f01168101908382118183101715611ff957611ff961239f565b816040528281528a6020848701011115612011578586fd5b82602086016020830137918201602001949094529598949750929550505050565b60008060408385031215612044578182fd5b61204d83611eba565b915060208301358015158114612061578182fd5b809150509250929050565b6000806040838503121561207e578182fd5b61208783611eba565b946020939093013593505050565b6000602082840312156120a6578081fd5b8135611af3816123b5565b6000602082840312156120c2578081fd5b8151611af3816123b5565b6000602082840312156120de578081fd5b5035919050565b6000815180845260208085019450808401835b8381101561211d5781516001600160a01b0316875295820195908201906001016120f8565b509495945050505050565b6000815180845260208085019450808401835b8381101561211d5781518752958201959082019060010161213b565b6000815180845261216f8160208601602086016122dd565b601f01601f19169290920160200192915050565b600083516121958184602088016122dd565b8351908301906121a98183602088016122dd565b01949350505050565b60006001600160a01b038087168352808616602084015250836040830152608060608301526121e46080830184612157565b9695505050505050565b6080815260006122016080830187612128565b6020838203818501528187518084528284019150828160051b850101838a01865b8381101561225057601f1987840301855261223e838351612157565b94860194925090850190600101612222565b50508681036040880152612264818a6120e5565b945050505050828103606084015261227c8185612128565b979650505050505050565b602081526000611af36020830184612157565b600082198211156122ad576122ad612373565b500190565b6000826122c1576122c1612389565b500490565b6000828210156122d8576122d8612373565b500390565b60005b838110156122f85781810151838201526020016122e0565b838111156111725750506000910152565b600181811c9082168061231d57607f821691505b6020821081141561233e57634e487b7160e01b600052602260045260246000fd5b50919050565b600060001982141561235857612358612373565b5060010190565b60008261236e5761236e612389565b500690565b634e487b7160e01b600052601160045260246000fd5b634e487b7160e01b600052601260045260246000fd5b634e487b7160e01b600052604160045260246000fd5b6001600160e01b0319811681146123cb57600080fd5b5056fea2646970667358221220ab32d1e76e1803e949eb00d9d3184f17d5991b037bcaaddf2815d5205187c32864736f6c63430008040033",
  "linkReferences": {},
  "deployedLinkReferences": {}
}