{
  "_format": "hh-sol-artifact-1",
  "contractName": "Marketplace",
  "sourceName": "contracts/Marketplace.sol",
  "abi": [
    {
      "inputs": [
        {
          "internalType": "address",
          "name": "_nftContractImplementation",
          "type": "address"
        },
        {
          "internalType": "address",
          "name": "_woofyContractAddr",
          "type": "address"
        }
      ],
      "stateMutability": "payable",
      "type": "constructor"
    },
    {
      "anonymous": false,
      "inputs": [
        {
          "indexed": false,
          "internalType": "uint256",
          "name": "commission",
          "type": "uint256"
        }
      ],
      "name": "CommissionReceivedByMarketplace",
      "type": "event"
    },
    {
      "anonymous": false,
      "inputs": [
        {
          "indexed": true,
          "internalType": "address",
          "name": "nftContractAddress",
          "type": "address"
        },
        {
          "indexed": true,
          "internalType": "uint256",
          "name": "tokenId",
          "type": "uint256"
        },
        {
          "indexed": false,
          "internalType": "address",
          "name": "boughtBy",
          "type": "address"
        },
        {
          "indexed": false,
          "internalType": "uint256",
          "name": "price",
          "type": "uint256"
        }
      ],
      "name": "NftBought",
      "type": "event"
    },
    {
      "anonymous": false,
      "inputs": [
        {
          "indexed": true,
          "internalType": "address",
          "name": "contractAddr",
          "type": "address"
        },
        {
          "indexed": true,
          "internalType": "address",
          "name": "author",
          "type": "address"
        }
      ],
      "name": "NftContractCreated",
      "type": "event"
    },
    {
      "anonymous": false,
      "inputs": [
        {
          "indexed": true,
          "internalType": "address",
          "name": "nftContractAddress",
          "type": "address"
        },
        {
          "indexed": true,
          "internalType": "uint256",
          "name": "tokenId",
          "type": "uint256"
        },
        {
          "indexed": true,
          "internalType": "address",
          "name": "mintedTo",
          "type": "address"
        },
        {
          "indexed": false,
          "internalType": "string",
          "name": "tokenUri",
          "type": "string"
        }
      ],
      "name": "NftMinted",
      "type": "event"
    },
    {
      "anonymous": false,
      "inputs": [
        {
          "indexed": true,
          "internalType": "address",
          "name": "nftContractAddress",
          "type": "address"
        },
        {
          "indexed": true,
          "internalType": "uint256",
          "name": "tokenId",
          "type": "uint256"
        },
        {
          "indexed": false,
          "internalType": "uint256",
          "name": "price",
          "type": "uint256"
        }
      ],
      "name": "NftOnSale",
      "type": "event"
    },
    {
      "anonymous": false,
      "inputs": [
        {
          "indexed": true,
          "internalType": "address",
          "name": "nftContractAddress",
          "type": "address"
        },
        {
          "indexed": true,
          "internalType": "uint256",
          "name": "tokenId",
          "type": "uint256"
        }
      ],
      "name": "NftSaleCancel",
      "type": "event"
    },
    {
      "anonymous": false,
      "inputs": [
        {
          "indexed": true,
          "internalType": "address",
          "name": "previousOwner",
          "type": "address"
        },
        {
          "indexed": true,
          "internalType": "address",
          "name": "newOwner",
          "type": "address"
        }
      ],
      "name": "OwnershipTransferred",
      "type": "event"
    },
    {
      "inputs": [
        {
          "internalType": "string",
          "name": "_name",
          "type": "string"
        },
        {
          "internalType": "string",
          "name": "_symbol",
          "type": "string"
        },
        {
          "internalType": "string",
          "name": "_description",
          "type": "string"
        }
      ],
      "name": "createNftContract",
      "outputs": [],
      "stateMutability": "nonpayable",
      "type": "function"
    },
    {
      "inputs": [],
      "name": "getAllNftCollections",
      "outputs": [
        {
          "components": [
            {
              "internalType": "string",
              "name": "name",
              "type": "string"
            },
            {
              "internalType": "string",
              "name": "symbol",
              "type": "string"
            },
            {
              "internalType": "string",
              "name": "description",
              "type": "string"
            },
            {
              "internalType": "address",
              "name": "author",
              "type": "address"
            },
            {
              "components": [
                {
                  "internalType": "uint256",
                  "name": "tokenId",
                  "type": "uint256"
                },
                {
                  "internalType": "string",
                  "name": "metadataUri",
                  "type": "string"
                },
                {
                  "internalType": "address",
                  "name": "owner",
                  "type": "address"
                },
                {
                  "internalType": "uint256",
                  "name": "price",
                  "type": "uint256"
                }
              ],
              "internalType": "struct Marketplace.Nft[]",
              "name": "nftsInCollection",
              "type": "tuple[]"
            }
          ],
          "internalType": "struct Marketplace.NftCollection[]",
          "name": "",
          "type": "tuple[]"
        }
      ],
      "stateMutability": "view",
      "type": "function"
    },
    {
      "inputs": [],
      "name": "getNftCollectionsWhereTokensOnSale",
      "outputs": [
        {
          "components": [
            {
              "internalType": "string",
              "name": "name",
              "type": "string"
            },
            {
              "internalType": "string",
              "name": "symbol",
              "type": "string"
            },
            {
              "internalType": "string",
              "name": "description",
              "type": "string"
            },
            {
              "internalType": "address",
              "name": "author",
              "type": "address"
            },
            {
              "components": [
                {
                  "internalType": "uint256",
                  "name": "tokenId",
                  "type": "uint256"
                },
                {
                  "internalType": "string",
                  "name": "metadataUri",
                  "type": "string"
                },
                {
                  "internalType": "address",
                  "name": "owner",
                  "type": "address"
                },
                {
                  "internalType": "uint256",
                  "name": "price",
                  "type": "uint256"
                }
              ],
              "internalType": "struct Marketplace.Nft[]",
              "name": "nftsInCollection",
              "type": "tuple[]"
            }
          ],
          "internalType": "struct Marketplace.NftCollection[]",
          "name": "",
          "type": "tuple[]"
        }
      ],
      "stateMutability": "view",
      "type": "function"
    },
    {
      "inputs": [],
      "name": "getNftsCollectionsAuthored",
      "outputs": [
        {
          "components": [
            {
              "internalType": "string",
              "name": "name",
              "type": "string"
            },
            {
              "internalType": "string",
              "name": "symbol",
              "type": "string"
            },
            {
              "internalType": "string",
              "name": "description",
              "type": "string"
            },
            {
              "internalType": "address",
              "name": "author",
              "type": "address"
            },
            {
              "components": [
                {
                  "internalType": "uint256",
                  "name": "tokenId",
                  "type": "uint256"
                },
                {
                  "internalType": "string",
                  "name": "metadataUri",
                  "type": "string"
                },
                {
                  "internalType": "address",
                  "name": "owner",
                  "type": "address"
                },
                {
                  "internalType": "uint256",
                  "name": "price",
                  "type": "uint256"
                }
              ],
              "internalType": "struct Marketplace.Nft[]",
              "name": "nftsInCollection",
              "type": "tuple[]"
            }
          ],
          "internalType": "struct Marketplace.NftCollection[]",
          "name": "",
          "type": "tuple[]"
        }
      ],
      "stateMutability": "view",
      "type": "function"
    },
    {
      "inputs": [],
      "name": "getNftsCollectionsWhereOwnerOwnsTokens",
      "outputs": [
        {
          "components": [
            {
              "internalType": "string",
              "name": "name",
              "type": "string"
            },
            {
              "internalType": "string",
              "name": "symbol",
              "type": "string"
            },
            {
              "internalType": "string",
              "name": "description",
              "type": "string"
            },
            {
              "internalType": "address",
              "name": "author",
              "type": "address"
            },
            {
              "components": [
                {
                  "internalType": "uint256",
                  "name": "tokenId",
                  "type": "uint256"
                },
                {
                  "internalType": "string",
                  "name": "metadataUri",
                  "type": "string"
                },
                {
                  "internalType": "address",
                  "name": "owner",
                  "type": "address"
                },
                {
                  "internalType": "uint256",
                  "name": "price",
                  "type": "uint256"
                }
              ],
              "internalType": "struct Marketplace.Nft[]",
              "name": "nftsInCollection",
              "type": "tuple[]"
            }
          ],
          "internalType": "struct Marketplace.NftCollection[]",
          "name": "",
          "type": "tuple[]"
        }
      ],
      "stateMutability": "view",
      "type": "function"
    },
    {
      "inputs": [],
      "name": "nftContractImplementation",
      "outputs": [
        {
          "internalType": "address",
          "name": "",
          "type": "address"
        }
      ],
      "stateMutability": "view",
      "type": "function"
    },
    {
      "inputs": [],
      "name": "owner",
      "outputs": [
        {
          "internalType": "address",
          "name": "",
          "type": "address"
        }
      ],
      "stateMutability": "view",
      "type": "function"
    },
    {
      "inputs": [],
      "name": "renounceOwnership",
      "outputs": [],
      "stateMutability": "nonpayable",
      "type": "function"
    },
    {
      "inputs": [
        {
          "internalType": "address",
          "name": "newOwner",
          "type": "address"
        }
      ],
      "name": "transferOwnership",
      "outputs": [],
      "stateMutability": "nonpayable",
      "type": "function"
    },
    {
      "inputs": [],
      "name": "woofyContractAddr",
      "outputs": [
        {
          "internalType": "address",
          "name": "",
          "type": "address"
        }
      ],
      "stateMutability": "view",
      "type": "function"
    },
    {
      "stateMutability": "payable",
      "type": "receive"
    }
  ],
  "bytecode": "0x60806040526040516200264f3803806200264f8339810160408190526200002691620000d7565b6001600055620000363362000068565b600480546001600160a01b039384166001600160a01b031991821617909155600580549290931691161790556200010e565b600180546001600160a01b038381166001600160a01b0319831681179093556040519116919082907f8be0079c531659141344cd1fd0a4f28419497f9722a3daafe3b4186f6b6457e090600090a35050565b80516001600160a01b0381168114620000d257600080fd5b919050565b60008060408385031215620000ea578182fd5b620000f583620000ba565b91506200010560208401620000ba565b90509250929050565b612531806200011e6000396000f3fe6080604052600436106100b55760003560e01c80635e210e43116100695780638da5cb5b1161004e5780638da5cb5b146101cd578063f2fde38b146101eb578063fc94a6c31461020b57600080fd5b80635e210e43146101a3578063715018a6146101b857600080fd5b806339c5b9ad1161009a57806339c5b9ad146101415780633e90aafd146101565780635567f88a1461016b57600080fd5b8063127806ea146100f457806338b11f601461011657600080fd5b366100ef576040513481527f3c5dd2811efb49b2e0d2891d798064095c84e036929d2b1b7dcd3079583eebaa9060200160405180910390a1005b600080fd5b34801561010057600080fd5b5061011461010f366004612129565b61022b565b005b34801561012257600080fd5b5061012b610385565b604051610138919061225f565b60405180910390f35b34801561014d57600080fd5b5061012b6108b4565b34801561016257600080fd5b5061012b610f24565b34801561017757600080fd5b5060045461018b906001600160a01b031681565b6040516001600160a01b039091168152602001610138565b3480156101af57600080fd5b5061012b611524565b3480156101c457600080fd5b50610114611b23565b3480156101d957600080fd5b506001546001600160a01b031661018b565b3480156101f757600080fd5b50610114610206366004611fd1565b611b89565b34801561021757600080fd5b5060055461018b906001600160a01b031681565b600260005414156102835760405162461bcd60e51b815260206004820152601f60248201527f5265656e7472616e637947756172643a207265656e7472616e742063616c6c0060448201526064015b60405180910390fd5b6002600090815560045461029f906001600160a01b0316611c6b565b6005546040517fd6d0faee0000000000000000000000000000000000000000000000000000000081529192506001600160a01b038084169263d6d0faee926102fa928c928c928c928c928c928c92309291169060040161239d565b600060405180830381600087803b15801561031457600080fd5b505af1158015610328573d6000803e3d6000fd5b50505050610340816002611d2690919063ffffffff16565b5060405133906001600160a01b038316907f27bd997932ca47d271a0b4c3fba42e35c3c90bc1e24155b7c11f6bcf3a42b49c90600090a3505060016000555050505050565b606060006103936002611d44565b905060008167ffffffffffffffff8111156103be57634e487b7160e01b600052604160045260246000fd5b60405190808252806020026020018201604052801561042a57816020015b6104176040518060a0016040528060608152602001606081526020016060815260200160006001600160a01b03168152602001606081525090565b8152602001906001900390816103dc5790505b50905060005b828110156108ad576000610445600283611d4e565b9050600080600080846001600160a01b031663732e8d736040518163ffffffff1660e01b815260040160006040518083038186803b15801561048657600080fd5b505afa15801561049a573d6000803e3d6000fd5b505050506040513d6000823e601f3d908101601f191682016040526104c29190810190612010565b93509350935093506000845167ffffffffffffffff8111156104f457634e487b7160e01b600052604160045260246000fd5b60405190808252806020026020018201604052801561055957816020015b6105466040518060800160405280600081526020016060815260200160006001600160a01b03168152602001600081525090565b8152602001906001900390816105125790505b50905060005b855181101561066c57604051806080016040528087838151811061059357634e487b7160e01b600052603260045260246000fd5b602002602001015181526020018683815181106105c057634e487b7160e01b600052603260045260246000fd5b602002602001015181526020018583815181106105ed57634e487b7160e01b600052603260045260246000fd5b60200260200101516001600160a01b0316815260200184838151811061062357634e487b7160e01b600052603260045260246000fd5b602002602001015181525082828151811061064e57634e487b7160e01b600052603260045260246000fd5b602002602001018190525080806106649061249f565b91505061055f565b506040518060a00160405280876001600160a01b03166306fdde036040518163ffffffff1660e01b815260040160006040518083038186803b1580156106b157600080fd5b505afa1580156106c5573d6000803e3d6000fd5b505050506040513d6000823e601f3d908101601f191682016040526106ed91908101906121bf565b8152602001876001600160a01b03166395d89b416040518163ffffffff1660e01b815260040160006040518083038186803b15801561072b57600080fd5b505afa15801561073f573d6000803e3d6000fd5b505050506040513d6000823e601f3d908101601f1916820160405261076791908101906121bf565b8152602001876001600160a01b0316637284e4166040518163ffffffff1660e01b815260040160006040518083038186803b1580156107a557600080fd5b505afa1580156107b9573d6000803e3d6000fd5b505050506040513d6000823e601f3d908101601f191682016040526107e191908101906121bf565b8152602001876001600160a01b0316638cc402f66040518163ffffffff1660e01b815260040160206040518083038186803b15801561081f57600080fd5b505afa158015610833573d6000803e3d6000fd5b505050506040513d601f19601f820116820180604052508101906108579190611ff4565b6001600160a01b031681526020018281525088888151811061088957634e487b7160e01b600052603260045260246000fd5b602002602001018190525050505050505080806108a59061249f565b915050610430565b5092915050565b606060006108c26002611d44565b90506000805b828110156109765760006108dd600283611d4e565b6001600160a01b0316635da82b246040518163ffffffff1660e01b815260040160206040518083038186803b15801561091557600080fd5b505afa158015610929573d6000803e3d6000fd5b505050506040513d601f19601f8201168201806040525081019061094d91906121f2565b9050801561096357610960600184612457565b92505b508061096e8161249f565b9150506108c8565b5060008167ffffffffffffffff8111156109a057634e487b7160e01b600052604160045260246000fd5b604051908082528060200260200182016040528015610a0c57816020015b6109f96040518060a0016040528060608152602001606081526020016060815260200160006001600160a01b03168152602001606081525090565b8152602001906001900390816109be5790505b5090506000805b84811015610f1a576000610a28600283611d4e565b90506000816001600160a01b0316635da82b246040518163ffffffff1660e01b815260040160206040518083038186803b158015610a6557600080fd5b505afa158015610a79573d6000803e3d6000fd5b505050506040513d601f19601f82011682018060405250810190610a9d91906121f2565b90508015610f0557600080600080856001600160a01b03166375d1f1406040518163ffffffff1660e01b815260040160006040518083038186803b158015610ae457600080fd5b505afa158015610af8573d6000803e3d6000fd5b505050506040513d6000823e601f3d908101601f19168201604052610b209190810190612010565b93509350935093506000845167ffffffffffffffff811115610b5257634e487b7160e01b600052604160045260246000fd5b604051908082528060200260200182016040528015610bb757816020015b610ba46040518060800160405280600081526020016060815260200160006001600160a01b03168152602001600081525090565b815260200190600190039081610b705790505b50905060005b8551811015610cca576040518060800160405280878381518110610bf157634e487b7160e01b600052603260045260246000fd5b60200260200101518152602001868381518110610c1e57634e487b7160e01b600052603260045260246000fd5b60200260200101518152602001858381518110610c4b57634e487b7160e01b600052603260045260246000fd5b60200260200101516001600160a01b03168152602001848381518110610c8157634e487b7160e01b600052603260045260246000fd5b6020026020010151815250828281518110610cac57634e487b7160e01b600052603260045260246000fd5b60200260200101819052508080610cc29061249f565b915050610bbd565b506040518060a00160405280886001600160a01b03166306fdde036040518163ffffffff1660e01b815260040160006040518083038186803b158015610d0f57600080fd5b505afa158015610d23573d6000803e3d6000fd5b505050506040513d6000823e601f3d908101601f19168201604052610d4b91908101906121bf565b8152602001886001600160a01b03166395d89b416040518163ffffffff1660e01b815260040160006040518083038186803b158015610d8957600080fd5b505afa158015610d9d573d6000803e3d6000fd5b505050506040513d6000823e601f3d908101601f19168201604052610dc591908101906121bf565b8152602001886001600160a01b0316637284e4166040518163ffffffff1660e01b815260040160006040518083038186803b158015610e0357600080fd5b505afa158015610e17573d6000803e3d6000fd5b505050506040513d6000823e601f3d908101601f19168201604052610e3f91908101906121bf565b8152602001886001600160a01b0316638cc402f66040518163ffffffff1660e01b815260040160206040518083038186803b158015610e7d57600080fd5b505afa158015610e91573d6000803e3d6000fd5b505050506040513d601f19601f82011682018060405250810190610eb59190611ff4565b6001600160a01b03168152602001828152508a8a81518110610ee757634e487b7160e01b600052603260045260246000fd5b6020908102919091010152610efd60018a612457565b985050505050505b50508080610f129061249f565b915050610a13565b5090949350505050565b60606000610f326002611d44565b90506000805b82811015610feb5733610f4c600283611d4e565b6001600160a01b0316638cc402f66040518163ffffffff1660e01b815260040160206040518083038186803b158015610f8457600080fd5b505afa158015610f98573d6000803e3d6000fd5b505050506040513d601f19601f82011682018060405250810190610fbc9190611ff4565b6001600160a01b03161415610fd957610fd6600183612457565b91505b80610fe38161249f565b915050610f38565b5060008167ffffffffffffffff81111561101557634e487b7160e01b600052604160045260246000fd5b60405190808252806020026020018201604052801561108157816020015b61106e6040518060a0016040528060608152602001606081526020016060815260200160006001600160a01b03168152602001606081525090565b8152602001906001900390816110335790505b5090506000805b84811015610f1a57600061109d600283611d4e565b9050336001600160a01b0316816001600160a01b0316638cc402f66040518163ffffffff1660e01b815260040160206040518083038186803b1580156110e257600080fd5b505afa1580156110f6573d6000803e3d6000fd5b505050506040513d601f19601f8201168201806040525081019061111a9190611ff4565b6001600160a01b0316141561151157600080600080846001600160a01b031663732e8d736040518163ffffffff1660e01b815260040160006040518083038186803b15801561116857600080fd5b505afa15801561117c573d6000803e3d6000fd5b505050506040513d6000823e601f3d908101601f191682016040526111a49190810190612010565b93509350935093506000845167ffffffffffffffff8111156111d657634e487b7160e01b600052604160045260246000fd5b60405190808252806020026020018201604052801561123b57816020015b6112286040518060800160405280600081526020016060815260200160006001600160a01b03168152602001600081525090565b8152602001906001900390816111f45790505b50905060005b855181101561134e57604051806080016040528087838151811061127557634e487b7160e01b600052603260045260246000fd5b602002602001015181526020018683815181106112a257634e487b7160e01b600052603260045260246000fd5b602002602001015181526020018583815181106112cf57634e487b7160e01b600052603260045260246000fd5b60200260200101516001600160a01b0316815260200184838151811061130557634e487b7160e01b600052603260045260246000fd5b602002602001015181525082828151811061133057634e487b7160e01b600052603260045260246000fd5b602002602001018190525080806113469061249f565b915050611241565b506040518060a00160405280876001600160a01b03166306fdde036040518163ffffffff1660e01b815260040160006040518083038186803b15801561139357600080fd5b505afa1580156113a7573d6000803e3d6000fd5b505050506040513d6000823e601f3d908101601f191682016040526113cf91908101906121bf565b8152602001876001600160a01b03166395d89b416040518163ffffffff1660e01b815260040160006040518083038186803b15801561140d57600080fd5b505afa158015611421573d6000803e3d6000fd5b505050506040513d6000823e601f3d908101601f1916820160405261144991908101906121bf565b8152602001876001600160a01b0316637284e4166040518163ffffffff1660e01b815260040160006040518083038186803b15801561148757600080fd5b505afa15801561149b573d6000803e3d6000fd5b505050506040513d6000823e601f3d908101601f191682016040526114c391908101906121bf565b815233602082015260400182905289518a908a9081106114f357634e487b7160e01b600052603260045260246000fd5b6020908102919091010152611509600189612457565b975050505050505b508061151c8161249f565b915050611088565b606060006115326002611d44565b90506000805b828110156115ef57600061154d600283611d4e565b6040516370a0823160e01b81523360048201526001600160a01b0391909116906370a082319060240160206040518083038186803b15801561158e57600080fd5b505afa1580156115a2573d6000803e3d6000fd5b505050506040513d601f19601f820116820180604052508101906115c691906121f2565b905080156115dc576115d9600184612457565b92505b50806115e78161249f565b915050611538565b5060008167ffffffffffffffff81111561161957634e487b7160e01b600052604160045260246000fd5b60405190808252806020026020018201604052801561168557816020015b6116726040518060a0016040528060608152602001606081526020016060815260200160006001600160a01b03168152602001606081525090565b8152602001906001900390816116375790505b5090506000805b84811015610f1a5760006116a1600283611d4e565b6040516370a0823160e01b81523360048201529091506000906001600160a01b038316906370a082319060240160206040518083038186803b1580156116e657600080fd5b505afa1580156116fa573d6000803e3d6000fd5b505050506040513d601f19601f8201168201806040525081019061171e91906121f2565b90508015611b0e57600080600080856001600160a01b031663360a03746040518163ffffffff1660e01b815260040160006040518083038186803b15801561176557600080fd5b505afa158015611779573d6000803e3d6000fd5b505050506040513d6000823e601f3d908101601f191682016040526117a19190810190612010565b93509350935093506000845167ffffffffffffffff8111156117d357634e487b7160e01b600052604160045260246000fd5b60405190808252806020026020018201604052801561183857816020015b6118256040518060800160405280600081526020016060815260200160006001600160a01b03168152602001600081525090565b8152602001906001900390816117f15790505b50905060005b855181101561194b57604051806080016040528087838151811061187257634e487b7160e01b600052603260045260246000fd5b6020026020010151815260200186838151811061189f57634e487b7160e01b600052603260045260246000fd5b602002602001015181526020018583815181106118cc57634e487b7160e01b600052603260045260246000fd5b60200260200101516001600160a01b0316815260200184838151811061190257634e487b7160e01b600052603260045260246000fd5b602002602001015181525082828151811061192d57634e487b7160e01b600052603260045260246000fd5b602002602001018190525080806119439061249f565b91505061183e565b506040518060a00160405280886001600160a01b03166306fdde036040518163ffffffff1660e01b815260040160006040518083038186803b15801561199057600080fd5b505afa1580156119a4573d6000803e3d6000fd5b505050506040513d6000823e601f3d908101601f191682016040526119cc91908101906121bf565b8152602001886001600160a01b03166395d89b416040518163ffffffff1660e01b815260040160006040518083038186803b158015611a0a57600080fd5b505afa158015611a1e573d6000803e3d6000fd5b505050506040513d6000823e601f3d908101601f19168201604052611a4691908101906121bf565b8152602001886001600160a01b0316637284e4166040518163ffffffff1660e01b815260040160006040518083038186803b158015611a8457600080fd5b505afa158015611a98573d6000803e3d6000fd5b505050506040513d6000823e601f3d908101601f19168201604052611ac091908101906121bf565b81523360208201526040018290528a518b908b908110611af057634e487b7160e01b600052603260045260246000fd5b6020908102919091010152611b0660018a612457565b985050505050505b50508080611b1b9061249f565b91505061168c565b6001546001600160a01b03163314611b7d5760405162461bcd60e51b815260206004820181905260248201527f4f776e61626c653a2063616c6c6572206973206e6f7420746865206f776e6572604482015260640161027a565b611b876000611d5a565b565b6001546001600160a01b03163314611be35760405162461bcd60e51b815260206004820181905260248201527f4f776e61626c653a2063616c6c6572206973206e6f7420746865206f776e6572604482015260640161027a565b6001600160a01b038116611c5f5760405162461bcd60e51b815260206004820152602660248201527f4f776e61626c653a206e6577206f776e657220697320746865207a65726f206160448201527f6464726573730000000000000000000000000000000000000000000000000000606482015260840161027a565b611c6881611d5a565b50565b60006040517f3d602d80600a3d3981f3363d3d373d3d3d363d7300000000000000000000000081528260601b60148201527f5af43d82803e903d91602b57fd5bf3000000000000000000000000000000000060288201526037816000f09150506001600160a01b038116611d215760405162461bcd60e51b815260206004820152601660248201527f455243313136373a20637265617465206661696c656400000000000000000000604482015260640161027a565b919050565b6000611d3b836001600160a01b038416611dc4565b90505b92915050565b6000611d3e825490565b6000611d3b8383611e13565b600180546001600160a01b038381167fffffffffffffffffffffffff0000000000000000000000000000000000000000831681179093556040519116919082907f8be0079c531659141344cd1fd0a4f28419497f9722a3daafe3b4186f6b6457e090600090a35050565b6000818152600183016020526040812054611e0b57508154600181810184556000848152602080822090930184905584548482528286019093526040902091909155611d3e565b506000611d3e565b6000826000018281548110611e3857634e487b7160e01b600052603260045260246000fd5b9060005260206000200154905092915050565b600082601f830112611e5b578081fd5b81516020611e70611e6b83612433565b612402565b80838252828201915082860187848660051b8901011115611e8f578586fd5b855b85811015611eb6578151611ea4816124e6565b84529284019290840190600101611e91565b5090979650505050505050565b600082601f830112611ed3578081fd5b81516020611ee3611e6b83612433565b80838252828201915082860187848660051b8901011115611f02578586fd5b855b85811015611eb657815184529284019290840190600101611f04565b60008083601f840112611f31578182fd5b50813567ffffffffffffffff811115611f48578182fd5b602083019150836020828501011115611f6057600080fd5b9250929050565b600082601f830112611f77578081fd5b815167ffffffffffffffff811115611f9157611f916124d0565b611fa4601f8201601f1916602001612402565b818152846020838601011115611fb8578283fd5b611fc982602083016020870161246f565b949350505050565b600060208284031215611fe2578081fd5b8135611fed816124e6565b9392505050565b600060208284031215612005578081fd5b8151611fed816124e6565b60008060008060808587031215612025578283fd5b845167ffffffffffffffff8082111561203c578485fd5b61204888838901611ec3565b955060209150818701518181111561205e578586fd5b8701601f8101891361206e578586fd5b805161207c611e6b82612433565b8082825285820191508584018c878560051b870101111561209b57898afd5b895b848110156120d4578151878111156120b3578b8cfd5b6120c18f8a838a0101611f67565b855250928701929087019060010161209d565b505060408b01519098509450505050808211156120ef578384fd5b6120fb88838901611e4b565b93506060870151915080821115612110578283fd5b5061211d87828801611ec3565b91505092959194509250565b60008060008060008060608789031215612141578182fd5b863567ffffffffffffffff80821115612158578384fd5b6121648a838b01611f20565b9098509650602089013591508082111561217c578384fd5b6121888a838b01611f20565b909650945060408901359150808211156121a0578384fd5b506121ad89828a01611f20565b979a9699509497509295939492505050565b6000602082840312156121d0578081fd5b815167ffffffffffffffff8111156121e6578182fd5b611fc984828501611f67565b600060208284031215612203578081fd5b5051919050565b81835281816020850137506000828201602090810191909152601f909101601f19169091010190565b6000815180845261224b81602086016020860161246f565b601f01601f19169290920160200192915050565b6000602080830181845280855180835260408601915060408160051b8701019250838701855b8281101561239057603f198886030184528151805160a087526122ab60a0880182612233565b905087820151878203898901526122c28282612233565b915050604082015187820360408901526122dc8282612233565b91505060608201516001600160a01b0380821660608a01526080840151935088830360808a015282915083518084528a840192508a8160051b8501018b860195508c5b8281101561237857601f198683030185528651805183528d81015160808f85015261234d6080850182612233565b604083810151881690860152606092830151929094019190915250958c0195938c019360010161231f565b50995050509588019550505090850190600101612285565b5092979650505050505050565b60a0815260006123b160a083018a8c61220a565b82810360208401526123c481898b61220a565b905082810360408401526123d981878961220a565b9150506001600160a01b0380851660608401528084166080840152509998505050505050505050565b604051601f8201601f1916810167ffffffffffffffff8111828210171561242b5761242b6124d0565b604052919050565b600067ffffffffffffffff82111561244d5761244d6124d0565b5060051b60200190565b6000821982111561246a5761246a6124ba565b500190565b60005b8381101561248a578181015183820152602001612472565b83811115612499576000848401525b50505050565b60006000198214156124b3576124b36124ba565b5060010190565b634e487b7160e01b600052601160045260246000fd5b634e487b7160e01b600052604160045260246000fd5b6001600160a01b0381168114611c6857600080fdfea2646970667358221220693fdc77c6a9d0d7c22c6839ed6b682c1d3f6e3a24046ff1b5780067eeabacb164736f6c63430008040033",
  "linkReferences": {},
  "deployedLinkReferences": {}
}