{
  "_format": "hh-sol-artifact-1",
  "contractName": "Woofy",
  "sourceName": "contracts/Woofy.sol",
  "abi": [
    {
      "inputs": [
        {
          "internalType": "uint256",
          "name": "_price",
          "type": "uint256"
        },
        {
          "internalType": "uint256",
          "name": "_cooldownPeriod",
          "type": "uint256"
        },
        {
          "internalType": "uint256",
          "name": "_maxSupply",
          "type": "uint256"
        }
      ],
      "stateMutability": "payable",
      "type": "constructor"
    },
    {
      "anonymous": false,
      "inputs": [
        {
          "indexed": true,
          "internalType": "address",
          "name": "owner",
          "type": "address"
        },
        {
          "indexed": true,
          "internalType": "address",
          "name": "approved",
          "type": "address"
        },
        {
          "indexed": true,
          "internalType": "uint256",
          "name": "tokenId",
          "type": "uint256"
        }
      ],
      "name": "Approval",
      "type": "event"
    },
    {
      "anonymous": false,
      "inputs": [
        {
          "indexed": true,
          "internalType": "address",
          "name": "owner",
          "type": "address"
        },
        {
          "indexed": true,
          "internalType": "address",
          "name": "operator",
          "type": "address"
        },
        {
          "indexed": false,
          "internalType": "bool",
          "name": "approved",
          "type": "bool"
        }
      ],
      "name": "ApprovalForAll",
      "type": "event"
    },
    {
      "anonymous": false,
      "inputs": [
        {
          "indexed": true,
          "internalType": "address",
          "name": "previousOwner",
          "type": "address"
        },
        {
          "indexed": true,
          "internalType": "address",
          "name": "newOwner",
          "type": "address"
        }
      ],
      "name": "OwnershipTransferred",
      "type": "event"
    },
    {
      "anonymous": false,
      "inputs": [
        {
          "indexed": true,
          "internalType": "address",
          "name": "from",
          "type": "address"
        },
        {
          "indexed": true,
          "internalType": "address",
          "name": "to",
          "type": "address"
        },
        {
          "indexed": true,
          "internalType": "uint256",
          "name": "tokenId",
          "type": "uint256"
        }
      ],
      "name": "Transfer",
      "type": "event"
    },
    {
      "inputs": [],
      "name": "COOLDOWN_PERIOD",
      "outputs": [
        {
          "internalType": "uint256",
          "name": "",
          "type": "uint256"
        }
      ],
      "stateMutability": "view",
      "type": "function"
    },
    {
      "inputs": [],
      "name": "MAX_SUPPLY",
      "outputs": [
        {
          "internalType": "uint256",
          "name": "",
          "type": "uint256"
        }
      ],
      "stateMutability": "view",
      "type": "function"
    },
    {
      "inputs": [],
      "name": "PRICE",
      "outputs": [
        {
          "internalType": "uint256",
          "name": "",
          "type": "uint256"
        }
      ],
      "stateMutability": "view",
      "type": "function"
    },
    {
      "inputs": [
        {
          "internalType": "address",
          "name": "to",
          "type": "address"
        },
        {
          "internalType": "uint256",
          "name": "tokenId",
          "type": "uint256"
        }
      ],
      "name": "approve",
      "outputs": [],
      "stateMutability": "nonpayable",
      "type": "function"
    },
    {
      "inputs": [
        {
          "internalType": "address",
          "name": "owner",
          "type": "address"
        }
      ],
      "name": "balanceOf",
      "outputs": [
        {
          "internalType": "uint256",
          "name": "",
          "type": "uint256"
        }
      ],
      "stateMutability": "view",
      "type": "function"
    },
    {
      "inputs": [
        {
          "internalType": "uint256",
          "name": "_tokenID",
          "type": "uint256"
        }
      ],
      "name": "buy",
      "outputs": [],
      "stateMutability": "payable",
      "type": "function"
    },
    {
      "inputs": [
        {
          "internalType": "uint256",
          "name": "_tokenID",
          "type": "uint256"
        }
      ],
      "name": "cancelSale",
      "outputs": [],
      "stateMutability": "nonpayable",
      "type": "function"
    },
    {
      "inputs": [],
      "name": "createNFT",
      "outputs": [],
      "stateMutability": "payable",
      "type": "function"
    },
    {
      "inputs": [],
      "name": "getAllNftsForSale",
      "outputs": [
        {
          "components": [
            {
              "internalType": "uint256",
              "name": "tokenID",
              "type": "uint256"
            },
            {
              "internalType": "string",
              "name": "tokenURI",
              "type": "string"
            },
            {
              "internalType": "uint256",
              "name": "price",
              "type": "uint256"
            },
            {
              "internalType": "enum NFT_STATUS",
              "name": "status",
              "type": "uint8"
            },
            {
              "internalType": "address",
              "name": "owner",
              "type": "address"
            }
          ],
          "internalType": "struct NFT[]",
          "name": "",
          "type": "tuple[]"
        }
      ],
      "stateMutability": "view",
      "type": "function"
    },
    {
      "inputs": [],
      "name": "getAllNftsOwned",
      "outputs": [
        {
          "components": [
            {
              "internalType": "uint256",
              "name": "tokenID",
              "type": "uint256"
            },
            {
              "internalType": "string",
              "name": "tokenURI",
              "type": "string"
            },
            {
              "internalType": "uint256",
              "name": "price",
              "type": "uint256"
            },
            {
              "internalType": "enum NFT_STATUS",
              "name": "status",
              "type": "uint8"
            },
            {
              "internalType": "address",
              "name": "owner",
              "type": "address"
            }
          ],
          "internalType": "struct NFT[]",
          "name": "",
          "type": "tuple[]"
        }
      ],
      "stateMutability": "view",
      "type": "function"
    },
    {
      "inputs": [
        {
          "internalType": "uint256",
          "name": "tokenId",
          "type": "uint256"
        }
      ],
      "name": "getApproved",
      "outputs": [
        {
          "internalType": "address",
          "name": "",
          "type": "address"
        }
      ],
      "stateMutability": "view",
      "type": "function"
    },
    {
      "inputs": [],
      "name": "getNewTokenId",
      "outputs": [
        {
          "internalType": "uint256",
          "name": "",
          "type": "uint256"
        }
      ],
      "stateMutability": "view",
      "type": "function"
    },
    {
      "inputs": [
        {
          "internalType": "address",
          "name": "owner",
          "type": "address"
        },
        {
          "internalType": "address",
          "name": "operator",
          "type": "address"
        }
      ],
      "name": "isApprovedForAll",
      "outputs": [
        {
          "internalType": "bool",
          "name": "",
          "type": "bool"
        }
      ],
      "stateMutability": "view",
      "type": "function"
    },
    {
      "inputs": [],
      "name": "name",
      "outputs": [
        {
          "internalType": "string",
          "name": "",
          "type": "string"
        }
      ],
      "stateMutability": "view",
      "type": "function"
    },
    {
      "inputs": [],
      "name": "owner",
      "outputs": [
        {
          "internalType": "address",
          "name": "",
          "type": "address"
        }
      ],
      "stateMutability": "view",
      "type": "function"
    },
    {
      "inputs": [
        {
          "internalType": "uint256",
          "name": "tokenId",
          "type": "uint256"
        }
      ],
      "name": "ownerOf",
      "outputs": [
        {
          "internalType": "address",
          "name": "",
          "type": "address"
        }
      ],
      "stateMutability": "view",
      "type": "function"
    },
    {
      "inputs": [
        {
          "internalType": "uint256",
          "name": "_tokenID",
          "type": "uint256"
        },
        {
          "internalType": "uint256",
          "name": "_price",
          "type": "uint256"
        }
      ],
      "name": "putForSale",
      "outputs": [],
      "stateMutability": "nonpayable",
      "type": "function"
    },
    {
      "inputs": [],
      "name": "renounceOwnership",
      "outputs": [],
      "stateMutability": "nonpayable",
      "type": "function"
    },
    {
      "inputs": [
        {
          "internalType": "address",
          "name": "from",
          "type": "address"
        },
        {
          "internalType": "address",
          "name": "to",
          "type": "address"
        },
        {
          "internalType": "uint256",
          "name": "tokenId",
          "type": "uint256"
        }
      ],
      "name": "safeTransferFrom",
      "outputs": [],
      "stateMutability": "nonpayable",
      "type": "function"
    },
    {
      "inputs": [
        {
          "internalType": "address",
          "name": "from",
          "type": "address"
        },
        {
          "internalType": "address",
          "name": "to",
          "type": "address"
        },
        {
          "internalType": "uint256",
          "name": "tokenId",
          "type": "uint256"
        },
        {
          "internalType": "bytes",
          "name": "_data",
          "type": "bytes"
        }
      ],
      "name": "safeTransferFrom",
      "outputs": [],
      "stateMutability": "nonpayable",
      "type": "function"
    },
    {
      "inputs": [
        {
          "internalType": "address",
          "name": "operator",
          "type": "address"
        },
        {
          "internalType": "bool",
          "name": "approved",
          "type": "bool"
        }
      ],
      "name": "setApprovalForAll",
      "outputs": [],
      "stateMutability": "nonpayable",
      "type": "function"
    },
    {
      "inputs": [
        {
          "internalType": "string",
          "name": "_nftImageURI",
          "type": "string"
        }
      ],
      "name": "setNewTokenURI",
      "outputs": [],
      "stateMutability": "nonpayable",
      "type": "function"
    },
    {
      "inputs": [
        {
          "internalType": "bytes4",
          "name": "interfaceId",
          "type": "bytes4"
        }
      ],
      "name": "supportsInterface",
      "outputs": [
        {
          "internalType": "bool",
          "name": "",
          "type": "bool"
        }
      ],
      "stateMutability": "view",
      "type": "function"
    },
    {
      "inputs": [],
      "name": "symbol",
      "outputs": [
        {
          "internalType": "string",
          "name": "",
          "type": "string"
        }
      ],
      "stateMutability": "view",
      "type": "function"
    },
    {
      "inputs": [
        {
          "internalType": "uint256",
          "name": "index",
          "type": "uint256"
        }
      ],
      "name": "tokenByIndex",
      "outputs": [
        {
          "internalType": "uint256",
          "name": "",
          "type": "uint256"
        }
      ],
      "stateMutability": "view",
      "type": "function"
    },
    {
      "inputs": [
        {
          "internalType": "address",
          "name": "owner",
          "type": "address"
        },
        {
          "internalType": "uint256",
          "name": "index",
          "type": "uint256"
        }
      ],
      "name": "tokenOfOwnerByIndex",
      "outputs": [
        {
          "internalType": "uint256",
          "name": "",
          "type": "uint256"
        }
      ],
      "stateMutability": "view",
      "type": "function"
    },
    {
      "inputs": [
        {
          "internalType": "uint256",
          "name": "tokenId",
          "type": "uint256"
        }
      ],
      "name": "tokenURI",
      "outputs": [
        {
          "internalType": "string",
          "name": "",
          "type": "string"
        }
      ],
      "stateMutability": "view",
      "type": "function"
    },
    {
      "inputs": [],
      "name": "totalSupply",
      "outputs": [
        {
          "internalType": "uint256",
          "name": "",
          "type": "uint256"
        }
      ],
      "stateMutability": "view",
      "type": "function"
    },
    {
      "inputs": [
        {
          "internalType": "address",
          "name": "from",
          "type": "address"
        },
        {
          "internalType": "address",
          "name": "to",
          "type": "address"
        },
        {
          "internalType": "uint256",
          "name": "tokenId",
          "type": "uint256"
        }
      ],
      "name": "transferFrom",
      "outputs": [],
      "stateMutability": "nonpayable",
      "type": "function"
    },
    {
      "inputs": [
        {
          "internalType": "address",
          "name": "newOwner",
          "type": "address"
        }
      ],
      "name": "transferOwnership",
      "outputs": [],
      "stateMutability": "nonpayable",
      "type": "function"
    }
  ],
  "bytecode": "0x60e06040526040516200619a3803806200619a8339818101604052810190620000299190620002cc565b6040518060400160405280600581526020017f574f4f46590000000000000000000000000000000000000000000000000000008152506040518060400160405280600381526020017f57465900000000000000000000000000000000000000000000000000000000008152508160009080519060200190620000ad92919062000205565b508060019080519060200190620000c692919062000205565b505050620000e9620000dd6200012160201b60201c565b6200012960201b60201c565b82608081815250508160a081815250508060c0818152505062000118600c620001ef60201b620023ef1760201c565b505050620003ab565b600033905090565b6000600b60009054906101000a900473ffffffffffffffffffffffffffffffffffffffff16905081600b60006101000a81548173ffffffffffffffffffffffffffffffffffffffff021916908373ffffffffffffffffffffffffffffffffffffffff1602179055508173ffffffffffffffffffffffffffffffffffffffff168173ffffffffffffffffffffffffffffffffffffffff167f8be0079c531659141344cd1fd0a4f28419497f9722a3daafe3b4186f6b6457e060405160405180910390a35050565b6001816000016000828254019250508190555050565b82805462000213906200032c565b90600052602060002090601f01602090048101928262000237576000855562000283565b82601f106200025257805160ff191683800117855562000283565b8280016001018555821562000283579182015b828111156200028257825182559160200191906001019062000265565b5b50905062000292919062000296565b5090565b5b80821115620002b157600081600090555060010162000297565b5090565b600081519050620002c68162000391565b92915050565b600080600060608486031215620002e257600080fd5b6000620002f286828701620002b5565b93505060206200030586828701620002b5565b92505060406200031886828701620002b5565b9150509250925092565b6000819050919050565b600060028204905060018216806200034557607f821691505b602082108114156200035c576200035b62000362565b5b50919050565b7f4e487b7100000000000000000000000000000000000000000000000000000000600052602260045260246000fd5b6200039c8162000322565b8114620003a857600080fd5b50565b60805160a05160c051615d8e6200040c60003960008181610a6b015261135b015260008181610e56015281816114b90152611f420152600081816113be01528181611400015281816115ea015281816116e201526117ad0152615d8e6000f3fe6080604052600436106101cd5760003560e01c8063715018a6116100f7578063b88d4fde11610095578063e5af0e8911610064578063e5af0e891461065c578063e985e9c514610685578063f2fde38b146106c2578063f6cf0fd5146106eb576101cd565b8063b88d4fde146105b1578063bd94b005146105da578063c87b56dd14610603578063d96a094a14610640576101cd565b80638d859f3e116100d15780638d859f3e146105075780638da5cb5b1461053257806395d89b411461055d578063a22cb46514610588576101cd565b8063715018a6146104bb5780637b687bf8146104d25780638a97ec2a146104fd576101cd565b806332cb6b0c1161016f57806358c57ac71161013e57806358c57ac7146103eb5780636352211e146104165780636e99d52f1461045357806370a082311461047e576101cd565b806332cb6b0c146103315780633cd76be21461035c57806342842e0e146103855780634f6ccce7146103ae576101cd565b8063095ea7b3116101ab578063095ea7b31461027757806318160ddd146102a057806323b872dd146102cb5780632f745c59146102f4576101cd565b806301ffc9a7146101d257806306fdde031461020f578063081812fc1461023a575b600080fd5b3480156101de57600080fd5b506101f960048036038101906101f49190613f74565b610716565b60405161020691906148d7565b60405180910390f35b34801561021b57600080fd5b50610224610728565b60405161023191906148f2565b60405180910390f35b34801561024657600080fd5b50610261600480360381019061025c9190614007565b6107ba565b60405161026e9190614817565b60405180910390f35b34801561028357600080fd5b5061029e60048036038101906102999190613f38565b61083f565b005b3480156102ac57600080fd5b506102b5610957565b6040516102c29190614d14565b60405180910390f35b3480156102d757600080fd5b506102f260048036038101906102ed9190613e32565b610964565b005b34801561030057600080fd5b5061031b60048036038101906103169190613f38565b6109c4565b6040516103289190614d14565b60405180910390f35b34801561033d57600080fd5b50610346610a69565b6040516103539190614d14565b60405180910390f35b34801561036857600080fd5b50610383600480360381019061037e9190614030565b610a8d565b005b34801561039157600080fd5b506103ac60048036038101906103a79190613e32565b610ca1565b005b3480156103ba57600080fd5b506103d560048036038101906103d09190614007565b610cc1565b6040516103e29190614d14565b60405180910390f35b3480156103f757600080fd5b50610400610d58565b60405161040d9190614d14565b60405180910390f35b34801561042257600080fd5b5061043d60048036038101906104389190614007565b610da2565b60405161044a9190614817565b60405180910390f35b34801561045f57600080fd5b50610468610e54565b6040516104759190614d14565b60405180910390f35b34801561048a57600080fd5b506104a560048036038101906104a09190613dcd565b610e78565b6040516104b29190614d14565b60405180910390f35b3480156104c757600080fd5b506104d0610f30565b005b3480156104de57600080fd5b506104e7610fb8565b6040516104f491906148b5565b60405180910390f35b61050561134b565b005b34801561051357600080fd5b5061051c6117ab565b6040516105299190614d14565b60405180910390f35b34801561053e57600080fd5b506105476117cf565b6040516105549190614817565b60405180910390f35b34801561056957600080fd5b506105726117f9565b60405161057f91906148f2565b60405180910390f35b34801561059457600080fd5b506105af60048036038101906105aa9190613efc565b61188b565b005b3480156105bd57600080fd5b506105d860048036038101906105d39190613e81565b6118a1565b005b3480156105e657600080fd5b5061060160048036038101906105fc9190614007565b611903565b005b34801561060f57600080fd5b5061062a60048036038101906106259190614007565b611afc565b60405161063791906148f2565b60405180910390f35b61065a60048036038101906106559190614007565b611b0e565b005b34801561066857600080fd5b50610683600480360381019061067e9190613fc6565b611eb5565b005b34801561069157600080fd5b506106ac60048036038101906106a79190613df6565b6120a1565b6040516106b991906148d7565b60405180910390f35b3480156106ce57600080fd5b506106e960048036038101906106e49190613dcd565b612135565b005b3480156106f757600080fd5b5061070061222d565b60405161070d91906148b5565b60405180910390f35b600061072182612405565b9050919050565b6060600080546107379061503e565b80601f01602080910402602001604051908101604052809291908181526020018280546107639061503e565b80156107b05780601f10610785576101008083540402835291602001916107b0565b820191906000526020600020905b81548152906001019060200180831161079357829003601f168201915b5050505050905090565b60006107c58261247f565b610804576040517f08c379a00000000000000000000000000000000000000000000000000000000081526004016107fb90614bf4565b60405180910390fd5b6004600083815260200190815260200160002060009054906101000a900473ffffffffffffffffffffffffffffffffffffffff169050919050565b600061084a82610da2565b90508073ffffffffffffffffffffffffffffffffffffffff168373ffffffffffffffffffffffffffffffffffffffff1614156108bb576040517f08c379a00000000000000000000000000000000000000000000000000000000081526004016108b290614c74565b60405180910390fd5b8073ffffffffffffffffffffffffffffffffffffffff166108da6124eb565b73ffffffffffffffffffffffffffffffffffffffff1614806109095750610908816109036124eb565b6120a1565b5b610948576040517f08c379a000000000000000000000000000000000000000000000000000000000815260040161093f90614a94565b60405180910390fd5b61095283836124f3565b505050565b6000600980549050905090565b61097561096f6124eb565b826125ac565b6109b4576040517f08c379a00000000000000000000000000000000000000000000000000000000081526004016109ab90614cb4565b60405180910390fd5b6109bf83838361268a565b505050565b60006109cf83610e78565b8210610a10576040517f08c379a0000000000000000000000000000000000000000000000000000000008152600401610a0790614914565b60405180910390fd5b600760008473ffffffffffffffffffffffffffffffffffffffff1673ffffffffffffffffffffffffffffffffffffffff168152602001908152602001600020600083815260200190815260200160002054905092915050565b7f000000000000000000000000000000000000000000000000000000000000000081565b8160008111610ad1576040517f08c379a0000000000000000000000000000000000000000000000000000000008152600401610ac8906149d4565b60405180910390fd5b610ada83610da2565b73ffffffffffffffffffffffffffffffffffffffff163373ffffffffffffffffffffffffffffffffffffffff1614610b47576040517f08c379a0000000000000000000000000000000000000000000000000000000008152600401610b3e90614b54565b60405180910390fd5b600180811115610b80577f4e487b7100000000000000000000000000000000000000000000000000000000600052602160045260246000fd5b600e600085815260200190815260200160002060010160009054906101000a900460ff166001811115610bdc577f4e487b7100000000000000000000000000000000000000000000000000000000600052602160045260246000fd5b14610c1c576040517f08c379a0000000000000000000000000000000000000000000000000000000008152600401610c1390614b94565b60405180910390fd5b6000600e600085815260200190815260200160002060010160006101000a81548160ff02191690836001811115610c7c577f4e487b7100000000000000000000000000000000000000000000000000000000600052602160045260246000fd5b021790555081600e600085815260200190815260200160002060000181905550505050565b610cbc838383604051806020016040528060008152506118a1565b505050565b6000610ccb610957565b8210610d0c576040517f08c379a0000000000000000000000000000000000000000000000000000000008152600401610d0390614cd4565b60405180910390fd5b60098281548110610d46577f4e487b7100000000000000000000000000000000000000000000000000000000600052603260045260246000fd5b90600052602060002001549050919050565b6000600d60003373ffffffffffffffffffffffffffffffffffffffff1673ffffffffffffffffffffffffffffffffffffffff16815260200190815260200160002060000154905090565b6000806002600084815260200190815260200160002060009054906101000a900473ffffffffffffffffffffffffffffffffffffffff169050600073ffffffffffffffffffffffffffffffffffffffff168173ffffffffffffffffffffffffffffffffffffffff161415610e4b576040517f08c379a0000000000000000000000000000000000000000000000000000000008152600401610e4290614b14565b60405180910390fd5b80915050919050565b7f000000000000000000000000000000000000000000000000000000000000000081565b60008073ffffffffffffffffffffffffffffffffffffffff168273ffffffffffffffffffffffffffffffffffffffff161415610ee9576040517f08c379a0000000000000000000000000000000000000000000000000000000008152600401610ee090614af4565b60405180910390fd5b600360008373ffffffffffffffffffffffffffffffffffffffff1673ffffffffffffffffffffffffffffffffffffffff168152602001908152602001600020549050919050565b610f386124eb565b73ffffffffffffffffffffffffffffffffffffffff16610f566117cf565b73ffffffffffffffffffffffffffffffffffffffff1614610fac576040517f08c379a0000000000000000000000000000000000000000000000000000000008152600401610fa390614c14565b60405180910390fd5b610fb660006128f1565b565b60606000610fc4610957565b905060008167ffffffffffffffff811115611008577f4e487b7100000000000000000000000000000000000000000000000000000000600052604160045260246000fd5b60405190808252806020026020018201604052801561104157816020015b61102e613b74565b8152602001906001900390816110265790505b50905060008060009050600191505b83821161121e5760006001811115611091577f4e487b7100000000000000000000000000000000000000000000000000000000600052602160045260246000fd5b600e600084815260200190815260200160002060010160009054906101000a900460ff1660018111156110ed577f4e487b7100000000000000000000000000000000000000000000000000000000600052602160045260246000fd5b141561120b5760006110fe83611afc565b90506040518060a00160405280848152602001828152602001600e6000868152602001908152602001600020600001548152602001600e600086815260200190815260200160002060010160009054906101000a900460ff16600181111561118f577f4e487b7100000000000000000000000000000000000000000000000000000000600052602160045260246000fd5b815260200161119d85610da2565b73ffffffffffffffffffffffffffffffffffffffff168152508483815181106111ef577f4e487b7100000000000000000000000000000000000000000000000000000000600052603260045260246000fd5b60200260200101819052506001826112079190614e4e565b9150505b8180611216906150a1565b925050611050565b60008167ffffffffffffffff811115611260577f4e487b7100000000000000000000000000000000000000000000000000000000600052604160045260246000fd5b60405190808252806020026020018201604052801561129957816020015b611286613b74565b81526020019060019003908161127e5790505b50905060005b8281101561133f578481815181106112e0577f4e487b7100000000000000000000000000000000000000000000000000000000600052603260045260246000fd5b6020026020010151828281518110611321577f4e487b7100000000000000000000000000000000000000000000000000000000600052603260045260246000fd5b60200260200101819052508080611337906150a1565b91505061129f565b50809550505050505090565b6000611357600c6129b7565b90507f00000000000000000000000000000000000000000000000000000000000000008111156113bc576040517f08c379a00000000000000000000000000000000000000000000000000000000081526004016113b390614c34565b60405180910390fd5b7f00000000000000000000000000000000000000000000000000000000000000003414611429604051806060016040528060238152602001615d36602391396114247f00000000000000000000000000000000000000000000000000000000000000006129c5565b612b72565b9061146a576040517f08c379a000000000000000000000000000000000000000000000000000000000815260040161146191906148f2565b60405180910390fd5b506000600d60003373ffffffffffffffffffffffffffffffffffffffff1673ffffffffffffffffffffffffffffffffffffffff16815260200190815260200160002060000154148061152957507f0000000000000000000000000000000000000000000000000000000000000000600d60003373ffffffffffffffffffffffffffffffffffffffff1673ffffffffffffffffffffffffffffffffffffffff16815260200190815260200160002060010154426115269190614f2f565b10155b611568576040517f08c379a000000000000000000000000000000000000000000000000000000000815260040161155f906149b4565b60405180910390fd5b6115723382612b9e565b604051806040016040528082815260200142815250600d60003373ffffffffffffffffffffffffffffffffffffffff1673ffffffffffffffffffffffffffffffffffffffff168152602001908152602001600020600082015181600001556020820151816001015590505060405180604001604052807f00000000000000000000000000000000000000000000000000000000000000008152602001600180811115611647577f4e487b7100000000000000000000000000000000000000000000000000000000600052602160045260246000fd5b815250600e60008381526020019081526020016000206000820151816000015560208201518160010160006101000a81548160ff021916908360018111156116b8577f4e487b7100000000000000000000000000000000000000000000000000000000600052602160045260246000fd5b021790555090505060006116ca6117cf565b73ffffffffffffffffffffffffffffffffffffffff167f000000000000000000000000000000000000000000000000000000000000000060405161170d90614802565b60006040518083038185875af1925050503d806000811461174a576040519150601f19603f3d011682016040523d82523d6000602084013e61174f565b606091505b5050905080611793576040517f08c379a000000000000000000000000000000000000000000000000000000000815260040161178a90614cf4565b60405180910390fd5b61179d308361083f565b6117a7600c6123ef565b5050565b7f000000000000000000000000000000000000000000000000000000000000000081565b6000600b60009054906101000a900473ffffffffffffffffffffffffffffffffffffffff16905090565b6060600180546118089061503e565b80601f01602080910402602001604051908101604052809291908181526020018280546118349061503e565b80156118815780601f1061185657610100808354040283529160200191611881565b820191906000526020600020905b81548152906001019060200180831161186457829003601f168201915b5050505050905090565b61189d6118966124eb565b8383612bbc565b5050565b6118b26118ac6124eb565b836125ac565b6118f1576040517f08c379a00000000000000000000000000000000000000000000000000000000081526004016118e890614cb4565b60405180910390fd5b6118fd84848484612d29565b50505050565b8060008111611947576040517f08c379a000000000000000000000000000000000000000000000000000000000815260040161193e906149d4565b60405180910390fd5b61195082610da2565b73ffffffffffffffffffffffffffffffffffffffff163373ffffffffffffffffffffffffffffffffffffffff16146119bd576040517f08c379a00000000000000000000000000000000000000000000000000000000081526004016119b490614b54565b60405180910390fd5b600060018111156119f7577f4e487b7100000000000000000000000000000000000000000000000000000000600052602160045260246000fd5b600e600084815260200190815260200160002060010160009054906101000a900460ff166001811115611a53577f4e487b7100000000000000000000000000000000000000000000000000000000600052602160045260246000fd5b14611a93576040517f08c379a0000000000000000000000000000000000000000000000000000000008152600401611a8a90614a54565b60405180910390fd5b6001600e600084815260200190815260200160002060010160006101000a81548160ff02191690836001811115611af3577f4e487b7100000000000000000000000000000000000000000000000000000000600052602160045260246000fd5b02179055505050565b6060611b0782612d85565b9050919050565b8060008111611b52576040517f08c379a0000000000000000000000000000000000000000000000000000000008152600401611b49906149d4565b60405180910390fd5b6000611b5d83610da2565b90506000600e60008581526020019081526020016000206000015490508173ffffffffffffffffffffffffffffffffffffffff163373ffffffffffffffffffffffffffffffffffffffff161415611be9576040517f08c379a0000000000000000000000000000000000000000000000000000000008152600401611be090614b74565b60405180910390fd5b60006001811115611c23577f4e487b7100000000000000000000000000000000000000000000000000000000600052602160045260246000fd5b600e600086815260200190815260200160002060010160009054906101000a900460ff166001811115611c7f577f4e487b7100000000000000000000000000000000000000000000000000000000600052602160045260246000fd5b14611cbf576040517f08c379a0000000000000000000000000000000000000000000000000000000008152600401611cb690614c94565b60405180910390fd5b803414611cec604051806060016040528060348152602001615cc260349139611ce7846129c5565b612b72565b90611d2d576040517f08c379a0000000000000000000000000000000000000000000000000000000008152600401611d2491906148f2565b60405180910390fd5b5060008273ffffffffffffffffffffffffffffffffffffffff1682604051611d5490614802565b60006040518083038185875af1925050503d8060008114611d91576040519150601f19603f3d011682016040523d82523d6000602084013e611d96565b606091505b5050905080611dda576040517f08c379a0000000000000000000000000000000000000000000000000000000008152600401611dd190614a34565b60405180910390fd5b3073ffffffffffffffffffffffffffffffffffffffff166342842e0e8433886040518463ffffffff1660e01b8152600401611e1793929190614832565b600060405180830381600087803b158015611e3157600080fd5b505af1158015611e45573d6000803e3d6000fd5b505050506001600e600087815260200190815260200160002060010160006101000a81548160ff02191690836001811115611ea9577f4e487b7100000000000000000000000000000000000000000000000000000000600052602160045260246000fd5b02179055505050505050565b6000600d60003373ffffffffffffffffffffffffffffffffffffffff1673ffffffffffffffffffffffffffffffffffffffff1681526020019081526020016000206000015490506000811415611f40576040517f08c379a0000000000000000000000000000000000000000000000000000000008152600401611f3790614ad4565b60405180910390fd5b7f0000000000000000000000000000000000000000000000000000000000000000600d60003373ffffffffffffffffffffffffffffffffffffffff1673ffffffffffffffffffffffffffffffffffffffff1681526020019081526020016000206001015442611faf9190614f2f565b10611fef576040517f08c379a0000000000000000000000000000000000000000000000000000000008152600401611fe690614ab4565b60405180910390fd5b60006120198360405160200161200591906147b3565b604051602081830303815290604052612ed7565b905060008160405160200161202e91906147e0565b60405160208183030381529060405290506120498382613061565b600d60003373ffffffffffffffffffffffffffffffffffffffff1673ffffffffffffffffffffffffffffffffffffffff1681526020019081526020016000206000808201600090556001820160009055505050505050565b6000600560008473ffffffffffffffffffffffffffffffffffffffff1673ffffffffffffffffffffffffffffffffffffffff16815260200190815260200160002060008373ffffffffffffffffffffffffffffffffffffffff1673ffffffffffffffffffffffffffffffffffffffff16815260200190815260200160002060009054906101000a900460ff16905092915050565b61213d6124eb565b73ffffffffffffffffffffffffffffffffffffffff1661215b6117cf565b73ffffffffffffffffffffffffffffffffffffffff16146121b1576040517f08c379a00000000000000000000000000000000000000000000000000000000081526004016121a890614c14565b60405180910390fd5b600073ffffffffffffffffffffffffffffffffffffffff168173ffffffffffffffffffffffffffffffffffffffff161415612221576040517f08c379a000000000000000000000000000000000000000000000000000000000815260040161221890614954565b60405180910390fd5b61222a816128f1565b50565b6060600061223a33610e78565b905060008167ffffffffffffffff81111561227e577f4e487b7100000000000000000000000000000000000000000000000000000000600052604160045260246000fd5b6040519080825280602002602001820160405280156122b757816020015b6122a4613b74565b81526020019060019003908161229c5790505b5090506000805b838110156123e5576122d033826109c4565b915060006122dd83611afc565b90506040518060a00160405280848152602001828152602001600e6000868152602001908152602001600020600001548152602001600e600086815260200190815260200160002060010160009054906101000a900460ff16600181111561236e577f4e487b7100000000000000000000000000000000000000000000000000000000600052602160045260246000fd5b81526020013373ffffffffffffffffffffffffffffffffffffffff168152508483815181106123c6577f4e487b7100000000000000000000000000000000000000000000000000000000600052603260045260246000fd5b60200260200101819052505080806123dd906150a1565b9150506122be565b5081935050505090565b6001816000016000828254019250508190555050565b60007f780e9d63000000000000000000000000000000000000000000000000000000007bffffffffffffffffffffffffffffffffffffffffffffffffffffffff1916827bffffffffffffffffffffffffffffffffffffffffffffffffffffffff191614806124785750612477826130d5565b5b9050919050565b60008073ffffffffffffffffffffffffffffffffffffffff166002600084815260200190815260200160002060009054906101000a900473ffffffffffffffffffffffffffffffffffffffff1673ffffffffffffffffffffffffffffffffffffffff1614159050919050565b600033905090565b816004600083815260200190815260200160002060006101000a81548173ffffffffffffffffffffffffffffffffffffffff021916908373ffffffffffffffffffffffffffffffffffffffff160217905550808273ffffffffffffffffffffffffffffffffffffffff1661256683610da2565b73ffffffffffffffffffffffffffffffffffffffff167f8c5be1e5ebec7d5bd14f71427d1e84f3dd0314c0f7b2291e5b200ac8c7c3b92560405160405180910390a45050565b60006125b78261247f565b6125f6576040517f08c379a00000000000000000000000000000000000000000000000000000000081526004016125ed90614a74565b60405180910390fd5b600061260183610da2565b90508073ffffffffffffffffffffffffffffffffffffffff168473ffffffffffffffffffffffffffffffffffffffff16148061267057508373ffffffffffffffffffffffffffffffffffffffff16612658846107ba565b73ffffffffffffffffffffffffffffffffffffffff16145b80612681575061268081856120a1565b5b91505092915050565b8273ffffffffffffffffffffffffffffffffffffffff166126aa82610da2565b73ffffffffffffffffffffffffffffffffffffffff1614612700576040517f08c379a00000000000000000000000000000000000000000000000000000000081526004016126f790614974565b60405180910390fd5b600073ffffffffffffffffffffffffffffffffffffffff168273ffffffffffffffffffffffffffffffffffffffff161415612770576040517f08c379a0000000000000000000000000000000000000000000000000000000008152600401612767906149f4565b60405180910390fd5b61277b8383836131b7565b6127866000826124f3565b6001600360008573ffffffffffffffffffffffffffffffffffffffff1673ffffffffffffffffffffffffffffffffffffffff16815260200190815260200160002060008282546127d69190614f2f565b925050819055506001600360008473ffffffffffffffffffffffffffffffffffffffff1673ffffffffffffffffffffffffffffffffffffffff168152602001908152602001600020600082825461282d9190614e4e565b92505081905550816002600083815260200190815260200160002060006101000a81548173ffffffffffffffffffffffffffffffffffffffff021916908373ffffffffffffffffffffffffffffffffffffffff160217905550808273ffffffffffffffffffffffffffffffffffffffff168473ffffffffffffffffffffffffffffffffffffffff167fddf252ad1be2c89b69c2b068fc378daa952ba7f163c4a11628f55a4df523b3ef60405160405180910390a46128ec8383836131c7565b505050565b6000600b60009054906101000a900473ffffffffffffffffffffffffffffffffffffffff16905081600b60006101000a81548173ffffffffffffffffffffffffffffffffffffffff021916908373ffffffffffffffffffffffffffffffffffffffff1602179055508173ffffffffffffffffffffffffffffffffffffffff168173ffffffffffffffffffffffffffffffffffffffff167f8be0079c531659141344cd1fd0a4f28419497f9722a3daafe3b4186f6b6457e060405160405180910390a35050565b600081600001549050919050565b60606000821415612a0d576040518060400160405280600181526020017f30000000000000000000000000000000000000000000000000000000000000008152509050612b6d565b600082905060005b60008214612a3f578080612a28906150a1565b915050600a82612a389190614ea4565b9150612a15565b60008167ffffffffffffffff811115612a81577f4e487b7100000000000000000000000000000000000000000000000000000000600052604160045260246000fd5b6040519080825280601f01601f191660200182016040528015612ab35781602001600182028036833780820191505090505b5090505b60008514612b6657600182612acc9190614f2f565b9150600a85612adb91906150ea565b6030612ae79190614e4e565b60f81b818381518110612b23577f4e487b7100000000000000000000000000000000000000000000000000000000600052603260045260246000fd5b60200101907effffffffffffffffffffffffffffffffffffffffffffffffffffffffffffff1916908160001a905350600a85612b5f9190614ea4565b9450612ab7565b8093505050505b919050565b60608282604051602001612b8792919061478f565b604051602081830303815290604052905092915050565b612bb88282604051806020016040528060008152506131cc565b5050565b8173ffffffffffffffffffffffffffffffffffffffff168373ffffffffffffffffffffffffffffffffffffffff161415612c2b576040517f08c379a0000000000000000000000000000000000000000000000000000000008152600401612c2290614a14565b60405180910390fd5b80600560008573ffffffffffffffffffffffffffffffffffffffff1673ffffffffffffffffffffffffffffffffffffffff16815260200190815260200160002060008473ffffffffffffffffffffffffffffffffffffffff1673ffffffffffffffffffffffffffffffffffffffff16815260200190815260200160002060006101000a81548160ff0219169083151502179055508173ffffffffffffffffffffffffffffffffffffffff168373ffffffffffffffffffffffffffffffffffffffff167f17307eab39ab6107e8899845ad3d59bd9653f200f220920489ca2b5937696c3183604051612d1c91906148d7565b60405180910390a3505050565b612d3484848461268a565b612d4084848484613227565b612d7f576040517f08c379a0000000000000000000000000000000000000000000000000000000008152600401612d7690614934565b60405180910390fd5b50505050565b6060612d908261247f565b612dcf576040517f08c379a0000000000000000000000000000000000000000000000000000000008152600401612dc690614bd4565b60405180910390fd5b6000600660008481526020019081526020016000208054612def9061503e565b80601f0160208091040260200160405190810160405280929190818152602001828054612e1b9061503e565b8015612e685780601f10612e3d57610100808354040283529160200191612e68565b820191906000526020600020905b815481529060010190602001808311612e4b57829003601f168201915b505050505090506000612e796133be565b9050600081511415612e8f578192505050612ed2565b600082511115612ec4578082604051602001612eac92919061478f565b60405160208183030381529060405292505050612ed2565b612ecd846133d5565b925050505b919050565b6060600082511415612efa5760405180602001604052806000815250905061305c565b6000604051806060016040528060408152602001615cf66040913990506000600360028551612f299190614e4e565b612f339190614ea4565b6004612f3f9190614ed5565b67ffffffffffffffff811115612f7e577f4e487b7100000000000000000000000000000000000000000000000000000000600052604160045260246000fd5b6040519080825280601f01601f191660200182016040528015612fb05781602001600182028036833780820191505090505b509050600182016020820185865187015b8082101561301c576003820191508151603f8160121c168501518453600184019350603f81600c1c168501518453600184019350603f8160061c168501518453600184019350603f8116850151845360018401935050612fc1565b5050600386510660018114613038576002811461304b57613053565b603d6001830353603d6002830353613053565b603d60018303535b50505080925050505b919050565b61306a8261247f565b6130a9576040517f08c379a00000000000000000000000000000000000000000000000000000000081526004016130a090614b34565b60405180910390fd5b806006600084815260200190815260200160002090805190602001906130d0929190613bf1565b505050565b60007f80ac58cd000000000000000000000000000000000000000000000000000000007bffffffffffffffffffffffffffffffffffffffffffffffffffffffff1916827bffffffffffffffffffffffffffffffffffffffffffffffffffffffff191614806131a057507f5b5e139f000000000000000000000000000000000000000000000000000000007bffffffffffffffffffffffffffffffffffffffffffffffffffffffff1916827bffffffffffffffffffffffffffffffffffffffffffffffffffffffff1916145b806131b057506131af8261347c565b5b9050919050565b6131c28383836134e6565b505050565b505050565b6131d683836135fa565b6131e36000848484613227565b613222576040517f08c379a000000000000000000000000000000000000000000000000000000000815260040161321990614934565b60405180910390fd5b505050565b60006132488473ffffffffffffffffffffffffffffffffffffffff166137d4565b156133b1578373ffffffffffffffffffffffffffffffffffffffff1663150b7a026132716124eb565b8786866040518563ffffffff1660e01b81526004016132939493929190614869565b602060405180830381600087803b1580156132ad57600080fd5b505af19250505080156132de57506040513d601f19601f820116820180604052508101906132db9190613f9d565b60015b613361573d806000811461330e576040519150601f19603f3d011682016040523d82523d6000602084013e613313565b606091505b50600081511415613359576040517f08c379a000000000000000000000000000000000000000000000000000000000815260040161335090614934565b60405180910390fd5b805181602001fd5b63150b7a0260e01b7bffffffffffffffffffffffffffffffffffffffffffffffffffffffff1916817bffffffffffffffffffffffffffffffffffffffffffffffffffffffff1916149150506133b6565b600190505b949350505050565b606060405180602001604052806000815250905090565b60606133e08261247f565b61341f576040517f08c379a000000000000000000000000000000000000000000000000000000000815260040161341690614c54565b60405180910390fd5b60006134296133be565b905060008151116134495760405180602001604052806000815250613474565b80613453846129c5565b60405160200161346492919061478f565b6040516020818303038152906040525b915050919050565b60007f01ffc9a7000000000000000000000000000000000000000000000000000000007bffffffffffffffffffffffffffffffffffffffffffffffffffffffff1916827bffffffffffffffffffffffffffffffffffffffffffffffffffffffff1916149050919050565b6134f18383836137f7565b600073ffffffffffffffffffffffffffffffffffffffff168373ffffffffffffffffffffffffffffffffffffffff1614156135345761352f816137fc565b613573565b8173ffffffffffffffffffffffffffffffffffffffff168373ffffffffffffffffffffffffffffffffffffffff1614613572576135718382613845565b5b5b600073ffffffffffffffffffffffffffffffffffffffff168273ffffffffffffffffffffffffffffffffffffffff1614156135b6576135b1816139b2565b6135f5565b8273ffffffffffffffffffffffffffffffffffffffff168273ffffffffffffffffffffffffffffffffffffffff16146135f4576135f38282613af5565b5b5b505050565b600073ffffffffffffffffffffffffffffffffffffffff168273ffffffffffffffffffffffffffffffffffffffff16141561366a576040517f08c379a000000000000000000000000000000000000000000000000000000000815260040161366190614bb4565b60405180910390fd5b6136738161247f565b156136b3576040517f08c379a00000000000000000000000000000000000000000000000000000000081526004016136aa90614994565b60405180910390fd5b6136bf600083836131b7565b6001600360008473ffffffffffffffffffffffffffffffffffffffff1673ffffffffffffffffffffffffffffffffffffffff168152602001908152602001600020600082825461370f9190614e4e565b92505081905550816002600083815260200190815260200160002060006101000a81548173ffffffffffffffffffffffffffffffffffffffff021916908373ffffffffffffffffffffffffffffffffffffffff160217905550808273ffffffffffffffffffffffffffffffffffffffff16600073ffffffffffffffffffffffffffffffffffffffff167fddf252ad1be2c89b69c2b068fc378daa952ba7f163c4a11628f55a4df523b3ef60405160405180910390a46137d0600083836131c7565b5050565b6000808273ffffffffffffffffffffffffffffffffffffffff163b119050919050565b505050565b600980549050600a600083815260200190815260200160002081905550600981908060018154018082558091505060019003906000526020600020016000909190919091505550565b6000600161385284610e78565b61385c9190614f2f565b9050600060086000848152602001908152602001600020549050818114613941576000600760008673ffffffffffffffffffffffffffffffffffffffff1673ffffffffffffffffffffffffffffffffffffffff168152602001908152602001600020600084815260200190815260200160002054905080600760008773ffffffffffffffffffffffffffffffffffffffff1673ffffffffffffffffffffffffffffffffffffffff168152602001908152602001600020600084815260200190815260200160002081905550816008600083815260200190815260200160002081905550505b6008600084815260200190815260200160002060009055600760008573ffffffffffffffffffffffffffffffffffffffff1673ffffffffffffffffffffffffffffffffffffffff16815260200190815260200160002060008381526020019081526020016000206000905550505050565b600060016009805490506139c69190614f2f565b90506000600a6000848152602001908152602001600020549050600060098381548110613a1c577f4e487b7100000000000000000000000000000000000000000000000000000000600052603260045260246000fd5b906000526020600020015490508060098381548110613a64577f4e487b7100000000000000000000000000000000000000000000000000000000600052603260045260246000fd5b906000526020600020018190555081600a600083815260200190815260200160002081905550600a6000858152602001908152602001600020600090556009805480613ad9577f4e487b7100000000000000000000000000000000000000000000000000000000600052603160045260246000fd5b6001900381819060005260206000200160009055905550505050565b6000613b0083610e78565b905081600760008573ffffffffffffffffffffffffffffffffffffffff1673ffffffffffffffffffffffffffffffffffffffff168152602001908152602001600020600083815260200190815260200160002081905550806008600084815260200190815260200160002081905550505050565b6040518060a0016040528060008152602001606081526020016000815260200160006001811115613bce577f4e487b7100000000000000000000000000000000000000000000000000000000600052602160045260246000fd5b8152602001600073ffffffffffffffffffffffffffffffffffffffff1681525090565b828054613bfd9061503e565b90600052602060002090601f016020900481019282613c1f5760008555613c66565b82601f10613c3857805160ff1916838001178555613c66565b82800160010185558215613c66579182015b82811115613c65578251825591602001919060010190613c4a565b5b509050613c739190613c77565b5090565b5b80821115613c90576000816000905550600101613c78565b5090565b6000613ca7613ca284614d54565b614d2f565b905082815260208101848484011115613cbf57600080fd5b613cca848285614ffc565b509392505050565b6000613ce5613ce084614d85565b614d2f565b905082815260208101848484011115613cfd57600080fd5b613d08848285614ffc565b509392505050565b600081359050613d1f81615c65565b92915050565b600081359050613d3481615c7c565b92915050565b600081359050613d4981615c93565b92915050565b600081519050613d5e81615c93565b92915050565b600082601f830112613d7557600080fd5b8135613d85848260208601613c94565b91505092915050565b600082601f830112613d9f57600080fd5b8135613daf848260208601613cd2565b91505092915050565b600081359050613dc781615caa565b92915050565b600060208284031215613ddf57600080fd5b6000613ded84828501613d10565b91505092915050565b60008060408385031215613e0957600080fd5b6000613e1785828601613d10565b9250506020613e2885828601613d10565b9150509250929050565b600080600060608486031215613e4757600080fd5b6000613e5586828701613d10565b9350506020613e6686828701613d10565b9250506040613e7786828701613db8565b9150509250925092565b60008060008060808587031215613e9757600080fd5b6000613ea587828801613d10565b9450506020613eb687828801613d10565b9350506040613ec787828801613db8565b925050606085013567ffffffffffffffff811115613ee457600080fd5b613ef087828801613d64565b91505092959194509250565b60008060408385031215613f0f57600080fd5b6000613f1d85828601613d10565b9250506020613f2e85828601613d25565b9150509250929050565b60008060408385031215613f4b57600080fd5b6000613f5985828601613d10565b9250506020613f6a85828601613db8565b9150509250929050565b600060208284031215613f8657600080fd5b6000613f9484828501613d3a565b91505092915050565b600060208284031215613faf57600080fd5b6000613fbd84828501613d4f565b91505092915050565b600060208284031215613fd857600080fd5b600082013567ffffffffffffffff811115613ff257600080fd5b613ffe84828501613d8e565b91505092915050565b60006020828403121561401957600080fd5b600061402784828501613db8565b91505092915050565b6000806040838503121561404357600080fd5b600061405185828601613db8565b925050602061406285828601613db8565b9150509250929050565b600061407883836146fb565b905092915050565b61408981614f63565b82525050565b61409881614f63565b82525050565b60006140a982614dc6565b6140b38185614df4565b9350836020820285016140c585614db6565b8060005b8581101561410157848403895281516140e2858261406c565b94506140ed83614de7565b925060208a019950506001810190506140c9565b50829750879550505050505092915050565b61411c81614f75565b82525050565b600061412d82614dd1565b6141378185614e05565b935061414781856020860161500b565b61415081615206565b840191505092915050565b61416481614fea565b82525050565b600061417582614ddc565b61417f8185614e21565b935061418f81856020860161500b565b61419881615206565b840191505092915050565b60006141ae82614ddc565b6141b88185614e32565b93506141c881856020860161500b565b6141d181615206565b840191505092915050565b60006141e782614ddc565b6141f18185614e43565b935061420181856020860161500b565b80840191505092915050565b600061421a602b83614e32565b915061422582615217565b604082019050919050565b600061423d603283614e32565b915061424882615266565b604082019050919050565b600061426161013883614e43565b915061426c826152b5565b61013882019050919050565b6000614285602683614e32565b915061429082615436565b604082019050919050565b60006142a8602583614e32565b91506142b382615485565b604082019050919050565b60006142cb601c83614e32565b91506142d6826154d4565b602082019050919050565b60006142ee602f83614e32565b91506142f9826154fd565b604082019050919050565b6000614311601083614e32565b915061431c8261554c565b602082019050919050565b6000614334602483614e32565b915061433f82615575565b604082019050919050565b6000614357601983614e32565b9150614362826155c4565b602082019050919050565b600061437a602183614e32565b9150614385826155ed565b604082019050919050565b600061439d601e83614e32565b91506143a88261563c565b602082019050919050565b60006143c0602c83614e32565b91506143cb82615665565b604082019050919050565b60006143e3603883614e32565b91506143ee826156b4565b604082019050919050565b6000614406601a83614e32565b915061441182615703565b602082019050919050565b6000614429603483614e32565b91506144348261572c565b604082019050919050565b600061444c602a83614e32565b91506144578261577b565b604082019050919050565b600061446f602983614e32565b915061447a826157ca565b604082019050919050565b6000614492602e83614e32565b915061449d82615819565b604082019050919050565b60006144b5602083614e32565b91506144c082615868565b602082019050919050565b60006144d8602883614e32565b91506144e382615891565b604082019050919050565b60006144fb600283614e43565b9150614506826158e0565b600282019050919050565b600061451e601a83614e32565b915061452982615909565b602082019050919050565b6000614541602083614e32565b915061454c82615932565b602082019050919050565b6000614564603183614e32565b915061456f8261595b565b604082019050919050565b6000614587602c83614e32565b9150614592826159aa565b604082019050919050565b60006145aa602083614e32565b91506145b5826159f9565b602082019050919050565b60006145cd602c83614e32565b91506145d882615a22565b604082019050919050565b60006145f0602f83614e32565b91506145fb82615a71565b604082019050919050565b6000614613602183614e32565b915061461e82615ac0565b604082019050919050565b6000614636601683614e32565b915061464182615b0f565b602082019050919050565b6000614659601d83614e43565b915061466482615b38565b601d82019050919050565b600061467c600083614e16565b915061468782615b61565b600082019050919050565b600061469f603183614e32565b91506146aa82615b64565b604082019050919050565b60006146c2602c83614e32565b91506146cd82615bb3565b604082019050919050565b60006146e5603c83614e32565b91506146f082615c02565b604082019050919050565b600060a0830160008301516147136000860182614771565b506020830151848203602086015261472b828261416a565b91505060408301516147406040860182614771565b506060830151614753606086018261415b565b5060808301516147666080860182614080565b508091505092915050565b61477a81614fe0565b82525050565b61478981614fe0565b82525050565b600061479b82856141dc565b91506147a782846141dc565b91508190509392505050565b60006147be82614253565b91506147ca82846141dc565b91506147d5826144ee565b915081905092915050565b60006147eb8261464c565b91506147f782846141dc565b915081905092915050565b600061480d8261466f565b9150819050919050565b600060208201905061482c600083018461408f565b92915050565b6000606082019050614847600083018661408f565b614854602083018561408f565b6148616040830184614780565b949350505050565b600060808201905061487e600083018761408f565b61488b602083018661408f565b6148986040830185614780565b81810360608301526148aa8184614122565b905095945050505050565b600060208201905081810360008301526148cf818461409e565b905092915050565b60006020820190506148ec6000830184614113565b92915050565b6000602082019050818103600083015261490c81846141a3565b905092915050565b6000602082019050818103600083015261492d8161420d565b9050919050565b6000602082019050818103600083015261494d81614230565b9050919050565b6000602082019050818103600083015261496d81614278565b9050919050565b6000602082019050818103600083015261498d8161429b565b9050919050565b600060208201905081810360008301526149ad816142be565b9050919050565b600060208201905081810360008301526149cd816142e1565b9050919050565b600060208201905081810360008301526149ed81614304565b9050919050565b60006020820190508181036000830152614a0d81614327565b9050919050565b60006020820190508181036000830152614a2d8161434a565b9050919050565b60006020820190508181036000830152614a4d8161436d565b9050919050565b60006020820190508181036000830152614a6d81614390565b9050919050565b60006020820190508181036000830152614a8d816143b3565b9050919050565b60006020820190508181036000830152614aad816143d6565b9050919050565b60006020820190508181036000830152614acd816143f9565b9050919050565b60006020820190508181036000830152614aed8161441c565b9050919050565b60006020820190508181036000830152614b0d8161443f565b9050919050565b60006020820190508181036000830152614b2d81614462565b9050919050565b60006020820190508181036000830152614b4d81614485565b9050919050565b60006020820190508181036000830152614b6d816144a8565b9050919050565b60006020820190508181036000830152614b8d816144cb565b9050919050565b60006020820190508181036000830152614bad81614511565b9050919050565b60006020820190508181036000830152614bcd81614534565b9050919050565b60006020820190508181036000830152614bed81614557565b9050919050565b60006020820190508181036000830152614c0d8161457a565b9050919050565b60006020820190508181036000830152614c2d8161459d565b9050919050565b60006020820190508181036000830152614c4d816145c0565b9050919050565b60006020820190508181036000830152614c6d816145e3565b9050919050565b60006020820190508181036000830152614c8d81614606565b9050919050565b60006020820190508181036000830152614cad81614629565b9050919050565b60006020820190508181036000830152614ccd81614692565b9050919050565b60006020820190508181036000830152614ced816146b5565b9050919050565b60006020820190508181036000830152614d0d816146d8565b9050919050565b6000602082019050614d296000830184614780565b92915050565b6000614d39614d4a565b9050614d458282615070565b919050565b6000604051905090565b600067ffffffffffffffff821115614d6f57614d6e6151d7565b5b614d7882615206565b9050602081019050919050565b600067ffffffffffffffff821115614da057614d9f6151d7565b5b614da982615206565b9050602081019050919050565b6000819050602082019050919050565b600081519050919050565b600081519050919050565b600081519050919050565b6000602082019050919050565b600082825260208201905092915050565b600082825260208201905092915050565b600081905092915050565b600082825260208201905092915050565b600082825260208201905092915050565b600081905092915050565b6000614e5982614fe0565b9150614e6483614fe0565b9250827fffffffffffffffffffffffffffffffffffffffffffffffffffffffffffffffff03821115614e9957614e9861511b565b5b828201905092915050565b6000614eaf82614fe0565b9150614eba83614fe0565b925082614eca57614ec961514a565b5b828204905092915050565b6000614ee082614fe0565b9150614eeb83614fe0565b9250817fffffffffffffffffffffffffffffffffffffffffffffffffffffffffffffffff0483118215151615614f2457614f2361511b565b5b828202905092915050565b6000614f3a82614fe0565b9150614f4583614fe0565b925082821015614f5857614f5761511b565b5b828203905092915050565b6000614f6e82614fc0565b9050919050565b60008115159050919050565b60007fffffffff0000000000000000000000000000000000000000000000000000000082169050919050565b6000819050614fbb82615c51565b919050565b600073ffffffffffffffffffffffffffffffffffffffff82169050919050565b6000819050919050565b6000614ff582614fad565b9050919050565b82818337600083830152505050565b60005b8381101561502957808201518184015260208101905061500e565b83811115615038576000848401525b50505050565b6000600282049050600182168061505657607f821691505b6020821081141561506a576150696151a8565b5b50919050565b61507982615206565b810181811067ffffffffffffffff82111715615098576150976151d7565b5b80604052505050565b60006150ac82614fe0565b91507fffffffffffffffffffffffffffffffffffffffffffffffffffffffffffffffff8214156150df576150de61511b565b5b600182019050919050565b60006150f582614fe0565b915061510083614fe0565b9250826151105761510f61514a565b5b828206905092915050565b7f4e487b7100000000000000000000000000000000000000000000000000000000600052601160045260246000fd5b7f4e487b7100000000000000000000000000000000000000000000000000000000600052601260045260246000fd5b7f4e487b7100000000000000000000000000000000000000000000000000000000600052602160045260246000fd5b7f4e487b7100000000000000000000000000000000000000000000000000000000600052602260045260246000fd5b7f4e487b7100000000000000000000000000000000000000000000000000000000600052604160045260246000fd5b6000601f19601f8301169050919050565b7f455243373231456e756d657261626c653a206f776e657220696e646578206f7560008201527f74206f6620626f756e6473000000000000000000000000000000000000000000602082015250565b7f4552433732313a207472616e7366657220746f206e6f6e20455243373231526560008201527f63656976657220696d706c656d656e7465720000000000000000000000000000602082015250565b7f7b226e616d65223a22576f6f6679222c226465736372697074696f6e223a225760008201527f6f6f66792069732061206375746520646f672c206c696b657320746f20706c6160208201527f792073757065726865726f20696e206120636170652e2045616368204e46542060408201527f6f662068696d206973206d61726b65642077697468206120756e69717565206e60608201527f756d6265722e2047657420796f75727320746f6461792121222c22617474726960808201527f6275746573223a5b7b2274726169745f74797065223a22437574656e6573732260a08201527f2c2276616c7565223a3130302c22646973706c61795f74797065223a22626f6f60c08201527f73745f6e756d626572227d2c7b2274726169745f74797065223a224865726f6960e08201527f736d222c2276616c7565223a37352c22646973706c61795f74797065223a22626101008201527f6f6f73745f6e756d626572227d5d2c22696d616765223a22000000000000000061012082015250565b7f4f776e61626c653a206e6577206f776e657220697320746865207a65726f206160008201527f6464726573730000000000000000000000000000000000000000000000000000602082015250565b7f4552433732313a207472616e736665722066726f6d20696e636f72726563742060008201527f6f776e6572000000000000000000000000000000000000000000000000000000602082015250565b7f4552433732313a20746f6b656e20616c7265616479206d696e74656400000000600082015250565b7f5349474e45522048415320412050454e44494e47204e4654212057414954494e60008201527f4720464f5220434f4f4c444f574e2e0000000000000000000000000000000000602082015250565b7f494e56414c494420544f4b454e20494400000000000000000000000000000000600082015250565b7f4552433732313a207472616e7366657220746f20746865207a65726f2061646460008201527f7265737300000000000000000000000000000000000000000000000000000000602082015250565b7f4552433732313a20617070726f766520746f2063616c6c657200000000000000600082015250565b7f4f574e455220434f554c44204e4f54204245205041494420544845205052494360008201527f4500000000000000000000000000000000000000000000000000000000000000602082015250565b7f544f4b454e20495320414c5245414459204e4f5420464f522053414c452e0000600082015250565b7f4552433732313a206f70657261746f7220717565727920666f72206e6f6e657860008201527f697374656e7420746f6b656e0000000000000000000000000000000000000000602082015250565b7f4552433732313a20617070726f76652063616c6c6572206973206e6f74206f7760008201527f6e6572206e6f7220617070726f76656420666f7220616c6c0000000000000000602082015250565b7f5349474e455220484153204e4f2050454e44494e47204e465421000000000000600082015250565b7f5349474e455220444f4553204e4f5420484156452041204e45574c59204d494e60008201527f5445442c20494e434f4d504c455445204e465421000000000000000000000000602082015250565b7f4552433732313a2062616c616e636520717565727920666f7220746865207a6560008201527f726f206164647265737300000000000000000000000000000000000000000000602082015250565b7f4552433732313a206f776e657220717565727920666f72206e6f6e657869737460008201527f656e7420746f6b656e0000000000000000000000000000000000000000000000602082015250565b7f45524337323155524953746f726167653a2055524920736574206f66206e6f6e60008201527f6578697374656e7420746f6b656e000000000000000000000000000000000000602082015250565b7f5349474e4552204953204e4f54204f574e4552204f462054484520544f4b454e600082015250565b7f5349474e455220495320414c524541445920544845204f574e4552204f46205460008201527f484520544f4b454e000000000000000000000000000000000000000000000000602082015250565b7f227d000000000000000000000000000000000000000000000000000000000000600082015250565b7f544f4b454e20495320414c524541445920464f522053414c452e000000000000600082015250565b7f4552433732313a206d696e7420746f20746865207a65726f2061646472657373600082015250565b7f45524337323155524953746f726167653a2055524920717565727920666f722060008201527f6e6f6e6578697374656e7420746f6b656e000000000000000000000000000000602082015250565b7f4552433732313a20617070726f76656420717565727920666f72206e6f6e657860008201527f697374656e7420746f6b656e0000000000000000000000000000000000000000602082015250565b7f4f776e61626c653a2063616c6c6572206973206e6f7420746865206f776e6572600082015250565b7f4d4158204e554d424552204f4620574f4f46597320494e2043495243554c415460008201527f494f4e20414c5245414459210000000000000000000000000000000000000000602082015250565b7f4552433732314d657461646174613a2055524920717565727920666f72206e6f60008201527f6e6578697374656e7420746f6b656e0000000000000000000000000000000000602082015250565b7f4552433732313a20617070726f76616c20746f2063757272656e74206f776e6560008201527f7200000000000000000000000000000000000000000000000000000000000000602082015250565b7f544f4b454e204953204e4f5420464f522053414c452e00000000000000000000600082015250565b7f646174613a6170706c69636174696f6e2f6a736f6e3b6261736536342c000000600082015250565b50565b7f4552433732313a207472616e736665722063616c6c6572206973206e6f74206f60008201527f776e6572206e6f7220617070726f766564000000000000000000000000000000602082015250565b7f455243373231456e756d657261626c653a20676c6f62616c20696e646578206f60008201527f7574206f6620626f756e64730000000000000000000000000000000000000000602082015250565b7f434f4e5452414354204f574e455220434f554c44204e4f54204245205452414e60008201527f534645525245442054484520505249434520464f5220574f4f46592100000000602082015250565b60028110615c6257615c61615179565b5b50565b615c6e81614f63565b8114615c7957600080fd5b50565b615c8581614f75565b8114615c9057600080fd5b50565b615c9c81614f81565b8114615ca757600080fd5b50565b615cb381614fe0565b8114615cbe57600080fd5b5056fe494e434f52524543542056414c55452053454e5420464f522050555243484153494e473b20434f52524543542056414c55453a204142434445464748494a4b4c4d4e4f505152535455565758595a6162636465666768696a6b6c6d6e6f707172737475767778797a303132333435363738392b2f494e434f525245435420414d4f554e54204f46205745492053454e54212053454e4420a26469706673582212202ee17225452e4d9d4a189c7ced4fec17c75876d89ad8e3bf10ff7fd37e0dde2164736f6c63430008040033",
  "linkReferences": {},
  "deployedLinkReferences": {}
}