{
  "_format": "hh-sol-artifact-1",
  "contractName": "Woofy",
  "sourceName": "contracts/Woofy.sol",
  "abi": [
    {
      "inputs": [],
      "stateMutability": "payable",
      "type": "constructor"
    },
    {
      "anonymous": false,
      "inputs": [
        {
          "indexed": true,
          "internalType": "address",
          "name": "owner",
          "type": "address"
        },
        {
          "indexed": true,
          "internalType": "address",
          "name": "approved",
          "type": "address"
        },
        {
          "indexed": true,
          "internalType": "uint256",
          "name": "tokenId",
          "type": "uint256"
        }
      ],
      "name": "Approval",
      "type": "event"
    },
    {
      "anonymous": false,
      "inputs": [
        {
          "indexed": true,
          "internalType": "address",
          "name": "owner",
          "type": "address"
        },
        {
          "indexed": true,
          "internalType": "address",
          "name": "operator",
          "type": "address"
        },
        {
          "indexed": false,
          "internalType": "bool",
          "name": "approved",
          "type": "bool"
        }
      ],
      "name": "ApprovalForAll",
      "type": "event"
    },
    {
      "anonymous": false,
      "inputs": [
        {
          "indexed": true,
          "internalType": "address",
          "name": "from",
          "type": "address"
        },
        {
          "indexed": true,
          "internalType": "address",
          "name": "to",
          "type": "address"
        },
        {
          "indexed": true,
          "internalType": "uint256",
          "name": "tokenId",
          "type": "uint256"
        }
      ],
      "name": "Transfer",
      "type": "event"
    },
    {
      "inputs": [
        {
          "internalType": "address",
          "name": "to",
          "type": "address"
        },
        {
          "internalType": "uint256",
          "name": "tokenId",
          "type": "uint256"
        }
      ],
      "name": "approve",
      "outputs": [],
      "stateMutability": "nonpayable",
      "type": "function"
    },
    {
      "inputs": [
        {
          "internalType": "address",
          "name": "owner",
          "type": "address"
        }
      ],
      "name": "balanceOf",
      "outputs": [
        {
          "internalType": "uint256",
          "name": "",
          "type": "uint256"
        }
      ],
      "stateMutability": "view",
      "type": "function"
    },
    {
      "inputs": [],
      "name": "createNFT",
      "outputs": [],
      "stateMutability": "payable",
      "type": "function"
    },
    {
      "inputs": [
        {
          "internalType": "uint256",
          "name": "tokenId",
          "type": "uint256"
        }
      ],
      "name": "getApproved",
      "outputs": [
        {
          "internalType": "address",
          "name": "",
          "type": "address"
        }
      ],
      "stateMutability": "view",
      "type": "function"
    },
    {
      "inputs": [],
      "name": "getNewTokenId",
      "outputs": [
        {
          "internalType": "uint256",
          "name": "",
          "type": "uint256"
        }
      ],
      "stateMutability": "view",
      "type": "function"
    },
    {
      "inputs": [
        {
          "internalType": "address",
          "name": "owner",
          "type": "address"
        },
        {
          "internalType": "address",
          "name": "operator",
          "type": "address"
        }
      ],
      "name": "isApprovedForAll",
      "outputs": [
        {
          "internalType": "bool",
          "name": "",
          "type": "bool"
        }
      ],
      "stateMutability": "view",
      "type": "function"
    },
    {
      "inputs": [],
      "name": "name",
      "outputs": [
        {
          "internalType": "string",
          "name": "",
          "type": "string"
        }
      ],
      "stateMutability": "view",
      "type": "function"
    },
    {
      "inputs": [
        {
          "internalType": "uint256",
          "name": "tokenId",
          "type": "uint256"
        }
      ],
      "name": "ownerOf",
      "outputs": [
        {
          "internalType": "address",
          "name": "",
          "type": "address"
        }
      ],
      "stateMutability": "view",
      "type": "function"
    },
    {
      "inputs": [
        {
          "internalType": "address",
          "name": "from",
          "type": "address"
        },
        {
          "internalType": "address",
          "name": "to",
          "type": "address"
        },
        {
          "internalType": "uint256",
          "name": "tokenId",
          "type": "uint256"
        }
      ],
      "name": "safeTransferFrom",
      "outputs": [],
      "stateMutability": "nonpayable",
      "type": "function"
    },
    {
      "inputs": [
        {
          "internalType": "address",
          "name": "from",
          "type": "address"
        },
        {
          "internalType": "address",
          "name": "to",
          "type": "address"
        },
        {
          "internalType": "uint256",
          "name": "tokenId",
          "type": "uint256"
        },
        {
          "internalType": "bytes",
          "name": "_data",
          "type": "bytes"
        }
      ],
      "name": "safeTransferFrom",
      "outputs": [],
      "stateMutability": "nonpayable",
      "type": "function"
    },
    {
      "inputs": [
        {
          "internalType": "address",
          "name": "operator",
          "type": "address"
        },
        {
          "internalType": "bool",
          "name": "approved",
          "type": "bool"
        }
      ],
      "name": "setApprovalForAll",
      "outputs": [],
      "stateMutability": "nonpayable",
      "type": "function"
    },
    {
      "inputs": [
        {
          "internalType": "string",
          "name": "_nftImageURI",
          "type": "string"
        }
      ],
      "name": "setNewTokenURI",
      "outputs": [],
      "stateMutability": "nonpayable",
      "type": "function"
    },
    {
      "inputs": [
        {
          "internalType": "bytes4",
          "name": "interfaceId",
          "type": "bytes4"
        }
      ],
      "name": "supportsInterface",
      "outputs": [
        {
          "internalType": "bool",
          "name": "",
          "type": "bool"
        }
      ],
      "stateMutability": "view",
      "type": "function"
    },
    {
      "inputs": [],
      "name": "symbol",
      "outputs": [
        {
          "internalType": "string",
          "name": "",
          "type": "string"
        }
      ],
      "stateMutability": "view",
      "type": "function"
    },
    {
      "inputs": [
        {
          "internalType": "uint256",
          "name": "tokenId",
          "type": "uint256"
        }
      ],
      "name": "tokenURI",
      "outputs": [
        {
          "internalType": "string",
          "name": "",
          "type": "string"
        }
      ],
      "stateMutability": "view",
      "type": "function"
    },
    {
      "inputs": [
        {
          "internalType": "address",
          "name": "from",
          "type": "address"
        },
        {
          "internalType": "address",
          "name": "to",
          "type": "address"
        },
        {
          "internalType": "uint256",
          "name": "tokenId",
          "type": "uint256"
        }
      ],
      "name": "transferFrom",
      "outputs": [],
      "stateMutability": "nonpayable",
      "type": "function"
    }
  ],
  "bytecode": "0x60806040526040518060400160405280600581526020017f574f4f46590000000000000000000000000000000000000000000000000000008152506040518060400160405280600381526020017f5746590000000000000000000000000000000000000000000000000000000000815250816000908051906020019062000088929190620000d7565b508060019080519060200190620000a1929190620000d7565b505050620000bb6007620000c160201b62000fd61760201c565b620001ec565b6001816000016000828254019250508190555050565b828054620000e59062000187565b90600052602060002090601f01602090048101928262000109576000855562000155565b82601f106200012457805160ff191683800117855562000155565b8280016001018555821562000155579182015b828111156200015457825182559160200191906001019062000137565b5b50905062000164919062000168565b5090565b5b808211156200018357600081600090555060010162000169565b5090565b60006002820490506001821680620001a057607f821691505b60208210811415620001b757620001b6620001bd565b5b50919050565b7f4e487b7100000000000000000000000000000000000000000000000000000000600052602260045260246000fd5b61373c80620001fc6000396000f3fe6080604052600436106100f35760003560e01c806370a082311161008a578063b88d4fde11610059578063b88d4fde1461031b578063c87b56dd14610344578063e5af0e8914610381578063e985e9c5146103aa576100f3565b806370a08231146102805780638a97ec2a146102bd57806395d89b41146102c7578063a22cb465146102f2576100f3565b806323b872dd116100c657806323b872dd146101c657806342842e0e146101ef57806358c57ac7146102185780636352211e14610243576100f3565b806301ffc9a7146100f857806306fdde0314610135578063081812fc14610160578063095ea7b31461019d575b600080fd5b34801561010457600080fd5b5061011f600480360381019061011a91906122ce565b6103e7565b60405161012c9190612838565b60405180910390f35b34801561014157600080fd5b5061014a6104c9565b6040516101579190612853565b60405180910390f35b34801561016c57600080fd5b5061018760048036038101906101829190612361565b61055b565b60405161019491906127d1565b60405180910390f35b3480156101a957600080fd5b506101c460048036038101906101bf9190612292565b6105e0565b005b3480156101d257600080fd5b506101ed60048036038101906101e8919061218c565b6106f8565b005b3480156101fb57600080fd5b506102166004803603810190610211919061218c565b610758565b005b34801561022457600080fd5b5061022d610778565b60405161023a9190612ad5565b60405180910390f35b34801561024f57600080fd5b5061026a60048036038101906102659190612361565b6107c2565b60405161027791906127d1565b60405180910390f35b34801561028c57600080fd5b506102a760048036038101906102a29190612127565b610874565b6040516102b49190612ad5565b60405180910390f35b6102c561092c565b005b3480156102d357600080fd5b506102dc610b18565b6040516102e99190612853565b60405180910390f35b3480156102fe57600080fd5b5061031960048036038101906103149190612256565b610baa565b005b34801561032757600080fd5b50610342600480360381019061033d91906121db565b610bc0565b005b34801561035057600080fd5b5061036b60048036038101906103669190612361565b610c22565b6040516103789190612853565b60405180910390f35b34801561038d57600080fd5b506103a860048036038101906103a39190612320565b610d74565b005b3480156103b657600080fd5b506103d160048036038101906103cc9190612150565b610f42565b6040516103de9190612838565b60405180910390f35b60007f80ac58cd000000000000000000000000000000000000000000000000000000007bffffffffffffffffffffffffffffffffffffffffffffffffffffffff1916827bffffffffffffffffffffffffffffffffffffffffffffffffffffffff191614806104b257507f5b5e139f000000000000000000000000000000000000000000000000000000007bffffffffffffffffffffffffffffffffffffffffffffffffffffffff1916827bffffffffffffffffffffffffffffffffffffffffffffffffffffffff1916145b806104c257506104c182610fec565b5b9050919050565b6060600080546104d890612d85565b80601f016020809104026020016040519081016040528092919081815260200182805461050490612d85565b80156105515780601f1061052657610100808354040283529160200191610551565b820191906000526020600020905b81548152906001019060200180831161053457829003601f168201915b5050505050905090565b600061056682611056565b6105a5576040517f08c379a000000000000000000000000000000000000000000000000000000000815260040161059c90612a55565b60405180910390fd5b6004600083815260200190815260200160002060009054906101000a900473ffffffffffffffffffffffffffffffffffffffff169050919050565b60006105eb826107c2565b90508073ffffffffffffffffffffffffffffffffffffffff168373ffffffffffffffffffffffffffffffffffffffff16141561065c576040517f08c379a000000000000000000000000000000000000000000000000000000000815260040161065390612a95565b60405180910390fd5b8073ffffffffffffffffffffffffffffffffffffffff1661067b6110c2565b73ffffffffffffffffffffffffffffffffffffffff1614806106aa57506106a9816106a46110c2565b610f42565b5b6106e9576040517f08c379a00000000000000000000000000000000000000000000000000000000081526004016106e090612955565b60405180910390fd5b6106f383836110ca565b505050565b6107096107036110c2565b82611183565b610748576040517f08c379a000000000000000000000000000000000000000000000000000000000815260040161073f90612ab5565b60405180910390fd5b610753838383611261565b505050565b61077383838360405180602001604052806000815250610bc0565b505050565b6000600860003373ffffffffffffffffffffffffffffffffffffffff1673ffffffffffffffffffffffffffffffffffffffff16815260200190815260200160002060000154905090565b6000806002600084815260200190815260200160002060009054906101000a900473ffffffffffffffffffffffffffffffffffffffff169050600073ffffffffffffffffffffffffffffffffffffffff168173ffffffffffffffffffffffffffffffffffffffff16141561086b576040517f08c379a0000000000000000000000000000000000000000000000000000000008152600401610862906129d5565b60405180910390fd5b80915050919050565b60008073ffffffffffffffffffffffffffffffffffffffff168273ffffffffffffffffffffffffffffffffffffffff1614156108e5576040517f08c379a00000000000000000000000000000000000000000000000000000000081526004016108dc906129b5565b60405180910390fd5b600360008373ffffffffffffffffffffffffffffffffffffffff1673ffffffffffffffffffffffffffffffffffffffff168152602001908152602001600020549050919050565b66038d7ea4c6800034146109676040518060600160405280602381526020016136e46023913961096266038d7ea4c680006114c8565b611675565b906109a8576040517f08c379a000000000000000000000000000000000000000000000000000000000815260040161099f9190612853565b60405180910390fd5b506000600860003373ffffffffffffffffffffffffffffffffffffffff1673ffffffffffffffffffffffffffffffffffffffff168152602001908152602001600020600001541480610a495750610384600860003373ffffffffffffffffffffffffffffffffffffffff1673ffffffffffffffffffffffffffffffffffffffff1681526020019081526020016000206001015442610a469190612c9b565b10155b610a88576040517f08c379a0000000000000000000000000000000000000000000000000000000008152600401610a7f906128d5565b60405180910390fd5b6000610a9460076116a1565b9050610aa033826116af565b604051806040016040528082815260200142815250600860003373ffffffffffffffffffffffffffffffffffffffff1673ffffffffffffffffffffffffffffffffffffffff1681526020019081526020016000206000820151816000015560208201518160010155905050610b156007610fd6565b50565b606060018054610b2790612d85565b80601f0160208091040260200160405190810160405280929190818152602001828054610b5390612d85565b8015610ba05780601f10610b7557610100808354040283529160200191610ba0565b820191906000526020600020905b815481529060010190602001808311610b8357829003601f168201915b5050505050905090565b610bbc610bb56110c2565b83836116cd565b5050565b610bd1610bcb6110c2565b83611183565b610c10576040517f08c379a0000000000000000000000000000000000000000000000000000000008152600401610c0790612ab5565b60405180910390fd5b610c1c8484848461183a565b50505050565b6060610c2d82611056565b610c6c576040517f08c379a0000000000000000000000000000000000000000000000000000000008152600401610c6390612a35565b60405180910390fd5b6000600660008481526020019081526020016000208054610c8c90612d85565b80601f0160208091040260200160405190810160405280929190818152602001828054610cb890612d85565b8015610d055780601f10610cda57610100808354040283529160200191610d05565b820191906000526020600020905b815481529060010190602001808311610ce857829003601f168201915b505050505090506000610d16611896565b9050600081511415610d2c578192505050610d6f565b600082511115610d61578082604051602001610d4992919061275e565b60405160208183030381529060405292505050610d6f565b610d6a846118ad565b925050505b919050565b6000600860003373ffffffffffffffffffffffffffffffffffffffff1673ffffffffffffffffffffffffffffffffffffffff1681526020019081526020016000206000015490506000811415610dff576040517f08c379a0000000000000000000000000000000000000000000000000000000008152600401610df690612995565b60405180910390fd5b610384600860003373ffffffffffffffffffffffffffffffffffffffff1673ffffffffffffffffffffffffffffffffffffffff1681526020019081526020016000206001015442610e509190612c9b565b10610e90576040517f08c379a0000000000000000000000000000000000000000000000000000000008152600401610e8790612975565b60405180910390fd5b6000610eba83604051602001610ea69190612782565b604051602081830303815290604052611954565b9050600081604051602001610ecf91906127af565b6040516020818303038152906040529050610eea8382611ade565b600860003373ffffffffffffffffffffffffffffffffffffffff1673ffffffffffffffffffffffffffffffffffffffff1681526020019081526020016000206000808201600090556001820160009055505050505050565b6000600560008473ffffffffffffffffffffffffffffffffffffffff1673ffffffffffffffffffffffffffffffffffffffff16815260200190815260200160002060008373ffffffffffffffffffffffffffffffffffffffff1673ffffffffffffffffffffffffffffffffffffffff16815260200190815260200160002060009054906101000a900460ff16905092915050565b6001816000016000828254019250508190555050565b60007f01ffc9a7000000000000000000000000000000000000000000000000000000007bffffffffffffffffffffffffffffffffffffffffffffffffffffffff1916827bffffffffffffffffffffffffffffffffffffffffffffffffffffffff1916149050919050565b60008073ffffffffffffffffffffffffffffffffffffffff166002600084815260200190815260200160002060009054906101000a900473ffffffffffffffffffffffffffffffffffffffff1673ffffffffffffffffffffffffffffffffffffffff1614159050919050565b600033905090565b816004600083815260200190815260200160002060006101000a81548173ffffffffffffffffffffffffffffffffffffffff021916908373ffffffffffffffffffffffffffffffffffffffff160217905550808273ffffffffffffffffffffffffffffffffffffffff1661113d836107c2565b73ffffffffffffffffffffffffffffffffffffffff167f8c5be1e5ebec7d5bd14f71427d1e84f3dd0314c0f7b2291e5b200ac8c7c3b92560405160405180910390a45050565b600061118e82611056565b6111cd576040517f08c379a00000000000000000000000000000000000000000000000000000000081526004016111c490612935565b60405180910390fd5b60006111d8836107c2565b90508073ffffffffffffffffffffffffffffffffffffffff168473ffffffffffffffffffffffffffffffffffffffff16148061124757508373ffffffffffffffffffffffffffffffffffffffff1661122f8461055b565b73ffffffffffffffffffffffffffffffffffffffff16145b8061125857506112578185610f42565b5b91505092915050565b8273ffffffffffffffffffffffffffffffffffffffff16611281826107c2565b73ffffffffffffffffffffffffffffffffffffffff16146112d7576040517f08c379a00000000000000000000000000000000000000000000000000000000081526004016112ce90612895565b60405180910390fd5b600073ffffffffffffffffffffffffffffffffffffffff168273ffffffffffffffffffffffffffffffffffffffff161415611347576040517f08c379a000000000000000000000000000000000000000000000000000000000815260040161133e906128f5565b60405180910390fd5b611352838383611b52565b61135d6000826110ca565b6001600360008573ffffffffffffffffffffffffffffffffffffffff1673ffffffffffffffffffffffffffffffffffffffff16815260200190815260200160002060008282546113ad9190612c9b565b925050819055506001600360008473ffffffffffffffffffffffffffffffffffffffff1673ffffffffffffffffffffffffffffffffffffffff16815260200190815260200160002060008282546114049190612bba565b92505081905550816002600083815260200190815260200160002060006101000a81548173ffffffffffffffffffffffffffffffffffffffff021916908373ffffffffffffffffffffffffffffffffffffffff160217905550808273ffffffffffffffffffffffffffffffffffffffff168473ffffffffffffffffffffffffffffffffffffffff167fddf252ad1be2c89b69c2b068fc378daa952ba7f163c4a11628f55a4df523b3ef60405160405180910390a46114c3838383611b57565b505050565b60606000821415611510576040518060400160405280600181526020017f30000000000000000000000000000000000000000000000000000000000000008152509050611670565b600082905060005b6000821461154257808061152b90612de8565b915050600a8261153b9190612c10565b9150611518565b60008167ffffffffffffffff811115611584577f4e487b7100000000000000000000000000000000000000000000000000000000600052604160045260246000fd5b6040519080825280601f01601f1916602001820160405280156115b65781602001600182028036833780820191505090505b5090505b60008514611669576001826115cf9190612c9b565b9150600a856115de9190612e31565b60306115ea9190612bba565b60f81b818381518110611626577f4e487b7100000000000000000000000000000000000000000000000000000000600052603260045260246000fd5b60200101907effffffffffffffffffffffffffffffffffffffffffffffffffffffffffffff1916908160001a905350600a856116629190612c10565b94506115ba565b8093505050505b919050565b6060828260405160200161168a92919061275e565b604051602081830303815290604052905092915050565b600081600001549050919050565b6116c9828260405180602001604052806000815250611b5c565b5050565b8173ffffffffffffffffffffffffffffffffffffffff168373ffffffffffffffffffffffffffffffffffffffff16141561173c576040517f08c379a000000000000000000000000000000000000000000000000000000000815260040161173390612915565b60405180910390fd5b80600560008573ffffffffffffffffffffffffffffffffffffffff1673ffffffffffffffffffffffffffffffffffffffff16815260200190815260200160002060008473ffffffffffffffffffffffffffffffffffffffff1673ffffffffffffffffffffffffffffffffffffffff16815260200190815260200160002060006101000a81548160ff0219169083151502179055508173ffffffffffffffffffffffffffffffffffffffff168373ffffffffffffffffffffffffffffffffffffffff167f17307eab39ab6107e8899845ad3d59bd9653f200f220920489ca2b5937696c318360405161182d9190612838565b60405180910390a3505050565b611845848484611261565b61185184848484611bb7565b611890576040517f08c379a000000000000000000000000000000000000000000000000000000000815260040161188790612875565b60405180910390fd5b50505050565b606060405180602001604052806000815250905090565b60606118b882611056565b6118f7576040517f08c379a00000000000000000000000000000000000000000000000000000000081526004016118ee90612a75565b60405180910390fd5b6000611901611896565b90506000815111611921576040518060200160405280600081525061194c565b8061192b846114c8565b60405160200161193c92919061275e565b6040516020818303038152906040525b915050919050565b606060008251141561197757604051806020016040528060008152509050611ad9565b60006040518060600160405280604081526020016136a460409139905060006003600285516119a69190612bba565b6119b09190612c10565b60046119bc9190612c41565b67ffffffffffffffff8111156119fb577f4e487b7100000000000000000000000000000000000000000000000000000000600052604160045260246000fd5b6040519080825280601f01601f191660200182016040528015611a2d5781602001600182028036833780820191505090505b509050600182016020820185865187015b80821015611a99576003820191508151603f8160121c168501518453600184019350603f81600c1c168501518453600184019350603f8160061c168501518453600184019350603f8116850151845360018401935050611a3e565b5050600386510660018114611ab55760028114611ac857611ad0565b603d6001830353603d6002830353611ad0565b603d60018303535b50505080925050505b919050565b611ae782611056565b611b26576040517f08c379a0000000000000000000000000000000000000000000000000000000008152600401611b1d906129f5565b60405180910390fd5b80600660008481526020019081526020016000209080519060200190611b4d929190611f4b565b505050565b505050565b505050565b611b668383611d4e565b611b736000848484611bb7565b611bb2576040517f08c379a0000000000000000000000000000000000000000000000000000000008152600401611ba990612875565b60405180910390fd5b505050565b6000611bd88473ffffffffffffffffffffffffffffffffffffffff16611f28565b15611d41578373ffffffffffffffffffffffffffffffffffffffff1663150b7a02611c016110c2565b8786866040518563ffffffff1660e01b8152600401611c2394939291906127ec565b602060405180830381600087803b158015611c3d57600080fd5b505af1925050508015611c6e57506040513d601f19601f82011682018060405250810190611c6b91906122f7565b60015b611cf1573d8060008114611c9e576040519150601f19603f3d011682016040523d82523d6000602084013e611ca3565b606091505b50600081511415611ce9576040517f08c379a0000000000000000000000000000000000000000000000000000000008152600401611ce090612875565b60405180910390fd5b805181602001fd5b63150b7a0260e01b7bffffffffffffffffffffffffffffffffffffffffffffffffffffffff1916817bffffffffffffffffffffffffffffffffffffffffffffffffffffffff191614915050611d46565b600190505b949350505050565b600073ffffffffffffffffffffffffffffffffffffffff168273ffffffffffffffffffffffffffffffffffffffff161415611dbe576040517f08c379a0000000000000000000000000000000000000000000000000000000008152600401611db590612a15565b60405180910390fd5b611dc781611056565b15611e07576040517f08c379a0000000000000000000000000000000000000000000000000000000008152600401611dfe906128b5565b60405180910390fd5b611e1360008383611b52565b6001600360008473ffffffffffffffffffffffffffffffffffffffff1673ffffffffffffffffffffffffffffffffffffffff1681526020019081526020016000206000828254611e639190612bba565b92505081905550816002600083815260200190815260200160002060006101000a81548173ffffffffffffffffffffffffffffffffffffffff021916908373ffffffffffffffffffffffffffffffffffffffff160217905550808273ffffffffffffffffffffffffffffffffffffffff16600073ffffffffffffffffffffffffffffffffffffffff167fddf252ad1be2c89b69c2b068fc378daa952ba7f163c4a11628f55a4df523b3ef60405160405180910390a4611f2460008383611b57565b5050565b6000808273ffffffffffffffffffffffffffffffffffffffff163b119050919050565b828054611f5790612d85565b90600052602060002090601f016020900481019282611f795760008555611fc0565b82601f10611f9257805160ff1916838001178555611fc0565b82800160010185558215611fc0579182015b82811115611fbf578251825591602001919060010190611fa4565b5b509050611fcd9190611fd1565b5090565b5b80821115611fea576000816000905550600101611fd2565b5090565b6000612001611ffc84612b15565b612af0565b90508281526020810184848401111561201957600080fd5b612024848285612d43565b509392505050565b600061203f61203a84612b46565b612af0565b90508281526020810184848401111561205757600080fd5b612062848285612d43565b509392505050565b60008135905061207981613647565b92915050565b60008135905061208e8161365e565b92915050565b6000813590506120a381613675565b92915050565b6000815190506120b881613675565b92915050565b600082601f8301126120cf57600080fd5b81356120df848260208601611fee565b91505092915050565b600082601f8301126120f957600080fd5b813561210984826020860161202c565b91505092915050565b6000813590506121218161368c565b92915050565b60006020828403121561213957600080fd5b60006121478482850161206a565b91505092915050565b6000806040838503121561216357600080fd5b60006121718582860161206a565b92505060206121828582860161206a565b9150509250929050565b6000806000606084860312156121a157600080fd5b60006121af8682870161206a565b93505060206121c08682870161206a565b92505060406121d186828701612112565b9150509250925092565b600080600080608085870312156121f157600080fd5b60006121ff8782880161206a565b94505060206122108782880161206a565b935050604061222187828801612112565b925050606085013567ffffffffffffffff81111561223e57600080fd5b61224a878288016120be565b91505092959194509250565b6000806040838503121561226957600080fd5b60006122778582860161206a565b92505060206122888582860161207f565b9150509250929050565b600080604083850312156122a557600080fd5b60006122b38582860161206a565b92505060206122c485828601612112565b9150509250929050565b6000602082840312156122e057600080fd5b60006122ee84828501612094565b91505092915050565b60006020828403121561230957600080fd5b6000612317848285016120a9565b91505092915050565b60006020828403121561233257600080fd5b600082013567ffffffffffffffff81111561234c57600080fd5b612358848285016120e8565b91505092915050565b60006020828403121561237357600080fd5b600061238184828501612112565b91505092915050565b61239381612ccf565b82525050565b6123a281612ce1565b82525050565b60006123b382612b77565b6123bd8185612b8d565b93506123cd818560208601612d52565b6123d681612f1e565b840191505092915050565b60006123ec82612b82565b6123f68185612b9e565b9350612406818560208601612d52565b61240f81612f1e565b840191505092915050565b600061242582612b82565b61242f8185612baf565b935061243f818560208601612d52565b80840191505092915050565b6000612458603283612b9e565b915061246382612f2f565b604082019050919050565b600061247c61013883612baf565b915061248782612f7e565b61013882019050919050565b60006124a0602583612b9e565b91506124ab826130ff565b604082019050919050565b60006124c3601c83612b9e565b91506124ce8261314e565b602082019050919050565b60006124e6602f83612b9e565b91506124f182613177565b604082019050919050565b6000612509602483612b9e565b9150612514826131c6565b604082019050919050565b600061252c601983612b9e565b915061253782613215565b602082019050919050565b600061254f602c83612b9e565b915061255a8261323e565b604082019050919050565b6000612572603883612b9e565b915061257d8261328d565b604082019050919050565b6000612595601a83612b9e565b91506125a0826132dc565b602082019050919050565b60006125b8603483612b9e565b91506125c382613305565b604082019050919050565b60006125db602a83612b9e565b91506125e682613354565b604082019050919050565b60006125fe602983612b9e565b9150612609826133a3565b604082019050919050565b6000612621602e83612b9e565b915061262c826133f2565b604082019050919050565b6000612644600283612baf565b915061264f82613441565b600282019050919050565b6000612667602083612b9e565b91506126728261346a565b602082019050919050565b600061268a603183612b9e565b915061269582613493565b604082019050919050565b60006126ad602c83612b9e565b91506126b8826134e2565b604082019050919050565b60006126d0602f83612b9e565b91506126db82613531565b604082019050919050565b60006126f3602183612b9e565b91506126fe82613580565b604082019050919050565b6000612716601d83612baf565b9150612721826135cf565b601d82019050919050565b6000612739603183612b9e565b9150612744826135f8565b604082019050919050565b61275881612d39565b82525050565b600061276a828561241a565b9150612776828461241a565b91508190509392505050565b600061278d8261246e565b9150612799828461241a565b91506127a482612637565b915081905092915050565b60006127ba82612709565b91506127c6828461241a565b915081905092915050565b60006020820190506127e6600083018461238a565b92915050565b6000608082019050612801600083018761238a565b61280e602083018661238a565b61281b604083018561274f565b818103606083015261282d81846123a8565b905095945050505050565b600060208201905061284d6000830184612399565b92915050565b6000602082019050818103600083015261286d81846123e1565b905092915050565b6000602082019050818103600083015261288e8161244b565b9050919050565b600060208201905081810360008301526128ae81612493565b9050919050565b600060208201905081810360008301526128ce816124b6565b9050919050565b600060208201905081810360008301526128ee816124d9565b9050919050565b6000602082019050818103600083015261290e816124fc565b9050919050565b6000602082019050818103600083015261292e8161251f565b9050919050565b6000602082019050818103600083015261294e81612542565b9050919050565b6000602082019050818103600083015261296e81612565565b9050919050565b6000602082019050818103600083015261298e81612588565b9050919050565b600060208201905081810360008301526129ae816125ab565b9050919050565b600060208201905081810360008301526129ce816125ce565b9050919050565b600060208201905081810360008301526129ee816125f1565b9050919050565b60006020820190508181036000830152612a0e81612614565b9050919050565b60006020820190508181036000830152612a2e8161265a565b9050919050565b60006020820190508181036000830152612a4e8161267d565b9050919050565b60006020820190508181036000830152612a6e816126a0565b9050919050565b60006020820190508181036000830152612a8e816126c3565b9050919050565b60006020820190508181036000830152612aae816126e6565b9050919050565b60006020820190508181036000830152612ace8161272c565b9050919050565b6000602082019050612aea600083018461274f565b92915050565b6000612afa612b0b565b9050612b068282612db7565b919050565b6000604051905090565b600067ffffffffffffffff821115612b3057612b2f612eef565b5b612b3982612f1e565b9050602081019050919050565b600067ffffffffffffffff821115612b6157612b60612eef565b5b612b6a82612f1e565b9050602081019050919050565b600081519050919050565b600081519050919050565b600082825260208201905092915050565b600082825260208201905092915050565b600081905092915050565b6000612bc582612d39565b9150612bd083612d39565b9250827fffffffffffffffffffffffffffffffffffffffffffffffffffffffffffffffff03821115612c0557612c04612e62565b5b828201905092915050565b6000612c1b82612d39565b9150612c2683612d39565b925082612c3657612c35612e91565b5b828204905092915050565b6000612c4c82612d39565b9150612c5783612d39565b9250817fffffffffffffffffffffffffffffffffffffffffffffffffffffffffffffffff0483118215151615612c9057612c8f612e62565b5b828202905092915050565b6000612ca682612d39565b9150612cb183612d39565b925082821015612cc457612cc3612e62565b5b828203905092915050565b6000612cda82612d19565b9050919050565b60008115159050919050565b60007fffffffff0000000000000000000000000000000000000000000000000000000082169050919050565b600073ffffffffffffffffffffffffffffffffffffffff82169050919050565b6000819050919050565b82818337600083830152505050565b60005b83811015612d70578082015181840152602081019050612d55565b83811115612d7f576000848401525b50505050565b60006002820490506001821680612d9d57607f821691505b60208210811415612db157612db0612ec0565b5b50919050565b612dc082612f1e565b810181811067ffffffffffffffff82111715612ddf57612dde612eef565b5b80604052505050565b6000612df382612d39565b91507fffffffffffffffffffffffffffffffffffffffffffffffffffffffffffffffff821415612e2657612e25612e62565b5b600182019050919050565b6000612e3c82612d39565b9150612e4783612d39565b925082612e5757612e56612e91565b5b828206905092915050565b7f4e487b7100000000000000000000000000000000000000000000000000000000600052601160045260246000fd5b7f4e487b7100000000000000000000000000000000000000000000000000000000600052601260045260246000fd5b7f4e487b7100000000000000000000000000000000000000000000000000000000600052602260045260246000fd5b7f4e487b7100000000000000000000000000000000000000000000000000000000600052604160045260246000fd5b6000601f19601f8301169050919050565b7f4552433732313a207472616e7366657220746f206e6f6e20455243373231526560008201527f63656976657220696d706c656d656e7465720000000000000000000000000000602082015250565b7f7b226e616d65223a22576f6f6679222c226465736372697074696f6e223a225760008201527f6f6f66792069732061206375746520646f672c206c696b657320746f20706c6160208201527f792073757065726865726f20696e206120636170652e2045616368204e46542060408201527f6f662068696d206973206d61726b65642077697468206120756e69717565206e60608201527f756d6265722e2047657420796f75727320746f6461792121222c22617474726960808201527f6275746573223a5b7b2274726169745f74797065223a22437574656e6573732260a08201527f2c2276616c7565223a3130302c22646973706c61795f74797065223a22626f6f60c08201527f73745f6e756d626572227d2c7b2274726169745f74797065223a224865726f6960e08201527f736d222c2276616c7565223a37352c22646973706c61795f74797065223a22626101008201527f6f6f73745f6e756d626572227d5d2c22696d616765223a22000000000000000061012082015250565b7f4552433732313a207472616e736665722066726f6d20696e636f72726563742060008201527f6f776e6572000000000000000000000000000000000000000000000000000000602082015250565b7f4552433732313a20746f6b656e20616c7265616479206d696e74656400000000600082015250565b7f5349474e45522048415320412050454e44494e47204e4654212057414954494e60008201527f4720464f5220434f4f4c444f574e2e0000000000000000000000000000000000602082015250565b7f4552433732313a207472616e7366657220746f20746865207a65726f2061646460008201527f7265737300000000000000000000000000000000000000000000000000000000602082015250565b7f4552433732313a20617070726f766520746f2063616c6c657200000000000000600082015250565b7f4552433732313a206f70657261746f7220717565727920666f72206e6f6e657860008201527f697374656e7420746f6b656e0000000000000000000000000000000000000000602082015250565b7f4552433732313a20617070726f76652063616c6c6572206973206e6f74206f7760008201527f6e6572206e6f7220617070726f76656420666f7220616c6c0000000000000000602082015250565b7f5349474e455220484153204e4f2050454e44494e47204e465421000000000000600082015250565b7f5349474e455220444f4553204e4f5420484156452041204e45574c59204d494e60008201527f5445442c20494e434f4d504c455445204e465421000000000000000000000000602082015250565b7f4552433732313a2062616c616e636520717565727920666f7220746865207a6560008201527f726f206164647265737300000000000000000000000000000000000000000000602082015250565b7f4552433732313a206f776e657220717565727920666f72206e6f6e657869737460008201527f656e7420746f6b656e0000000000000000000000000000000000000000000000602082015250565b7f45524337323155524953746f726167653a2055524920736574206f66206e6f6e60008201527f6578697374656e7420746f6b656e000000000000000000000000000000000000602082015250565b7f227d000000000000000000000000000000000000000000000000000000000000600082015250565b7f4552433732313a206d696e7420746f20746865207a65726f2061646472657373600082015250565b7f45524337323155524953746f726167653a2055524920717565727920666f722060008201527f6e6f6e6578697374656e7420746f6b656e000000000000000000000000000000602082015250565b7f4552433732313a20617070726f76656420717565727920666f72206e6f6e657860008201527f697374656e7420746f6b656e0000000000000000000000000000000000000000602082015250565b7f4552433732314d657461646174613a2055524920717565727920666f72206e6f60008201527f6e6578697374656e7420746f6b656e0000000000000000000000000000000000602082015250565b7f4552433732313a20617070726f76616c20746f2063757272656e74206f776e6560008201527f7200000000000000000000000000000000000000000000000000000000000000602082015250565b7f646174613a6170706c69636174696f6e2f6a736f6e3b6261736536342c000000600082015250565b7f4552433732313a207472616e736665722063616c6c6572206973206e6f74206f60008201527f776e6572206e6f7220617070726f766564000000000000000000000000000000602082015250565b61365081612ccf565b811461365b57600080fd5b50565b61366781612ce1565b811461367257600080fd5b50565b61367e81612ced565b811461368957600080fd5b50565b61369581612d39565b81146136a057600080fd5b5056fe4142434445464748494a4b4c4d4e4f505152535455565758595a6162636465666768696a6b6c6d6e6f707172737475767778797a303132333435363738392b2f494e434f525245435420414d4f554e54204f46205745492053454e54212053454e4420a264697066735822122017261885336aecd95d06205400fab13cf52459a783d0c82b017efdbd14eb06ff64736f6c63430008040033",
  "linkReferences": {},
  "deployedLinkReferences": {}
}