{
  "_format": "hh-sol-artifact-1",
  "contractName": "Woofy",
  "sourceName": "contracts/Woofy.sol",
  "abi": [
    {
      "inputs": [],
      "stateMutability": "payable",
      "type": "constructor"
    },
    {
      "anonymous": false,
      "inputs": [
        {
          "indexed": true,
          "internalType": "address",
          "name": "owner",
          "type": "address"
        },
        {
          "indexed": true,
          "internalType": "address",
          "name": "approved",
          "type": "address"
        },
        {
          "indexed": true,
          "internalType": "uint256",
          "name": "tokenId",
          "type": "uint256"
        }
      ],
      "name": "Approval",
      "type": "event"
    },
    {
      "anonymous": false,
      "inputs": [
        {
          "indexed": true,
          "internalType": "address",
          "name": "owner",
          "type": "address"
        },
        {
          "indexed": true,
          "internalType": "address",
          "name": "operator",
          "type": "address"
        },
        {
          "indexed": false,
          "internalType": "bool",
          "name": "approved",
          "type": "bool"
        }
      ],
      "name": "ApprovalForAll",
      "type": "event"
    },
    {
      "anonymous": false,
      "inputs": [
        {
          "indexed": true,
          "internalType": "address",
          "name": "from",
          "type": "address"
        },
        {
          "indexed": true,
          "internalType": "address",
          "name": "to",
          "type": "address"
        },
        {
          "indexed": true,
          "internalType": "uint256",
          "name": "tokenId",
          "type": "uint256"
        }
      ],
      "name": "Transfer",
      "type": "event"
    },
    {
      "inputs": [
        {
          "internalType": "address",
          "name": "to",
          "type": "address"
        },
        {
          "internalType": "uint256",
          "name": "tokenId",
          "type": "uint256"
        }
      ],
      "name": "approve",
      "outputs": [],
      "stateMutability": "nonpayable",
      "type": "function"
    },
    {
      "inputs": [
        {
          "internalType": "address",
          "name": "owner",
          "type": "address"
        }
      ],
      "name": "balanceOf",
      "outputs": [
        {
          "internalType": "uint256",
          "name": "",
          "type": "uint256"
        }
      ],
      "stateMutability": "view",
      "type": "function"
    },
    {
      "inputs": [],
      "name": "createNFT",
      "outputs": [],
      "stateMutability": "payable",
      "type": "function"
    },
    {
      "inputs": [],
      "name": "getAllNftsOwned",
      "outputs": [
        {
          "components": [
            {
              "internalType": "uint256",
              "name": "tokenID",
              "type": "uint256"
            },
            {
              "internalType": "string",
              "name": "tokenURI",
              "type": "string"
            }
          ],
          "internalType": "struct NFT[]",
          "name": "",
          "type": "tuple[]"
        }
      ],
      "stateMutability": "view",
      "type": "function"
    },
    {
      "inputs": [
        {
          "internalType": "uint256",
          "name": "tokenId",
          "type": "uint256"
        }
      ],
      "name": "getApproved",
      "outputs": [
        {
          "internalType": "address",
          "name": "",
          "type": "address"
        }
      ],
      "stateMutability": "view",
      "type": "function"
    },
    {
      "inputs": [],
      "name": "getNewTokenId",
      "outputs": [
        {
          "internalType": "uint256",
          "name": "",
          "type": "uint256"
        }
      ],
      "stateMutability": "view",
      "type": "function"
    },
    {
      "inputs": [
        {
          "internalType": "address",
          "name": "owner",
          "type": "address"
        },
        {
          "internalType": "address",
          "name": "operator",
          "type": "address"
        }
      ],
      "name": "isApprovedForAll",
      "outputs": [
        {
          "internalType": "bool",
          "name": "",
          "type": "bool"
        }
      ],
      "stateMutability": "view",
      "type": "function"
    },
    {
      "inputs": [],
      "name": "name",
      "outputs": [
        {
          "internalType": "string",
          "name": "",
          "type": "string"
        }
      ],
      "stateMutability": "view",
      "type": "function"
    },
    {
      "inputs": [
        {
          "internalType": "uint256",
          "name": "tokenId",
          "type": "uint256"
        }
      ],
      "name": "ownerOf",
      "outputs": [
        {
          "internalType": "address",
          "name": "",
          "type": "address"
        }
      ],
      "stateMutability": "view",
      "type": "function"
    },
    {
      "inputs": [
        {
          "internalType": "address",
          "name": "from",
          "type": "address"
        },
        {
          "internalType": "address",
          "name": "to",
          "type": "address"
        },
        {
          "internalType": "uint256",
          "name": "tokenId",
          "type": "uint256"
        }
      ],
      "name": "safeTransferFrom",
      "outputs": [],
      "stateMutability": "nonpayable",
      "type": "function"
    },
    {
      "inputs": [
        {
          "internalType": "address",
          "name": "from",
          "type": "address"
        },
        {
          "internalType": "address",
          "name": "to",
          "type": "address"
        },
        {
          "internalType": "uint256",
          "name": "tokenId",
          "type": "uint256"
        },
        {
          "internalType": "bytes",
          "name": "_data",
          "type": "bytes"
        }
      ],
      "name": "safeTransferFrom",
      "outputs": [],
      "stateMutability": "nonpayable",
      "type": "function"
    },
    {
      "inputs": [
        {
          "internalType": "address",
          "name": "operator",
          "type": "address"
        },
        {
          "internalType": "bool",
          "name": "approved",
          "type": "bool"
        }
      ],
      "name": "setApprovalForAll",
      "outputs": [],
      "stateMutability": "nonpayable",
      "type": "function"
    },
    {
      "inputs": [
        {
          "internalType": "string",
          "name": "_nftImageURI",
          "type": "string"
        }
      ],
      "name": "setNewTokenURI",
      "outputs": [],
      "stateMutability": "nonpayable",
      "type": "function"
    },
    {
      "inputs": [
        {
          "internalType": "bytes4",
          "name": "interfaceId",
          "type": "bytes4"
        }
      ],
      "name": "supportsInterface",
      "outputs": [
        {
          "internalType": "bool",
          "name": "",
          "type": "bool"
        }
      ],
      "stateMutability": "view",
      "type": "function"
    },
    {
      "inputs": [],
      "name": "symbol",
      "outputs": [
        {
          "internalType": "string",
          "name": "",
          "type": "string"
        }
      ],
      "stateMutability": "view",
      "type": "function"
    },
    {
      "inputs": [
        {
          "internalType": "uint256",
          "name": "index",
          "type": "uint256"
        }
      ],
      "name": "tokenByIndex",
      "outputs": [
        {
          "internalType": "uint256",
          "name": "",
          "type": "uint256"
        }
      ],
      "stateMutability": "view",
      "type": "function"
    },
    {
      "inputs": [
        {
          "internalType": "address",
          "name": "owner",
          "type": "address"
        },
        {
          "internalType": "uint256",
          "name": "index",
          "type": "uint256"
        }
      ],
      "name": "tokenOfOwnerByIndex",
      "outputs": [
        {
          "internalType": "uint256",
          "name": "",
          "type": "uint256"
        }
      ],
      "stateMutability": "view",
      "type": "function"
    },
    {
      "inputs": [
        {
          "internalType": "uint256",
          "name": "tokenId",
          "type": "uint256"
        }
      ],
      "name": "tokenURI",
      "outputs": [
        {
          "internalType": "string",
          "name": "",
          "type": "string"
        }
      ],
      "stateMutability": "view",
      "type": "function"
    },
    {
      "inputs": [],
      "name": "totalSupply",
      "outputs": [
        {
          "internalType": "uint256",
          "name": "",
          "type": "uint256"
        }
      ],
      "stateMutability": "view",
      "type": "function"
    },
    {
      "inputs": [
        {
          "internalType": "address",
          "name": "from",
          "type": "address"
        },
        {
          "internalType": "address",
          "name": "to",
          "type": "address"
        },
        {
          "internalType": "uint256",
          "name": "tokenId",
          "type": "uint256"
        }
      ],
      "name": "transferFrom",
      "outputs": [],
      "stateMutability": "nonpayable",
      "type": "function"
    }
  ],
  "bytecode": "0x60806040526040518060400160405280600581526020017f574f4f46590000000000000000000000000000000000000000000000000000008152506040518060400160405280600381526020017f5746590000000000000000000000000000000000000000000000000000000000815250816000908051906020019062000088929190620000d7565b508060019080519060200190620000a1929190620000d7565b505050620000bb600b620000c160201b620011341760201c565b620001ec565b6001816000016000828254019250508190555050565b828054620000e59062000187565b90600052602060002090601f01602090048101928262000109576000855562000155565b82601f106200012457805160ff191683800117855562000155565b8280016001018555821562000155579182015b828111156200015457825182559160200191906001019062000137565b5b50905062000164919062000168565b5090565b5b808211156200018357600081600090555060010162000169565b5090565b60006002820490506001821680620001a057607f821691505b60208210811415620001b757620001b6620001bd565b5b50919050565b7f4e487b7100000000000000000000000000000000000000000000000000000000600052602260045260246000fd5b61429c80620001fc6000396000f3fe60806040526004361061011f5760003560e01c80636352211e116100a0578063b88d4fde11610064578063b88d4fde146103ec578063c87b56dd14610415578063e5af0e8914610452578063e985e9c51461047b578063f6cf0fd5146104b85761011f565b80636352211e1461031457806370a08231146103515780638a97ec2a1461038e57806395d89b4114610398578063a22cb465146103c35761011f565b806323b872dd116100e757806323b872dd1461021d5780632f745c591461024657806342842e0e146102835780634f6ccce7146102ac57806358c57ac7146102e95761011f565b806301ffc9a71461012457806306fdde0314610161578063081812fc1461018c578063095ea7b3146101c957806318160ddd146101f2575b600080fd5b34801561013057600080fd5b5061014b60048036038101906101469190612b90565b6104e3565b6040516101589190613270565b60405180910390f35b34801561016d57600080fd5b506101766104f5565b604051610183919061328b565b60405180910390f35b34801561019857600080fd5b506101b360048036038101906101ae9190612c23565b610587565b6040516101c091906131e7565b60405180910390f35b3480156101d557600080fd5b506101f060048036038101906101eb9190612b54565b61060c565b005b3480156101fe57600080fd5b50610207610724565b604051610214919061354d565b60405180910390f35b34801561022957600080fd5b50610244600480360381019061023f9190612a4e565b610731565b005b34801561025257600080fd5b5061026d60048036038101906102689190612b54565b610791565b60405161027a919061354d565b60405180910390f35b34801561028f57600080fd5b506102aa60048036038101906102a59190612a4e565b610836565b005b3480156102b857600080fd5b506102d360048036038101906102ce9190612c23565b610856565b6040516102e0919061354d565b60405180910390f35b3480156102f557600080fd5b506102fe6108ed565b60405161030b919061354d565b60405180910390f35b34801561032057600080fd5b5061033b60048036038101906103369190612c23565b610937565b60405161034891906131e7565b60405180910390f35b34801561035d57600080fd5b50610378600480360381019061037391906129e9565b6109e9565b604051610385919061354d565b60405180910390f35b610396610aa1565b005b3480156103a457600080fd5b506103ad610c8d565b6040516103ba919061328b565b60405180910390f35b3480156103cf57600080fd5b506103ea60048036038101906103e59190612b18565b610d1f565b005b3480156103f857600080fd5b50610413600480360381019061040e9190612a9d565b610d35565b005b34801561042157600080fd5b5061043c60048036038101906104379190612c23565b610d97565b604051610449919061328b565b60405180910390f35b34801561045e57600080fd5b5061047960048036038101906104749190612be2565b610da9565b005b34801561048757600080fd5b506104a2600480360381019061049d9190612a12565b610f77565b6040516104af9190613270565b60405180910390f35b3480156104c457600080fd5b506104cd61100b565b6040516104da919061324e565b60405180910390f35b60006104ee8261114a565b9050919050565b60606000805461050490613847565b80601f016020809104026020016040519081016040528092919081815260200182805461053090613847565b801561057d5780601f106105525761010080835404028352916020019161057d565b820191906000526020600020905b81548152906001019060200180831161056057829003601f168201915b5050505050905090565b6000610592826111c4565b6105d1576040517f08c379a00000000000000000000000000000000000000000000000000000000081526004016105c8906134ad565b60405180910390fd5b6004600083815260200190815260200160002060009054906101000a900473ffffffffffffffffffffffffffffffffffffffff169050919050565b600061061782610937565b90508073ffffffffffffffffffffffffffffffffffffffff168373ffffffffffffffffffffffffffffffffffffffff161415610688576040517f08c379a000000000000000000000000000000000000000000000000000000000815260040161067f906134ed565b60405180910390fd5b8073ffffffffffffffffffffffffffffffffffffffff166106a7611230565b73ffffffffffffffffffffffffffffffffffffffff1614806106d657506106d5816106d0611230565b610f77565b5b610715576040517f08c379a000000000000000000000000000000000000000000000000000000000815260040161070c906133ad565b60405180910390fd5b61071f8383611238565b505050565b6000600980549050905090565b61074261073c611230565b826112f1565b610781576040517f08c379a00000000000000000000000000000000000000000000000000000000081526004016107789061350d565b60405180910390fd5b61078c8383836113cf565b505050565b600061079c836109e9565b82106107dd576040517f08c379a00000000000000000000000000000000000000000000000000000000081526004016107d4906132ad565b60405180910390fd5b600760008473ffffffffffffffffffffffffffffffffffffffff1673ffffffffffffffffffffffffffffffffffffffff168152602001908152602001600020600083815260200190815260200160002054905092915050565b61085183838360405180602001604052806000815250610d35565b505050565b6000610860610724565b82106108a1576040517f08c379a00000000000000000000000000000000000000000000000000000000081526004016108989061352d565b60405180910390fd5b600982815481106108db577f4e487b7100000000000000000000000000000000000000000000000000000000600052603260045260246000fd5b90600052602060002001549050919050565b6000600c60003373ffffffffffffffffffffffffffffffffffffffff1673ffffffffffffffffffffffffffffffffffffffff16815260200190815260200160002060000154905090565b6000806002600084815260200190815260200160002060009054906101000a900473ffffffffffffffffffffffffffffffffffffffff169050600073ffffffffffffffffffffffffffffffffffffffff168173ffffffffffffffffffffffffffffffffffffffff1614156109e0576040517f08c379a00000000000000000000000000000000000000000000000000000000081526004016109d79061342d565b60405180910390fd5b80915050919050565b60008073ffffffffffffffffffffffffffffffffffffffff168273ffffffffffffffffffffffffffffffffffffffff161415610a5a576040517f08c379a0000000000000000000000000000000000000000000000000000000008152600401610a519061340d565b60405180910390fd5b600360008373ffffffffffffffffffffffffffffffffffffffff1673ffffffffffffffffffffffffffffffffffffffff168152602001908152602001600020549050919050565b66038d7ea4c680003414610adc60405180606001604052806023815260200161424460239139610ad766038d7ea4c68000611636565b6117e3565b90610b1d576040517f08c379a0000000000000000000000000000000000000000000000000000000008152600401610b14919061328b565b60405180910390fd5b506000600c60003373ffffffffffffffffffffffffffffffffffffffff1673ffffffffffffffffffffffffffffffffffffffff168152602001908152602001600020600001541480610bbe5750610384600c60003373ffffffffffffffffffffffffffffffffffffffff1673ffffffffffffffffffffffffffffffffffffffff1681526020019081526020016000206001015442610bbb919061375d565b10155b610bfd576040517f08c379a0000000000000000000000000000000000000000000000000000000008152600401610bf49061332d565b60405180910390fd5b6000610c09600b61180f565b9050610c15338261181d565b604051806040016040528082815260200142815250600c60003373ffffffffffffffffffffffffffffffffffffffff1673ffffffffffffffffffffffffffffffffffffffff1681526020019081526020016000206000820151816000015560208201518160010155905050610c8a600b611134565b50565b606060018054610c9c90613847565b80601f0160208091040260200160405190810160405280929190818152602001828054610cc890613847565b8015610d155780601f10610cea57610100808354040283529160200191610d15565b820191906000526020600020905b815481529060010190602001808311610cf857829003601f168201915b5050505050905090565b610d31610d2a611230565b838361183b565b5050565b610d46610d40611230565b836112f1565b610d85576040517f08c379a0000000000000000000000000000000000000000000000000000000008152600401610d7c9061350d565b60405180910390fd5b610d91848484846119a8565b50505050565b6060610da282611a04565b9050919050565b6000600c60003373ffffffffffffffffffffffffffffffffffffffff1673ffffffffffffffffffffffffffffffffffffffff1681526020019081526020016000206000015490506000811415610e34576040517f08c379a0000000000000000000000000000000000000000000000000000000008152600401610e2b906133ed565b60405180910390fd5b610384600c60003373ffffffffffffffffffffffffffffffffffffffff1673ffffffffffffffffffffffffffffffffffffffff1681526020019081526020016000206001015442610e85919061375d565b10610ec5576040517f08c379a0000000000000000000000000000000000000000000000000000000008152600401610ebc906133cd565b60405180910390fd5b6000610eef83604051602001610edb9190613198565b604051602081830303815290604052611b56565b9050600081604051602001610f0491906131c5565b6040516020818303038152906040529050610f1f8382611ce0565b600c60003373ffffffffffffffffffffffffffffffffffffffff1673ffffffffffffffffffffffffffffffffffffffff1681526020019081526020016000206000808201600090556001820160009055505050505050565b6000600560008473ffffffffffffffffffffffffffffffffffffffff1673ffffffffffffffffffffffffffffffffffffffff16815260200190815260200160002060008373ffffffffffffffffffffffffffffffffffffffff1673ffffffffffffffffffffffffffffffffffffffff16815260200190815260200160002060009054906101000a900460ff16905092915050565b60606000611018336109e9565b905060008167ffffffffffffffff81111561105c577f4e487b7100000000000000000000000000000000000000000000000000000000600052604160045260246000fd5b60405190808252806020026020018201604052801561109557816020015b6110826127f3565b81526020019060019003908161107a5790505b5090506000805b8381101561112a576110ae3382610791565b915060006110bb83610d97565b905060405180604001604052808481526020018281525084838151811061110b577f4e487b7100000000000000000000000000000000000000000000000000000000600052603260045260246000fd5b6020026020010181905250508080611122906138aa565b91505061109c565b5081935050505090565b6001816000016000828254019250508190555050565b60007f780e9d63000000000000000000000000000000000000000000000000000000007bffffffffffffffffffffffffffffffffffffffffffffffffffffffff1916827bffffffffffffffffffffffffffffffffffffffffffffffffffffffff191614806111bd57506111bc82611d54565b5b9050919050565b60008073ffffffffffffffffffffffffffffffffffffffff166002600084815260200190815260200160002060009054906101000a900473ffffffffffffffffffffffffffffffffffffffff1673ffffffffffffffffffffffffffffffffffffffff1614159050919050565b600033905090565b816004600083815260200190815260200160002060006101000a81548173ffffffffffffffffffffffffffffffffffffffff021916908373ffffffffffffffffffffffffffffffffffffffff160217905550808273ffffffffffffffffffffffffffffffffffffffff166112ab83610937565b73ffffffffffffffffffffffffffffffffffffffff167f8c5be1e5ebec7d5bd14f71427d1e84f3dd0314c0f7b2291e5b200ac8c7c3b92560405160405180910390a45050565b60006112fc826111c4565b61133b576040517f08c379a00000000000000000000000000000000000000000000000000000000081526004016113329061338d565b60405180910390fd5b600061134683610937565b90508073ffffffffffffffffffffffffffffffffffffffff168473ffffffffffffffffffffffffffffffffffffffff1614806113b557508373ffffffffffffffffffffffffffffffffffffffff1661139d84610587565b73ffffffffffffffffffffffffffffffffffffffff16145b806113c657506113c58185610f77565b5b91505092915050565b8273ffffffffffffffffffffffffffffffffffffffff166113ef82610937565b73ffffffffffffffffffffffffffffffffffffffff1614611445576040517f08c379a000000000000000000000000000000000000000000000000000000000815260040161143c906132ed565b60405180910390fd5b600073ffffffffffffffffffffffffffffffffffffffff168273ffffffffffffffffffffffffffffffffffffffff1614156114b5576040517f08c379a00000000000000000000000000000000000000000000000000000000081526004016114ac9061334d565b60405180910390fd5b6114c0838383611e36565b6114cb600082611238565b6001600360008573ffffffffffffffffffffffffffffffffffffffff1673ffffffffffffffffffffffffffffffffffffffff168152602001908152602001600020600082825461151b919061375d565b925050819055506001600360008473ffffffffffffffffffffffffffffffffffffffff1673ffffffffffffffffffffffffffffffffffffffff1681526020019081526020016000206000828254611572919061367c565b92505081905550816002600083815260200190815260200160002060006101000a81548173ffffffffffffffffffffffffffffffffffffffff021916908373ffffffffffffffffffffffffffffffffffffffff160217905550808273ffffffffffffffffffffffffffffffffffffffff168473ffffffffffffffffffffffffffffffffffffffff167fddf252ad1be2c89b69c2b068fc378daa952ba7f163c4a11628f55a4df523b3ef60405160405180910390a4611631838383611e46565b505050565b6060600082141561167e576040518060400160405280600181526020017f300000000000000000000000000000000000000000000000000000000000000081525090506117de565b600082905060005b600082146116b0578080611699906138aa565b915050600a826116a991906136d2565b9150611686565b60008167ffffffffffffffff8111156116f2577f4e487b7100000000000000000000000000000000000000000000000000000000600052604160045260246000fd5b6040519080825280601f01601f1916602001820160405280156117245781602001600182028036833780820191505090505b5090505b600085146117d75760018261173d919061375d565b9150600a8561174c91906138f3565b6030611758919061367c565b60f81b818381518110611794577f4e487b7100000000000000000000000000000000000000000000000000000000600052603260045260246000fd5b60200101907effffffffffffffffffffffffffffffffffffffffffffffffffffffffffffff1916908160001a905350600a856117d091906136d2565b9450611728565b8093505050505b919050565b606082826040516020016117f8929190613174565b604051602081830303815290604052905092915050565b600081600001549050919050565b611837828260405180602001604052806000815250611e4b565b5050565b8173ffffffffffffffffffffffffffffffffffffffff168373ffffffffffffffffffffffffffffffffffffffff1614156118aa576040517f08c379a00000000000000000000000000000000000000000000000000000000081526004016118a19061336d565b60405180910390fd5b80600560008573ffffffffffffffffffffffffffffffffffffffff1673ffffffffffffffffffffffffffffffffffffffff16815260200190815260200160002060008473ffffffffffffffffffffffffffffffffffffffff1673ffffffffffffffffffffffffffffffffffffffff16815260200190815260200160002060006101000a81548160ff0219169083151502179055508173ffffffffffffffffffffffffffffffffffffffff168373ffffffffffffffffffffffffffffffffffffffff167f17307eab39ab6107e8899845ad3d59bd9653f200f220920489ca2b5937696c318360405161199b9190613270565b60405180910390a3505050565b6119b38484846113cf565b6119bf84848484611ea6565b6119fe576040517f08c379a00000000000000000000000000000000000000000000000000000000081526004016119f5906132cd565b60405180910390fd5b50505050565b6060611a0f826111c4565b611a4e576040517f08c379a0000000000000000000000000000000000000000000000000000000008152600401611a459061348d565b60405180910390fd5b6000600660008481526020019081526020016000208054611a6e90613847565b80601f0160208091040260200160405190810160405280929190818152602001828054611a9a90613847565b8015611ae75780601f10611abc57610100808354040283529160200191611ae7565b820191906000526020600020905b815481529060010190602001808311611aca57829003601f168201915b505050505090506000611af861203d565b9050600081511415611b0e578192505050611b51565b600082511115611b43578082604051602001611b2b929190613174565b60405160208183030381529060405292505050611b51565b611b4c84612054565b925050505b919050565b6060600082511415611b7957604051806020016040528060008152509050611cdb565b60006040518060600160405280604081526020016142046040913990506000600360028551611ba8919061367c565b611bb291906136d2565b6004611bbe9190613703565b67ffffffffffffffff811115611bfd577f4e487b7100000000000000000000000000000000000000000000000000000000600052604160045260246000fd5b6040519080825280601f01601f191660200182016040528015611c2f5781602001600182028036833780820191505090505b509050600182016020820185865187015b80821015611c9b576003820191508151603f8160121c168501518453600184019350603f81600c1c168501518453600184019350603f8160061c168501518453600184019350603f8116850151845360018401935050611c40565b5050600386510660018114611cb75760028114611cca57611cd2565b603d6001830353603d6002830353611cd2565b603d60018303535b50505080925050505b919050565b611ce9826111c4565b611d28576040517f08c379a0000000000000000000000000000000000000000000000000000000008152600401611d1f9061344d565b60405180910390fd5b80600660008481526020019081526020016000209080519060200190611d4f92919061280d565b505050565b60007f80ac58cd000000000000000000000000000000000000000000000000000000007bffffffffffffffffffffffffffffffffffffffffffffffffffffffff1916827bffffffffffffffffffffffffffffffffffffffffffffffffffffffff19161480611e1f57507f5b5e139f000000000000000000000000000000000000000000000000000000007bffffffffffffffffffffffffffffffffffffffffffffffffffffffff1916827bffffffffffffffffffffffffffffffffffffffffffffffffffffffff1916145b80611e2f5750611e2e826120fb565b5b9050919050565b611e41838383612165565b505050565b505050565b611e558383612279565b611e626000848484611ea6565b611ea1576040517f08c379a0000000000000000000000000000000000000000000000000000000008152600401611e98906132cd565b60405180910390fd5b505050565b6000611ec78473ffffffffffffffffffffffffffffffffffffffff16612453565b15612030578373ffffffffffffffffffffffffffffffffffffffff1663150b7a02611ef0611230565b8786866040518563ffffffff1660e01b8152600401611f129493929190613202565b602060405180830381600087803b158015611f2c57600080fd5b505af1925050508015611f5d57506040513d601f19601f82011682018060405250810190611f5a9190612bb9565b60015b611fe0573d8060008114611f8d576040519150601f19603f3d011682016040523d82523d6000602084013e611f92565b606091505b50600081511415611fd8576040517f08c379a0000000000000000000000000000000000000000000000000000000008152600401611fcf906132cd565b60405180910390fd5b805181602001fd5b63150b7a0260e01b7bffffffffffffffffffffffffffffffffffffffffffffffffffffffff1916817bffffffffffffffffffffffffffffffffffffffffffffffffffffffff191614915050612035565b600190505b949350505050565b606060405180602001604052806000815250905090565b606061205f826111c4565b61209e576040517f08c379a0000000000000000000000000000000000000000000000000000000008152600401612095906134cd565b60405180910390fd5b60006120a861203d565b905060008151116120c857604051806020016040528060008152506120f3565b806120d284611636565b6040516020016120e3929190613174565b6040516020818303038152906040525b915050919050565b60007f01ffc9a7000000000000000000000000000000000000000000000000000000007bffffffffffffffffffffffffffffffffffffffffffffffffffffffff1916827bffffffffffffffffffffffffffffffffffffffffffffffffffffffff1916149050919050565b612170838383612476565b600073ffffffffffffffffffffffffffffffffffffffff168373ffffffffffffffffffffffffffffffffffffffff1614156121b3576121ae8161247b565b6121f2565b8173ffffffffffffffffffffffffffffffffffffffff168373ffffffffffffffffffffffffffffffffffffffff16146121f1576121f083826124c4565b5b5b600073ffffffffffffffffffffffffffffffffffffffff168273ffffffffffffffffffffffffffffffffffffffff1614156122355761223081612631565b612274565b8273ffffffffffffffffffffffffffffffffffffffff168273ffffffffffffffffffffffffffffffffffffffff1614612273576122728282612774565b5b5b505050565b600073ffffffffffffffffffffffffffffffffffffffff168273ffffffffffffffffffffffffffffffffffffffff1614156122e9576040517f08c379a00000000000000000000000000000000000000000000000000000000081526004016122e09061346d565b60405180910390fd5b6122f2816111c4565b15612332576040517f08c379a00000000000000000000000000000000000000000000000000000000081526004016123299061330d565b60405180910390fd5b61233e60008383611e36565b6001600360008473ffffffffffffffffffffffffffffffffffffffff1673ffffffffffffffffffffffffffffffffffffffff168152602001908152602001600020600082825461238e919061367c565b92505081905550816002600083815260200190815260200160002060006101000a81548173ffffffffffffffffffffffffffffffffffffffff021916908373ffffffffffffffffffffffffffffffffffffffff160217905550808273ffffffffffffffffffffffffffffffffffffffff16600073ffffffffffffffffffffffffffffffffffffffff167fddf252ad1be2c89b69c2b068fc378daa952ba7f163c4a11628f55a4df523b3ef60405160405180910390a461244f60008383611e46565b5050565b6000808273ffffffffffffffffffffffffffffffffffffffff163b119050919050565b505050565b600980549050600a600083815260200190815260200160002081905550600981908060018154018082558091505060019003906000526020600020016000909190919091505550565b600060016124d1846109e9565b6124db919061375d565b90506000600860008481526020019081526020016000205490508181146125c0576000600760008673ffffffffffffffffffffffffffffffffffffffff1673ffffffffffffffffffffffffffffffffffffffff168152602001908152602001600020600084815260200190815260200160002054905080600760008773ffffffffffffffffffffffffffffffffffffffff1673ffffffffffffffffffffffffffffffffffffffff168152602001908152602001600020600084815260200190815260200160002081905550816008600083815260200190815260200160002081905550505b6008600084815260200190815260200160002060009055600760008573ffffffffffffffffffffffffffffffffffffffff1673ffffffffffffffffffffffffffffffffffffffff16815260200190815260200160002060008381526020019081526020016000206000905550505050565b60006001600980549050612645919061375d565b90506000600a600084815260200190815260200160002054905060006009838154811061269b577f4e487b7100000000000000000000000000000000000000000000000000000000600052603260045260246000fd5b9060005260206000200154905080600983815481106126e3577f4e487b7100000000000000000000000000000000000000000000000000000000600052603260045260246000fd5b906000526020600020018190555081600a600083815260200190815260200160002081905550600a6000858152602001908152602001600020600090556009805480612758577f4e487b7100000000000000000000000000000000000000000000000000000000600052603160045260246000fd5b6001900381819060005260206000200160009055905550505050565b600061277f836109e9565b905081600760008573ffffffffffffffffffffffffffffffffffffffff1673ffffffffffffffffffffffffffffffffffffffff168152602001908152602001600020600083815260200190815260200160002081905550806008600084815260200190815260200160002081905550505050565b604051806040016040528060008152602001606081525090565b82805461281990613847565b90600052602060002090601f01602090048101928261283b5760008555612882565b82601f1061285457805160ff1916838001178555612882565b82800160010185558215612882579182015b82811115612881578251825591602001919060010190612866565b5b50905061288f9190612893565b5090565b5b808211156128ac576000816000905550600101612894565b5090565b60006128c36128be8461358d565b613568565b9050828152602081018484840111156128db57600080fd5b6128e6848285613805565b509392505050565b60006129016128fc846135be565b613568565b90508281526020810184848401111561291957600080fd5b612924848285613805565b509392505050565b60008135905061293b816141a7565b92915050565b600081359050612950816141be565b92915050565b600081359050612965816141d5565b92915050565b60008151905061297a816141d5565b92915050565b600082601f83011261299157600080fd5b81356129a18482602086016128b0565b91505092915050565b600082601f8301126129bb57600080fd5b81356129cb8482602086016128ee565b91505092915050565b6000813590506129e3816141ec565b92915050565b6000602082840312156129fb57600080fd5b6000612a098482850161292c565b91505092915050565b60008060408385031215612a2557600080fd5b6000612a338582860161292c565b9250506020612a448582860161292c565b9150509250929050565b600080600060608486031215612a6357600080fd5b6000612a718682870161292c565b9350506020612a828682870161292c565b9250506040612a93868287016129d4565b9150509250925092565b60008060008060808587031215612ab357600080fd5b6000612ac18782880161292c565b9450506020612ad28782880161292c565b9350506040612ae3878288016129d4565b925050606085013567ffffffffffffffff811115612b0057600080fd5b612b0c87828801612980565b91505092959194509250565b60008060408385031215612b2b57600080fd5b6000612b398582860161292c565b9250506020612b4a85828601612941565b9150509250929050565b60008060408385031215612b6757600080fd5b6000612b758582860161292c565b9250506020612b86858286016129d4565b9150509250929050565b600060208284031215612ba257600080fd5b6000612bb084828501612956565b91505092915050565b600060208284031215612bcb57600080fd5b6000612bd98482850161296b565b91505092915050565b600060208284031215612bf457600080fd5b600082013567ffffffffffffffff811115612c0e57600080fd5b612c1a848285016129aa565b91505092915050565b600060208284031215612c3557600080fd5b6000612c43848285016129d4565b91505092915050565b6000612c588383613119565b905092915050565b612c6981613791565b82525050565b6000612c7a826135ff565b612c84818561362d565b935083602082028501612c96856135ef565b8060005b85811015612cd25784840389528151612cb38582612c4c565b9450612cbe83613620565b925060208a01995050600181019050612c9a565b50829750879550505050505092915050565b612ced816137a3565b82525050565b6000612cfe8261360a565b612d08818561363e565b9350612d18818560208601613814565b612d21816139e0565b840191505092915050565b6000612d3782613615565b612d41818561364f565b9350612d51818560208601613814565b612d5a816139e0565b840191505092915050565b6000612d7082613615565b612d7a8185613660565b9350612d8a818560208601613814565b612d93816139e0565b840191505092915050565b6000612da982613615565b612db38185613671565b9350612dc3818560208601613814565b80840191505092915050565b6000612ddc602b83613660565b9150612de7826139f1565b604082019050919050565b6000612dff603283613660565b9150612e0a82613a40565b604082019050919050565b6000612e2361013883613671565b9150612e2e82613a8f565b61013882019050919050565b6000612e47602583613660565b9150612e5282613c10565b604082019050919050565b6000612e6a601c83613660565b9150612e7582613c5f565b602082019050919050565b6000612e8d602f83613660565b9150612e9882613c88565b604082019050919050565b6000612eb0602483613660565b9150612ebb82613cd7565b604082019050919050565b6000612ed3601983613660565b9150612ede82613d26565b602082019050919050565b6000612ef6602c83613660565b9150612f0182613d4f565b604082019050919050565b6000612f19603883613660565b9150612f2482613d9e565b604082019050919050565b6000612f3c601a83613660565b9150612f4782613ded565b602082019050919050565b6000612f5f603483613660565b9150612f6a82613e16565b604082019050919050565b6000612f82602a83613660565b9150612f8d82613e65565b604082019050919050565b6000612fa5602983613660565b9150612fb082613eb4565b604082019050919050565b6000612fc8602e83613660565b9150612fd382613f03565b604082019050919050565b6000612feb600283613671565b9150612ff682613f52565b600282019050919050565b600061300e602083613660565b915061301982613f7b565b602082019050919050565b6000613031603183613660565b915061303c82613fa4565b604082019050919050565b6000613054602c83613660565b915061305f82613ff3565b604082019050919050565b6000613077602f83613660565b915061308282614042565b604082019050919050565b600061309a602183613660565b91506130a582614091565b604082019050919050565b60006130bd601d83613671565b91506130c8826140e0565b601d82019050919050565b60006130e0603183613660565b91506130eb82614109565b604082019050919050565b6000613103602c83613660565b915061310e82614158565b604082019050919050565b60006040830160008301516131316000860182613156565b50602083015184820360208601526131498282612d2c565b9150508091505092915050565b61315f816137fb565b82525050565b61316e816137fb565b82525050565b60006131808285612d9e565b915061318c8284612d9e565b91508190509392505050565b60006131a382612e15565b91506131af8284612d9e565b91506131ba82612fde565b915081905092915050565b60006131d0826130b0565b91506131dc8284612d9e565b915081905092915050565b60006020820190506131fc6000830184612c60565b92915050565b60006080820190506132176000830187612c60565b6132246020830186612c60565b6132316040830185613165565b81810360608301526132438184612cf3565b905095945050505050565b600060208201905081810360008301526132688184612c6f565b905092915050565b60006020820190506132856000830184612ce4565b92915050565b600060208201905081810360008301526132a58184612d65565b905092915050565b600060208201905081810360008301526132c681612dcf565b9050919050565b600060208201905081810360008301526132e681612df2565b9050919050565b6000602082019050818103600083015261330681612e3a565b9050919050565b6000602082019050818103600083015261332681612e5d565b9050919050565b6000602082019050818103600083015261334681612e80565b9050919050565b6000602082019050818103600083015261336681612ea3565b9050919050565b6000602082019050818103600083015261338681612ec6565b9050919050565b600060208201905081810360008301526133a681612ee9565b9050919050565b600060208201905081810360008301526133c681612f0c565b9050919050565b600060208201905081810360008301526133e681612f2f565b9050919050565b6000602082019050818103600083015261340681612f52565b9050919050565b6000602082019050818103600083015261342681612f75565b9050919050565b6000602082019050818103600083015261344681612f98565b9050919050565b6000602082019050818103600083015261346681612fbb565b9050919050565b6000602082019050818103600083015261348681613001565b9050919050565b600060208201905081810360008301526134a681613024565b9050919050565b600060208201905081810360008301526134c681613047565b9050919050565b600060208201905081810360008301526134e68161306a565b9050919050565b600060208201905081810360008301526135068161308d565b9050919050565b60006020820190508181036000830152613526816130d3565b9050919050565b60006020820190508181036000830152613546816130f6565b9050919050565b60006020820190506135626000830184613165565b92915050565b6000613572613583565b905061357e8282613879565b919050565b6000604051905090565b600067ffffffffffffffff8211156135a8576135a76139b1565b5b6135b1826139e0565b9050602081019050919050565b600067ffffffffffffffff8211156135d9576135d86139b1565b5b6135e2826139e0565b9050602081019050919050565b6000819050602082019050919050565b600081519050919050565b600081519050919050565b600081519050919050565b6000602082019050919050565b600082825260208201905092915050565b600082825260208201905092915050565b600082825260208201905092915050565b600082825260208201905092915050565b600081905092915050565b6000613687826137fb565b9150613692836137fb565b9250827fffffffffffffffffffffffffffffffffffffffffffffffffffffffffffffffff038211156136c7576136c6613924565b5b828201905092915050565b60006136dd826137fb565b91506136e8836137fb565b9250826136f8576136f7613953565b5b828204905092915050565b600061370e826137fb565b9150613719836137fb565b9250817fffffffffffffffffffffffffffffffffffffffffffffffffffffffffffffffff048311821515161561375257613751613924565b5b828202905092915050565b6000613768826137fb565b9150613773836137fb565b92508282101561378657613785613924565b5b828203905092915050565b600061379c826137db565b9050919050565b60008115159050919050565b60007fffffffff0000000000000000000000000000000000000000000000000000000082169050919050565b600073ffffffffffffffffffffffffffffffffffffffff82169050919050565b6000819050919050565b82818337600083830152505050565b60005b83811015613832578082015181840152602081019050613817565b83811115613841576000848401525b50505050565b6000600282049050600182168061385f57607f821691505b6020821081141561387357613872613982565b5b50919050565b613882826139e0565b810181811067ffffffffffffffff821117156138a1576138a06139b1565b5b80604052505050565b60006138b5826137fb565b91507fffffffffffffffffffffffffffffffffffffffffffffffffffffffffffffffff8214156138e8576138e7613924565b5b600182019050919050565b60006138fe826137fb565b9150613909836137fb565b92508261391957613918613953565b5b828206905092915050565b7f4e487b7100000000000000000000000000000000000000000000000000000000600052601160045260246000fd5b7f4e487b7100000000000000000000000000000000000000000000000000000000600052601260045260246000fd5b7f4e487b7100000000000000000000000000000000000000000000000000000000600052602260045260246000fd5b7f4e487b7100000000000000000000000000000000000000000000000000000000600052604160045260246000fd5b6000601f19601f8301169050919050565b7f455243373231456e756d657261626c653a206f776e657220696e646578206f7560008201527f74206f6620626f756e6473000000000000000000000000000000000000000000602082015250565b7f4552433732313a207472616e7366657220746f206e6f6e20455243373231526560008201527f63656976657220696d706c656d656e7465720000000000000000000000000000602082015250565b7f7b226e616d65223a22576f6f6679222c226465736372697074696f6e223a225760008201527f6f6f66792069732061206375746520646f672c206c696b657320746f20706c6160208201527f792073757065726865726f20696e206120636170652e2045616368204e46542060408201527f6f662068696d206973206d61726b65642077697468206120756e69717565206e60608201527f756d6265722e2047657420796f75727320746f6461792121222c22617474726960808201527f6275746573223a5b7b2274726169745f74797065223a22437574656e6573732260a08201527f2c2276616c7565223a3130302c22646973706c61795f74797065223a22626f6f60c08201527f73745f6e756d626572227d2c7b2274726169745f74797065223a224865726f6960e08201527f736d222c2276616c7565223a37352c22646973706c61795f74797065223a22626101008201527f6f6f73745f6e756d626572227d5d2c22696d616765223a22000000000000000061012082015250565b7f4552433732313a207472616e736665722066726f6d20696e636f72726563742060008201527f6f776e6572000000000000000000000000000000000000000000000000000000602082015250565b7f4552433732313a20746f6b656e20616c7265616479206d696e74656400000000600082015250565b7f5349474e45522048415320412050454e44494e47204e4654212057414954494e60008201527f4720464f5220434f4f4c444f574e2e0000000000000000000000000000000000602082015250565b7f4552433732313a207472616e7366657220746f20746865207a65726f2061646460008201527f7265737300000000000000000000000000000000000000000000000000000000602082015250565b7f4552433732313a20617070726f766520746f2063616c6c657200000000000000600082015250565b7f4552433732313a206f70657261746f7220717565727920666f72206e6f6e657860008201527f697374656e7420746f6b656e0000000000000000000000000000000000000000602082015250565b7f4552433732313a20617070726f76652063616c6c6572206973206e6f74206f7760008201527f6e6572206e6f7220617070726f76656420666f7220616c6c0000000000000000602082015250565b7f5349474e455220484153204e4f2050454e44494e47204e465421000000000000600082015250565b7f5349474e455220444f4553204e4f5420484156452041204e45574c59204d494e60008201527f5445442c20494e434f4d504c455445204e465421000000000000000000000000602082015250565b7f4552433732313a2062616c616e636520717565727920666f7220746865207a6560008201527f726f206164647265737300000000000000000000000000000000000000000000602082015250565b7f4552433732313a206f776e657220717565727920666f72206e6f6e657869737460008201527f656e7420746f6b656e0000000000000000000000000000000000000000000000602082015250565b7f45524337323155524953746f726167653a2055524920736574206f66206e6f6e60008201527f6578697374656e7420746f6b656e000000000000000000000000000000000000602082015250565b7f227d000000000000000000000000000000000000000000000000000000000000600082015250565b7f4552433732313a206d696e7420746f20746865207a65726f2061646472657373600082015250565b7f45524337323155524953746f726167653a2055524920717565727920666f722060008201527f6e6f6e6578697374656e7420746f6b656e000000000000000000000000000000602082015250565b7f4552433732313a20617070726f76656420717565727920666f72206e6f6e657860008201527f697374656e7420746f6b656e0000000000000000000000000000000000000000602082015250565b7f4552433732314d657461646174613a2055524920717565727920666f72206e6f60008201527f6e6578697374656e7420746f6b656e0000000000000000000000000000000000602082015250565b7f4552433732313a20617070726f76616c20746f2063757272656e74206f776e6560008201527f7200000000000000000000000000000000000000000000000000000000000000602082015250565b7f646174613a6170706c69636174696f6e2f6a736f6e3b6261736536342c000000600082015250565b7f4552433732313a207472616e736665722063616c6c6572206973206e6f74206f60008201527f776e6572206e6f7220617070726f766564000000000000000000000000000000602082015250565b7f455243373231456e756d657261626c653a20676c6f62616c20696e646578206f60008201527f7574206f6620626f756e64730000000000000000000000000000000000000000602082015250565b6141b081613791565b81146141bb57600080fd5b50565b6141c7816137a3565b81146141d257600080fd5b50565b6141de816137af565b81146141e957600080fd5b50565b6141f5816137fb565b811461420057600080fd5b5056fe4142434445464748494a4b4c4d4e4f505152535455565758595a6162636465666768696a6b6c6d6e6f707172737475767778797a303132333435363738392b2f494e434f525245435420414d4f554e54204f46205745492053454e54212053454e4420a264697066735822122019e5bd9ed3f3974e8b299b409ac26c5ccd90e53030ac99be88f660f6aa6d1def64736f6c63430008040033",
  "linkReferences": {},
  "deployedLinkReferences": {}
}