{
  "_format": "hh-sol-artifact-1",
  "contractName": "Woofy",
  "sourceName": "contracts/Woofy.sol",
  "abi": [
    {
      "inputs": [
        {
          "internalType": "uint256",
          "name": "_price",
          "type": "uint256"
        },
        {
          "internalType": "uint256",
          "name": "_cooldownPeriod",
          "type": "uint256"
        },
        {
          "internalType": "uint256",
          "name": "_maxSupply",
          "type": "uint256"
        }
      ],
      "stateMutability": "payable",
      "type": "constructor"
    },
    {
      "anonymous": false,
      "inputs": [
        {
          "indexed": true,
          "internalType": "address",
          "name": "owner",
          "type": "address"
        },
        {
          "indexed": true,
          "internalType": "address",
          "name": "approved",
          "type": "address"
        },
        {
          "indexed": true,
          "internalType": "uint256",
          "name": "tokenId",
          "type": "uint256"
        }
      ],
      "name": "Approval",
      "type": "event"
    },
    {
      "anonymous": false,
      "inputs": [
        {
          "indexed": true,
          "internalType": "address",
          "name": "owner",
          "type": "address"
        },
        {
          "indexed": true,
          "internalType": "address",
          "name": "operator",
          "type": "address"
        },
        {
          "indexed": false,
          "internalType": "bool",
          "name": "approved",
          "type": "bool"
        }
      ],
      "name": "ApprovalForAll",
      "type": "event"
    },
    {
      "anonymous": false,
      "inputs": [
        {
          "indexed": true,
          "internalType": "address",
          "name": "previousOwner",
          "type": "address"
        },
        {
          "indexed": true,
          "internalType": "address",
          "name": "newOwner",
          "type": "address"
        }
      ],
      "name": "OwnershipTransferred",
      "type": "event"
    },
    {
      "anonymous": false,
      "inputs": [
        {
          "indexed": true,
          "internalType": "address",
          "name": "from",
          "type": "address"
        },
        {
          "indexed": true,
          "internalType": "address",
          "name": "to",
          "type": "address"
        },
        {
          "indexed": true,
          "internalType": "uint256",
          "name": "tokenId",
          "type": "uint256"
        }
      ],
      "name": "Transfer",
      "type": "event"
    },
    {
      "inputs": [],
      "name": "COOLDOWN_PERIOD",
      "outputs": [
        {
          "internalType": "uint256",
          "name": "",
          "type": "uint256"
        }
      ],
      "stateMutability": "view",
      "type": "function"
    },
    {
      "inputs": [],
      "name": "MAX_SUPPLY",
      "outputs": [
        {
          "internalType": "uint256",
          "name": "",
          "type": "uint256"
        }
      ],
      "stateMutability": "view",
      "type": "function"
    },
    {
      "inputs": [],
      "name": "PRICE",
      "outputs": [
        {
          "internalType": "uint256",
          "name": "",
          "type": "uint256"
        }
      ],
      "stateMutability": "view",
      "type": "function"
    },
    {
      "inputs": [
        {
          "internalType": "address",
          "name": "to",
          "type": "address"
        },
        {
          "internalType": "uint256",
          "name": "tokenId",
          "type": "uint256"
        }
      ],
      "name": "approve",
      "outputs": [],
      "stateMutability": "nonpayable",
      "type": "function"
    },
    {
      "inputs": [
        {
          "internalType": "address",
          "name": "owner",
          "type": "address"
        }
      ],
      "name": "balanceOf",
      "outputs": [
        {
          "internalType": "uint256",
          "name": "",
          "type": "uint256"
        }
      ],
      "stateMutability": "view",
      "type": "function"
    },
    {
      "inputs": [
        {
          "internalType": "uint256",
          "name": "_tokenID",
          "type": "uint256"
        }
      ],
      "name": "buy",
      "outputs": [],
      "stateMutability": "payable",
      "type": "function"
    },
    {
      "inputs": [
        {
          "internalType": "uint256",
          "name": "_tokenID",
          "type": "uint256"
        }
      ],
      "name": "cancelSale",
      "outputs": [],
      "stateMutability": "nonpayable",
      "type": "function"
    },
    {
      "inputs": [],
      "name": "createNFT",
      "outputs": [],
      "stateMutability": "payable",
      "type": "function"
    },
    {
      "inputs": [],
      "name": "getAllNftsForSale",
      "outputs": [
        {
          "components": [
            {
              "internalType": "uint256",
              "name": "tokenId",
              "type": "uint256"
            },
            {
              "internalType": "string",
              "name": "tokenUri",
              "type": "string"
            },
            {
              "internalType": "uint256",
              "name": "price",
              "type": "uint256"
            },
            {
              "internalType": "enum Woofy.WOOFY_SALE_STATUS",
              "name": "status",
              "type": "uint8"
            },
            {
              "internalType": "address",
              "name": "owner",
              "type": "address"
            }
          ],
          "internalType": "struct Woofy.WoofyData[]",
          "name": "",
          "type": "tuple[]"
        }
      ],
      "stateMutability": "view",
      "type": "function"
    },
    {
      "inputs": [],
      "name": "getAllNftsOwned",
      "outputs": [
        {
          "components": [
            {
              "internalType": "uint256",
              "name": "tokenId",
              "type": "uint256"
            },
            {
              "internalType": "string",
              "name": "tokenUri",
              "type": "string"
            },
            {
              "internalType": "uint256",
              "name": "price",
              "type": "uint256"
            },
            {
              "internalType": "enum Woofy.WOOFY_SALE_STATUS",
              "name": "status",
              "type": "uint8"
            },
            {
              "internalType": "address",
              "name": "owner",
              "type": "address"
            }
          ],
          "internalType": "struct Woofy.WoofyData[]",
          "name": "",
          "type": "tuple[]"
        }
      ],
      "stateMutability": "view",
      "type": "function"
    },
    {
      "inputs": [
        {
          "internalType": "uint256",
          "name": "tokenId",
          "type": "uint256"
        }
      ],
      "name": "getApproved",
      "outputs": [
        {
          "internalType": "address",
          "name": "",
          "type": "address"
        }
      ],
      "stateMutability": "view",
      "type": "function"
    },
    {
      "inputs": [],
      "name": "getNewTokenId",
      "outputs": [
        {
          "internalType": "uint256",
          "name": "",
          "type": "uint256"
        }
      ],
      "stateMutability": "view",
      "type": "function"
    },
    {
      "inputs": [
        {
          "internalType": "address",
          "name": "owner",
          "type": "address"
        },
        {
          "internalType": "address",
          "name": "operator",
          "type": "address"
        }
      ],
      "name": "isApprovedForAll",
      "outputs": [
        {
          "internalType": "bool",
          "name": "",
          "type": "bool"
        }
      ],
      "stateMutability": "view",
      "type": "function"
    },
    {
      "inputs": [],
      "name": "name",
      "outputs": [
        {
          "internalType": "string",
          "name": "",
          "type": "string"
        }
      ],
      "stateMutability": "view",
      "type": "function"
    },
    {
      "inputs": [],
      "name": "owner",
      "outputs": [
        {
          "internalType": "address",
          "name": "",
          "type": "address"
        }
      ],
      "stateMutability": "view",
      "type": "function"
    },
    {
      "inputs": [
        {
          "internalType": "uint256",
          "name": "tokenId",
          "type": "uint256"
        }
      ],
      "name": "ownerOf",
      "outputs": [
        {
          "internalType": "address",
          "name": "",
          "type": "address"
        }
      ],
      "stateMutability": "view",
      "type": "function"
    },
    {
      "inputs": [
        {
          "internalType": "uint256",
          "name": "_tokenID",
          "type": "uint256"
        },
        {
          "internalType": "uint256",
          "name": "_price",
          "type": "uint256"
        }
      ],
      "name": "putForSale",
      "outputs": [],
      "stateMutability": "nonpayable",
      "type": "function"
    },
    {
      "inputs": [],
      "name": "renounceOwnership",
      "outputs": [],
      "stateMutability": "nonpayable",
      "type": "function"
    },
    {
      "inputs": [
        {
          "internalType": "address",
          "name": "from",
          "type": "address"
        },
        {
          "internalType": "address",
          "name": "to",
          "type": "address"
        },
        {
          "internalType": "uint256",
          "name": "tokenId",
          "type": "uint256"
        }
      ],
      "name": "safeTransferFrom",
      "outputs": [],
      "stateMutability": "nonpayable",
      "type": "function"
    },
    {
      "inputs": [
        {
          "internalType": "address",
          "name": "from",
          "type": "address"
        },
        {
          "internalType": "address",
          "name": "to",
          "type": "address"
        },
        {
          "internalType": "uint256",
          "name": "tokenId",
          "type": "uint256"
        },
        {
          "internalType": "bytes",
          "name": "_data",
          "type": "bytes"
        }
      ],
      "name": "safeTransferFrom",
      "outputs": [],
      "stateMutability": "nonpayable",
      "type": "function"
    },
    {
      "inputs": [
        {
          "internalType": "address",
          "name": "operator",
          "type": "address"
        },
        {
          "internalType": "bool",
          "name": "approved",
          "type": "bool"
        }
      ],
      "name": "setApprovalForAll",
      "outputs": [],
      "stateMutability": "nonpayable",
      "type": "function"
    },
    {
      "inputs": [
        {
          "internalType": "string",
          "name": "_nftImageURI",
          "type": "string"
        }
      ],
      "name": "setNewTokenURI",
      "outputs": [],
      "stateMutability": "nonpayable",
      "type": "function"
    },
    {
      "inputs": [
        {
          "internalType": "bytes4",
          "name": "interfaceId",
          "type": "bytes4"
        }
      ],
      "name": "supportsInterface",
      "outputs": [
        {
          "internalType": "bool",
          "name": "",
          "type": "bool"
        }
      ],
      "stateMutability": "view",
      "type": "function"
    },
    {
      "inputs": [],
      "name": "symbol",
      "outputs": [
        {
          "internalType": "string",
          "name": "",
          "type": "string"
        }
      ],
      "stateMutability": "view",
      "type": "function"
    },
    {
      "inputs": [
        {
          "internalType": "uint256",
          "name": "index",
          "type": "uint256"
        }
      ],
      "name": "tokenByIndex",
      "outputs": [
        {
          "internalType": "uint256",
          "name": "",
          "type": "uint256"
        }
      ],
      "stateMutability": "view",
      "type": "function"
    },
    {
      "inputs": [
        {
          "internalType": "address",
          "name": "owner",
          "type": "address"
        },
        {
          "internalType": "uint256",
          "name": "index",
          "type": "uint256"
        }
      ],
      "name": "tokenOfOwnerByIndex",
      "outputs": [
        {
          "internalType": "uint256",
          "name": "",
          "type": "uint256"
        }
      ],
      "stateMutability": "view",
      "type": "function"
    },
    {
      "inputs": [
        {
          "internalType": "uint256",
          "name": "tokenId",
          "type": "uint256"
        }
      ],
      "name": "tokenURI",
      "outputs": [
        {
          "internalType": "string",
          "name": "",
          "type": "string"
        }
      ],
      "stateMutability": "view",
      "type": "function"
    },
    {
      "inputs": [],
      "name": "totalSupply",
      "outputs": [
        {
          "internalType": "uint256",
          "name": "",
          "type": "uint256"
        }
      ],
      "stateMutability": "view",
      "type": "function"
    },
    {
      "inputs": [
        {
          "internalType": "address",
          "name": "from",
          "type": "address"
        },
        {
          "internalType": "address",
          "name": "to",
          "type": "address"
        },
        {
          "internalType": "uint256",
          "name": "tokenId",
          "type": "uint256"
        }
      ],
      "name": "transferFrom",
      "outputs": [],
      "stateMutability": "nonpayable",
      "type": "function"
    },
    {
      "inputs": [
        {
          "internalType": "address",
          "name": "newOwner",
          "type": "address"
        }
      ],
      "name": "transferOwnership",
      "outputs": [],
      "stateMutability": "nonpayable",
      "type": "function"
    }
  ],
  "bytecode": "0x60e06040526040516200399b3803806200399b8339810160408190526200002691620001da565b6040805180820182526009815268576f6f66794461746160b81b60208083019182528351808501909452600384526257465960e81b908401528151919291620000729160009162000134565b5080516200008890600190602084019062000134565b505050620000a56200009f620000d560201b60201c565b620000d9565b608083905260a082905260c0819052620000cc600c6200012b602090811b62001c2017901c565b50505062000245565b3390565b600b80546001600160a01b038381166001600160a01b0319831681179093556040519116919082907f8be0079c531659141344cd1fd0a4f28419497f9722a3daafe3b4186f6b6457e090600090a35050565b80546001019055565b828054620001429062000208565b90600052602060002090601f016020900481019282620001665760008555620001b1565b82601f106200018157805160ff1916838001178555620001b1565b82800160010185558215620001b1579182015b82811115620001b157825182559160200191906001019062000194565b50620001bf929150620001c3565b5090565b5b80821115620001bf5760008155600101620001c4565b600080600060608486031215620001ef578283fd5b8351925060208401519150604084015190509250925092565b600181811c908216806200021d57607f821691505b602082108114156200023f57634e487b7160e01b600052602260045260246000fd5b50919050565b60805160a05160c0516136f5620002a6600039600081816102f40152610fad0152600081816103ca015281816110f901526118fd01526000818161045d0152818161104301528181611085015281816111da015261126401526136f56000f3fe6080604052600436106101cd5760003560e01c8063715018a6116100f7578063b88d4fde11610095578063e5af0e8911610064578063e5af0e8914610545578063e985e9c514610565578063f2fde38b146105ae578063f6cf0fd5146105ce57600080fd5b8063b88d4fde146104d2578063bd94b005146104f2578063c87b56dd14610512578063d96a094a1461053257600080fd5b80638d859f3e116100d15780638d859f3e1461044b5780638da5cb5b1461047f57806395d89b411461049d578063a22cb465146104b257600080fd5b8063715018a61461040c5780637b687bf8146104215780638a97ec2a1461044357600080fd5b806332cb6b0c1161016f57806358c57ac71161013e57806358c57ac7146103765780636352211e146103985780636e99d52f146103b857806370a08231146103ec57600080fd5b806332cb6b0c146102e25780633cd76be21461031657806342842e0e146103365780634f6ccce71461035657600080fd5b8063095ea7b3116101ab578063095ea7b31461026157806318160ddd1461028357806323b872dd146102a25780632f745c59146102c257600080fd5b806301ffc9a7146101d257806306fdde0314610207578063081812fc14610229575b600080fd5b3480156101de57600080fd5b506101f26101ed3660046130af565b6105e3565b60405190151581526020015b60405180910390f35b34801561021357600080fd5b5061021c6105f4565b6040516101fe91906134c5565b34801561023557600080fd5b5061024961024436600461312d565b610686565b6040516001600160a01b0390911681526020016101fe565b34801561026d57600080fd5b5061028161027c366004613086565b610720565b005b34801561028f57600080fd5b506009545b6040519081526020016101fe565b3480156102ae57600080fd5b506102816102bd366004612f98565b610852565b3480156102ce57600080fd5b506102946102dd366004613086565b6108d9565b3480156102ee57600080fd5b506102947f000000000000000000000000000000000000000000000000000000000000000081565b34801561032257600080fd5b50610281610331366004613145565b610981565b34801561034257600080fd5b50610281610351366004612f98565b610ad7565b34801561036257600080fd5b5061029461037136600461312d565b610af2565b34801561038257600080fd5b50336000908152600d6020526040902054610294565b3480156103a457600080fd5b506102496103b336600461312d565b610ba4565b3480156103c457600080fd5b506102947f000000000000000000000000000000000000000000000000000000000000000081565b3480156103f857600080fd5b50610294610407366004612f4c565b610c2f565b34801561041857600080fd5b50610281610cc9565b34801561042d57600080fd5b50610436610d2f565b6040516101fe919061340e565b610281610f9e565b34801561045757600080fd5b506102947f000000000000000000000000000000000000000000000000000000000000000081565b34801561048b57600080fd5b50600b546001600160a01b0316610249565b3480156104a957600080fd5b5061021c61134c565b3480156104be57600080fd5b506102816104cd36600461304c565b61135b565b3480156104de57600080fd5b506102816104ed366004612fd3565b611366565b3480156104fe57600080fd5b5061028161050d36600461312d565b6113f4565b34801561051e57600080fd5b5061021c61052d36600461312d565b611544565b61028161054036600461312d565b61154f565b34801561055157600080fd5b506102816105603660046130e7565b611865565b34801561057157600080fd5b506101f2610580366004612f66565b6001600160a01b03918216600090815260056020908152604080832093909416825291909152205460ff1690565b3480156105ba57600080fd5b506102816105c9366004612f4c565b6119ea565b3480156105da57600080fd5b50610436611acc565b60006105ee82611c29565b92915050565b60606000805461060390613566565b80601f016020809104026020016040519081016040528092919081815260200182805461062f90613566565b801561067c5780601f106106515761010080835404028352916020019161067c565b820191906000526020600020905b81548152906001019060200180831161065f57829003601f168201915b5050505050905090565b6000818152600260205260408120546001600160a01b03166107045760405162461bcd60e51b815260206004820152602c60248201527f4552433732313a20617070726f76656420717565727920666f72206e6f6e657860448201526b34b9ba32b73a103a37b5b2b760a11b60648201526084015b60405180910390fd5b506000908152600460205260409020546001600160a01b031690565b600061072b82610ba4565b9050806001600160a01b0316836001600160a01b031614156107b55760405162461bcd60e51b815260206004820152602160248201527f4552433732313a20617070726f76616c20746f2063757272656e74206f776e6560448201527f720000000000000000000000000000000000000000000000000000000000000060648201526084016106fb565b336001600160a01b03821614806107d157506107d18133610580565b6108435760405162461bcd60e51b815260206004820152603860248201527f4552433732313a20617070726f76652063616c6c6572206973206e6f74206f7760448201527f6e6572206e6f7220617070726f76656420666f7220616c6c000000000000000060648201526084016106fb565b61084d8383611c67565b505050565b61085c3382611ce2565b6108ce5760405162461bcd60e51b815260206004820152603160248201527f4552433732313a207472616e736665722063616c6c6572206973206e6f74206f60448201527f776e6572206e6f7220617070726f76656400000000000000000000000000000060648201526084016106fb565b61084d838383611dd9565b60006108e483610c2f565b82106109585760405162461bcd60e51b815260206004820152602b60248201527f455243373231456e756d657261626c653a206f776e657220696e646578206f7560448201527f74206f6620626f756e647300000000000000000000000000000000000000000060648201526084016106fb565b506001600160a01b03919091166000908152600760209081526040808320938352929052205490565b81600081116109c55760405162461bcd60e51b815260206004820152601060248201526f12539590531251081513d2d15388125160821b60448201526064016106fb565b6109ce83610ba4565b6001600160a01b0316336001600160a01b031614610a2e5760405162461bcd60e51b815260206004820181905260248201527f5349474e4552204953204e4f54204f574e4552204f462054484520544f4b454e60448201526064016106fb565b6000838152600e6020526040902060019081015460ff1681811115610a6357634e487b7160e01b600052602160045260246000fd5b14610ab05760405162461bcd60e51b815260206004820152601a60248201527f544f4b454e20495320414c524541445920464f522053414c452e00000000000060448201526064016106fb565b6000838152600e6020526040902060018101805460ff1916905582905561084d3084610720565b61084d83838360405180602001604052806000815250611366565b6000610afd60095490565b8210610b715760405162461bcd60e51b815260206004820152602c60248201527f455243373231456e756d657261626c653a20676c6f62616c20696e646578206f60448201527f7574206f6620626f756e6473000000000000000000000000000000000000000060648201526084016106fb565b60098281548110610b9257634e487b7160e01b600052603260045260246000fd5b90600052602060002001549050919050565b6000818152600260205260408120546001600160a01b0316806105ee5760405162461bcd60e51b815260206004820152602960248201527f4552433732313a206f776e657220717565727920666f72206e6f6e657869737460448201527f656e7420746f6b656e000000000000000000000000000000000000000000000060648201526084016106fb565b60006001600160a01b038216610cad5760405162461bcd60e51b815260206004820152602a60248201527f4552433732313a2062616c616e636520717565727920666f7220746865207a6560448201527f726f20616464726573730000000000000000000000000000000000000000000060648201526084016106fb565b506001600160a01b031660009081526003602052604090205490565b600b546001600160a01b03163314610d235760405162461bcd60e51b815260206004820181905260248201527f4f776e61626c653a2063616c6c6572206973206e6f7420746865206f776e657260448201526064016106fb565b610d2d6000611fbe565b565b60606000610d3c60095490565b905060008167ffffffffffffffff811115610d6757634e487b7160e01b600052604160045260246000fd5b604051908082528060200260200182016040528015610da057816020015b610d8d612dd3565b815260200190600190039081610d855790505b509050600160005b838211610ebe576000828152600e6020526040812060019081015460ff1690811115610de457634e487b7160e01b600052602160045260246000fd5b1415610eac576000610df583611544565b6040805160a08101825285815260208082018490526000878152600e80835284822080549585019590955290889052905260019182015492935091606083019160ff90911690811115610e5857634e487b7160e01b600052602160045260246000fd5b8152602001610e6685610ba4565b6001600160a01b0316815250848381518110610e9257634e487b7160e01b600052603260045260246000fd5b6020908102919091010152610ea86001836134d8565b9150505b81610eb6816135a1565b925050610da8565b60008167ffffffffffffffff811115610ee757634e487b7160e01b600052604160045260246000fd5b604051908082528060200260200182016040528015610f2057816020015b610f0d612dd3565b815260200190600190039081610f055790505b50905060005b82811015610f9457848181518110610f4e57634e487b7160e01b600052603260045260246000fd5b6020026020010151828281518110610f7657634e487b7160e01b600052603260045260246000fd5b60200260200101819052508080610f8c906135a1565b915050610f26565b5095945050505050565b6000610fa9600c5490565b90507f00000000000000000000000000000000000000000000000000000000000000008111156110415760405162461bcd60e51b815260206004820152602c60248201527f4d4158204e554d424552204f4620574f4f46597320494e2043495243554c415460448201527f494f4e20414c524541445921000000000000000000000000000000000000000060648201526084016106fb565b7f000000000000000000000000000000000000000000000000000000000000000034146110ae60405180606001604052806023815260200161369d602391396110a97f000000000000000000000000000000000000000000000000000000000000000061201d565b61216b565b906110cc5760405162461bcd60e51b81526004016106fb91906134c5565b50336000908152600d602052604090205415806111265750336000908152600d60205260409020600101547f0000000000000000000000000000000000000000000000000000000000000000906111239042613523565b10155b6111985760405162461bcd60e51b815260206004820152602f60248201527f5349474e45522048415320412050454e44494e47204e4654212057414954494e60448201527f4720464f5220434f4f4c444f574e2e000000000000000000000000000000000060648201526084016106fb565b6111a23382612197565b604080518082018252828152426020808301918252336000908152600d825284902092518355905160019283015582518084019093527f000000000000000000000000000000000000000000000000000000000000000083528201526000828152600e60209081526040909120825181559082015160018083018054909160ff1990911690838181111561124657634e487b7160e01b600052602160045260246000fd5b021790555050600b54604051600092506001600160a01b03909116907f0000000000000000000000000000000000000000000000000000000000000000908381818185875af1925050503d80600081146112bc576040519150601f19603f3d011682016040523d82523d6000602084013e6112c1565b606091505b505090508061133a576040805162461bcd60e51b81526020600482015260248101919091527f434f4e5452414354204f574e455220434f554c44204e4f54204245205452414e60448201527f534645525245442054484520505249434520464f5220576f6f6679446174612160648201526084016106fb565b611348600c80546001019055565b5050565b60606001805461060390613566565b6113483383836121b1565b6113703383611ce2565b6113e25760405162461bcd60e51b815260206004820152603160248201527f4552433732313a207472616e736665722063616c6c6572206973206e6f74206f60448201527f776e6572206e6f7220617070726f76656400000000000000000000000000000060648201526084016106fb565b6113ee84848484612280565b50505050565b80600081116114385760405162461bcd60e51b815260206004820152601060248201526f12539590531251081513d2d15388125160821b60448201526064016106fb565b61144182610ba4565b6001600160a01b0316336001600160a01b0316146114a15760405162461bcd60e51b815260206004820181905260248201527f5349474e4552204953204e4f54204f574e4552204f462054484520544f4b454e60448201526064016106fb565b6000828152600e6020526040812060019081015460ff16908111156114d657634e487b7160e01b600052602160045260246000fd5b146115235760405162461bcd60e51b815260206004820152601e60248201527f544f4b454e20495320414c5245414459204e4f5420464f522053414c452e000060448201526064016106fb565b506000908152600e602052604090206001908101805460ff19169091179055565b60606105ee826122fe565b80600081116115935760405162461bcd60e51b815260206004820152601060248201526f12539590531251081513d2d15388125160821b60448201526064016106fb565b600061159e83610ba4565b6000848152600e6020526040902054909150336001600160a01b038316141561162f5760405162461bcd60e51b815260206004820152602860248201527f5349474e455220495320414c524541445920544845204f574e4552204f46205460448201527f484520544f4b454e00000000000000000000000000000000000000000000000060648201526084016106fb565b6000848152600e6020526040812060019081015460ff169081111561166457634e487b7160e01b600052602160045260246000fd5b146116b15760405162461bcd60e51b815260206004820152601660248201527f544f4b454e204953204e4f5420464f522053414c452e0000000000000000000060448201526064016106fb565b8034146116d9604051806060016040528060348152602001613629603491396110a98461201d565b906116f75760405162461bcd60e51b81526004016106fb91906134c5565b506000826001600160a01b03168260405160006040518083038185875af1925050503d8060008114611745576040519150601f19603f3d011682016040523d82523d6000602084013e61174a565b606091505b50509050806117c15760405162461bcd60e51b815260206004820152602160248201527f4f574e455220434f554c44204e4f54204245205041494420544845205052494360448201527f450000000000000000000000000000000000000000000000000000000000000060648201526084016106fb565b6040517f42842e0e0000000000000000000000000000000000000000000000000000000081526001600160a01b03841660048201523360248201526044810186905230906342842e0e90606401600060405180830381600087803b15801561182857600080fd5b505af115801561183c573d6000803e3d6000fd5b50505060009586525050600e602052505060409091206001908101805460ff1916909117905550565b336000908152600d6020526040902054806118e85760405162461bcd60e51b815260206004820152603460248201527f5349474e455220444f4553204e4f5420484156452041204e45574c59204d494e60448201527f5445442c20494e434f4d504c455445204e46542100000000000000000000000060648201526084016106fb565b336000908152600d60205260409020600101547f0000000000000000000000000000000000000000000000000000000000000000906119279042613523565b106119745760405162461bcd60e51b815260206004820152601a60248201527f5349474e455220484153204e4f2050454e44494e47204e46542100000000000060448201526064016106fb565b600061199e8360405160200161198a91906131c1565b604051602081830303815290604052612489565b90506000816040516020016119b3919061338d565b60405160208183030381529060405290506119ce83826125eb565b5050336000908152600d60205260408120818155600101555050565b600b546001600160a01b03163314611a445760405162461bcd60e51b815260206004820181905260248201527f4f776e61626c653a2063616c6c6572206973206e6f7420746865206f776e657260448201526064016106fb565b6001600160a01b038116611ac05760405162461bcd60e51b815260206004820152602660248201527f4f776e61626c653a206e6577206f776e657220697320746865207a65726f206160448201527f646472657373000000000000000000000000000000000000000000000000000060648201526084016106fb565b611ac981611fbe565b50565b60606000611ad933610c2f565b905060008167ffffffffffffffff811115611b0457634e487b7160e01b600052604160045260246000fd5b604051908082528060200260200182016040528015611b3d57816020015b611b2a612dd3565b815260200190600190039081611b225790505b5090506000805b83811015611c1757611b5633826108d9565b91506000611b6383611544565b6040805160a08101825285815260208082018490526000878152600e80835284822080549585019590955290889052905260019182015492935091606083019160ff90911690811115611bc657634e487b7160e01b600052602160045260246000fd5b8152602001336001600160a01b0316815250848381518110611bf857634e487b7160e01b600052603260045260246000fd5b6020026020010181905250508080611c0f906135a1565b915050611b44565b50909392505050565b80546001019055565b60006001600160e01b031982167f780e9d630000000000000000000000000000000000000000000000000000000014806105ee57506105ee82612694565b6000818152600460205260409020805473ffffffffffffffffffffffffffffffffffffffff19166001600160a01b0384169081179091558190611ca982610ba4565b6001600160a01b03167f8c5be1e5ebec7d5bd14f71427d1e84f3dd0314c0f7b2291e5b200ac8c7c3b92560405160405180910390a45050565b6000818152600260205260408120546001600160a01b0316611d5b5760405162461bcd60e51b815260206004820152602c60248201527f4552433732313a206f70657261746f7220717565727920666f72206e6f6e657860448201526b34b9ba32b73a103a37b5b2b760a11b60648201526084016106fb565b6000611d6683610ba4565b9050806001600160a01b0316846001600160a01b03161480611da15750836001600160a01b0316611d9684610686565b6001600160a01b0316145b80611dd157506001600160a01b0380821660009081526005602090815260408083209388168352929052205460ff165b949350505050565b826001600160a01b0316611dec82610ba4565b6001600160a01b031614611e685760405162461bcd60e51b815260206004820152602560248201527f4552433732313a207472616e736665722066726f6d20696e636f72726563742060448201527f6f776e657200000000000000000000000000000000000000000000000000000060648201526084016106fb565b6001600160a01b038216611ee35760405162461bcd60e51b8152602060048201526024808201527f4552433732313a207472616e7366657220746f20746865207a65726f2061646460448201527f726573730000000000000000000000000000000000000000000000000000000060648201526084016106fb565b611eee83838361272f565b611ef9600082611c67565b6001600160a01b0383166000908152600360205260408120805460019290611f22908490613523565b90915550506001600160a01b0382166000908152600360205260408120805460019290611f509084906134d8565b9091555050600081815260026020526040808220805473ffffffffffffffffffffffffffffffffffffffff19166001600160a01b0386811691821790925591518493918716917fddf252ad1be2c89b69c2b068fc378daa952ba7f163c4a11628f55a4df523b3ef91a4505050565b600b80546001600160a01b0383811673ffffffffffffffffffffffffffffffffffffffff19831681179093556040519116919082907f8be0079c531659141344cd1fd0a4f28419497f9722a3daafe3b4186f6b6457e090600090a35050565b60608161205d57505060408051808201909152600181527f3000000000000000000000000000000000000000000000000000000000000000602082015290565b8160005b81156120875780612071816135a1565b91506120809050600a836134f0565b9150612061565b60008167ffffffffffffffff8111156120b057634e487b7160e01b600052604160045260246000fd5b6040519080825280601f01601f1916602001820160405280156120da576020820181803683370190505b5090505b8415611dd1576120ef600183613523565b91506120fc600a866135bc565b6121079060306134d8565b60f81b81838151811061212a57634e487b7160e01b600052603260045260246000fd5b60200101907effffffffffffffffffffffffffffffffffffffffffffffffffffffffffffff1916908160001a905350612164600a866134f0565b94506120de565b60608282604051602001612180929190613192565b604051602081830303815290604052905092915050565b61134882826040518060200160405280600081525061273a565b816001600160a01b0316836001600160a01b031614156122135760405162461bcd60e51b815260206004820152601960248201527f4552433732313a20617070726f766520746f2063616c6c65720000000000000060448201526064016106fb565b6001600160a01b03838116600081815260056020908152604080832094871680845294825291829020805460ff191686151590811790915591519182527f17307eab39ab6107e8899845ad3d59bd9653f200f220920489ca2b5937696c31910160405180910390a3505050565b61228b848484611dd9565b612297848484846127b8565b6113ee5760405162461bcd60e51b815260206004820152603260248201527f4552433732313a207472616e7366657220746f206e6f6e20455243373231526560448201527131b2b4bb32b91034b6b83632b6b2b73a32b960711b60648201526084016106fb565b6000818152600260205260409020546060906001600160a01b031661238b5760405162461bcd60e51b815260206004820152603160248201527f45524337323155524953746f726167653a2055524920717565727920666f722060448201527f6e6f6e6578697374656e7420746f6b656e00000000000000000000000000000060648201526084016106fb565b600082815260066020526040812080546123a490613566565b80601f01602080910402602001604051908101604052809291908181526020018280546123d090613566565b801561241d5780601f106123f25761010080835404028352916020019161241d565b820191906000526020600020905b81548152906001019060200180831161240057829003601f168201915b50505050509050600061243b60408051602081019091526000815290565b905080516000141561244e575092915050565b815115612480578082604051602001612468929190613192565b60405160208183030381529060405292505050919050565b611dd184612910565b60608151600014156124a957505060408051602081019091526000815290565b600060405180606001604052806040815260200161365d60409139905060006003845160026124d891906134d8565b6124e291906134f0565b6124ed906004613504565b67ffffffffffffffff81111561251357634e487b7160e01b600052604160045260246000fd5b6040519080825280601f01601f19166020018201604052801561253d576020820181803683370190505b509050600182016020820185865187015b808210156125a9576003820191508151603f8160121c168501518453600184019350603f81600c1c168501518453600184019350603f8160061c168501518453600184019350603f811685015184535060018301925061254e565b50506003865106600181146125c557600281146125d8576125e0565b603d6001830353603d60028303536125e0565b603d60018303535b509195945050505050565b6000828152600260205260409020546001600160a01b03166126755760405162461bcd60e51b815260206004820152602e60248201527f45524337323155524953746f726167653a2055524920736574206f66206e6f6e60448201527f6578697374656e7420746f6b656e00000000000000000000000000000000000060648201526084016106fb565b6000828152600660209081526040909120825161084d92840190612e21565b60006001600160e01b031982167f80ac58cd0000000000000000000000000000000000000000000000000000000014806126f757506001600160e01b031982167f5b5e139f00000000000000000000000000000000000000000000000000000000145b806105ee57507f01ffc9a7000000000000000000000000000000000000000000000000000000006001600160e01b03198316146105ee565b61084d838383612a06565b6127448383612abe565b61275160008484846127b8565b61084d5760405162461bcd60e51b815260206004820152603260248201527f4552433732313a207472616e7366657220746f206e6f6e20455243373231526560448201527131b2b4bb32b91034b6b83632b6b2b73a32b960711b60648201526084016106fb565b60006001600160a01b0384163b1561290557604051630a85bd0160e11b81526001600160a01b0385169063150b7a02906127fc9033908990889088906004016133d2565b602060405180830381600087803b15801561281657600080fd5b505af1925050508015612846575060408051601f3d908101601f19168201909252612843918101906130cb565b60015b6128eb573d808015612874576040519150601f19603f3d011682016040523d82523d6000602084013e612879565b606091505b5080516128e35760405162461bcd60e51b815260206004820152603260248201527f4552433732313a207472616e7366657220746f206e6f6e20455243373231526560448201527131b2b4bb32b91034b6b83632b6b2b73a32b960711b60648201526084016106fb565b805181602001fd5b6001600160e01b031916630a85bd0160e11b149050611dd1565b506001949350505050565b6000818152600260205260409020546060906001600160a01b031661299d5760405162461bcd60e51b815260206004820152602f60248201527f4552433732314d657461646174613a2055524920717565727920666f72206e6f60448201527f6e6578697374656e7420746f6b656e000000000000000000000000000000000060648201526084016106fb565b60006129b460408051602081019091526000815290565b905060008151116129d457604051806020016040528060008152506129ff565b806129de8461201d565b6040516020016129ef929190613192565b6040516020818303038152906040525b9392505050565b6001600160a01b038316612a6157612a5c81600980546000838152600a60205260408120829055600182018355919091527f6e1540171b6c0c960b71a7020d9f60077f6af931a8bbf590da0223dacf75c7af0155565b612a84565b816001600160a01b0316836001600160a01b031614612a8457612a848382612c19565b6001600160a01b038216612a9b5761084d81612cb6565b826001600160a01b0316826001600160a01b03161461084d5761084d8282612d8f565b6001600160a01b038216612b145760405162461bcd60e51b815260206004820181905260248201527f4552433732313a206d696e7420746f20746865207a65726f206164647265737360448201526064016106fb565b6000818152600260205260409020546001600160a01b031615612b795760405162461bcd60e51b815260206004820152601c60248201527f4552433732313a20746f6b656e20616c7265616479206d696e7465640000000060448201526064016106fb565b612b856000838361272f565b6001600160a01b0382166000908152600360205260408120805460019290612bae9084906134d8565b9091555050600081815260026020526040808220805473ffffffffffffffffffffffffffffffffffffffff19166001600160a01b03861690811790915590518392907fddf252ad1be2c89b69c2b068fc378daa952ba7f163c4a11628f55a4df523b3ef908290a45050565b60006001612c2684610c2f565b612c309190613523565b600083815260086020526040902054909150808214612c83576001600160a01b03841660009081526007602090815260408083208584528252808320548484528184208190558352600890915290208190555b5060009182526008602090815260408084208490556001600160a01b039094168352600781528383209183525290812055565b600954600090612cc890600190613523565b6000838152600a602052604081205460098054939450909284908110612cfe57634e487b7160e01b600052603260045260246000fd5b906000526020600020015490508060098381548110612d2d57634e487b7160e01b600052603260045260246000fd5b6000918252602080832090910192909255828152600a90915260408082208490558582528120556009805480612d7357634e487b7160e01b600052603160045260246000fd5b6001900381819060005260206000200160009055905550505050565b6000612d9a83610c2f565b6001600160a01b039093166000908152600760209081526040808320868452825280832085905593825260089052919091209190915550565b6040518060a0016040528060008152602001606081526020016000815260200160006001811115612e1457634e487b7160e01b600052602160045260246000fd5b8152600060209091015290565b828054612e2d90613566565b90600052602060002090601f016020900481019282612e4f5760008555612e95565b82601f10612e6857805160ff1916838001178555612e95565b82800160010185558215612e95579182015b82811115612e95578251825591602001919060010190612e7a565b50612ea1929150612ea5565b5090565b5b80821115612ea15760008155600101612ea6565b600067ffffffffffffffff80841115612ed557612ed56135fc565b604051601f8501601f19908116603f01168101908282118183101715612efd57612efd6135fc565b81604052809350858152868686011115612f1657600080fd5b858560208301376000602087830101525050509392505050565b80356001600160a01b0381168114612f4757600080fd5b919050565b600060208284031215612f5d578081fd5b6129ff82612f30565b60008060408385031215612f78578081fd5b612f8183612f30565b9150612f8f60208401612f30565b90509250929050565b600080600060608486031215612fac578081fd5b612fb584612f30565b9250612fc360208501612f30565b9150604084013590509250925092565b60008060008060808587031215612fe8578081fd5b612ff185612f30565b9350612fff60208601612f30565b925060408501359150606085013567ffffffffffffffff811115613021578182fd5b8501601f81018713613031578182fd5b61304087823560208401612eba565b91505092959194509250565b6000806040838503121561305e578182fd5b61306783612f30565b91506020830135801515811461307b578182fd5b809150509250929050565b60008060408385031215613098578182fd5b6130a183612f30565b946020939093013593505050565b6000602082840312156130c0578081fd5b81356129ff81613612565b6000602082840312156130dc578081fd5b81516129ff81613612565b6000602082840312156130f8578081fd5b813567ffffffffffffffff81111561310e578182fd5b8201601f8101841361311e578182fd5b611dd184823560208401612eba565b60006020828403121561313e578081fd5b5035919050565b60008060408385031215613157578182fd5b50508035926020909101359150565b6000815180845261317e81602086016020860161353a565b601f01601f19169290920160200192915050565b600083516131a481846020880161353a565b8351908301906131b881836020880161353a565b01949350505050565b7f7b226e616d65223a22576f6f6679222c226465736372697074696f6e223a225781527f6f6f66792069732061206375746520646f672c206c696b657320746f20706c6160208201527f792073757065726865726f20696e206120636170652e2045616368204e46542060408201527f6f662068696d206973206d61726b65642077697468206120756e69717565206e60608201527f756d6265722e2047657420796f75727320746f6461792121222c22617474726960808201527f6275746573223a5b7b2274726169745f74797065223a22437574656e6573732260a08201527f2c2276616c7565223a3130302c22646973706c61795f74797065223a22626f6f60c08201527f73745f6e756d626572227d2c7b2274726169745f74797065223a224865726f6960e08201527f736d222c2276616c7565223a37352c22646973706c61795f74797065223a22626101008201527f6f6f73745f6e756d626572227d5d2c22696d616765223a22000000000000000061012082015260006101388351613353818386016020880161353a565b61338482828601017f227d000000000000000000000000000000000000000000000000000000000000815260020190565b95945050505050565b7f646174613a6170706c69636174696f6e2f6a736f6e3b6261736536342c0000008152600082516133c581601d85016020870161353a565b91909101601d0192915050565b60006001600160a01b038087168352808616602084015250836040830152608060608301526134046080830184613166565b9695505050505050565b60006020808301818452808551808352604092508286019150828160051b870101848801865b838110156134b757603f19898403018552815160a08151855288820151818a87015261346282870182613166565b91505087820151888601526060808301516002811061348f57634e487b7160e01b8c52602160045260248cfd5b908601526080918201516001600160a01b031691909401529386019390860190600101613434565b509098975050505050505050565b6020815260006129ff6020830184613166565b600082198211156134eb576134eb6135d0565b500190565b6000826134ff576134ff6135e6565b500490565b600081600019048311821515161561351e5761351e6135d0565b500290565b600082821015613535576135356135d0565b500390565b60005b8381101561355557818101518382015260200161353d565b838111156113ee5750506000910152565b600181811c9082168061357a57607f821691505b6020821081141561359b57634e487b7160e01b600052602260045260246000fd5b50919050565b60006000198214156135b5576135b56135d0565b5060010190565b6000826135cb576135cb6135e6565b500690565b634e487b7160e01b600052601160045260246000fd5b634e487b7160e01b600052601260045260246000fd5b634e487b7160e01b600052604160045260246000fd5b6001600160e01b031981168114611ac957600080fdfe494e434f52524543542056414c55452053454e5420464f522050555243484153494e473b20434f52524543542056414c55453a204142434445464748494a4b4c4d4e4f505152535455565758595a6162636465666768696a6b6c6d6e6f707172737475767778797a303132333435363738392b2f494e434f525245435420414d4f554e54204f46205745492053454e54212053454e4420a26469706673582212209f9bdcfb98a13d35a618b4d3a37d7ea01c1eb0e4c796c2e947bfde1635eef5f164736f6c63430008040033",
  "linkReferences": {},
  "deployedLinkReferences": {}
}